:020000040001F9
:1090000090590020E1930100E9930100EB930100E6
:10901000ED930100EF930100F193010000000000C7
:10902000000000000000000000000000F3930100B9
:10903000F593010000000000F7930100F99301008F
:109040004D990100FB930100FB930100FB9301008C
:10905000659B010000000000A9980100BD99010076
:10906000FB930100FB930100FB9301009D9901001C
:10907000FB930100FB930100FB930100FB930100B4
:10908000259D0100AD9901000000000000000000D6
:10909000FB930100FB930100A99B0100FB930100DE
:1090A000FB930100FB9301000000000000000000A2
:1090B00000000000000000000000000000000000B0
:1090C00000000000000000000000000000000000A0
:1090D0000000000000000000000000000000000090
:1090E0000000000000000000000000000000000080
:1090F0000000000000000000000000000000000070
:10910000000000000000000000000000000000005F
:10911000000000000000000000000000000000004F
:10912000000000000000000000000000000000003F
:10913000000000000000000000000000000000002F
:10914000000000000000000000000000000000001F
:10915000000000000000000000000000000000000F
:1091600000000000000000000000000000000000FF
:1091700000000000000000000000000000000000EF
:1091800000000000000000000000000000000000DF
:1091900000000000000000000000000000000000CF
:1091A00000000000000000000000000000000000BF
:1091B00000000000000000000000000000000000AF
:1091C000000000000000000000000000000000009F
:1091D000000000000000000000000000000000008F
:1091E000000000000000000000000000000000007F
:1091F000000000000000000000000000000000006F
:10920000DFF810D000F012FB00480047E9D401005D
:10921000AFF300809059002000B583B00290009118
:10922000019244F2010071466A4600F0B5FE03B0B7
:1092300000BD000030B450E8012F93B2C48923442C
:109240008489A34228BF1B1B0489A34202BFBFF32A
:109250002F8F002007E0C3EA020340E80134002C0E
:10926000E9D14FF001000A6030BC704750E8012F8F
:10927000C2EA024240E801210029F7D1704730B428
:1092800050E8022F1FFAA2F3C488A34202BFBFF323
:109290002F8F00200DE0C48923448489A34228BF76
:1092A0001B1BC2EA034340E80234002CE8D14FF014
:1092B00001000A6030BC704750E8022FC2EA224227
:1092C00040E802210029F7D17047034653E8022FF6
:1092D000D988B2EB324F4FF0000017BF92B241EA8B
:1092E000014142EA014104E05A68B2EB324F08BF43
:1092F000012043E80212002AE8D1704730B4044646
:1093000054E8000F0D4644E80053002BF8D11560D7
:1093100030BC704730B4044654E8000F40EA010501
:1093200044E80053002BF7D1156030BC704730B4CF
:10933000044654E8000F00EA010544E80053002BFE
:10934000F7D1156030BC704730B4044654E8000FC4
:1093500080EA010544E80053002BF7D1156030BCCA
:10936000704730B4044654E8000F00EB010544E8B0
:109370000053002BF7D1156030BC704730B4044661
:1093800054E8000FA0EB010544E80053002BF7D18F
:10939000156030BC704770B404464FF0000054E8CC
:1093A000006F0D68AE4207BF44E80023012044E887
:1093B00000630E60002B1CBF0020F0E770BC7047FC
:1093C00030B4044654E8000F88422CBF451A0546C5
:1093D00044E80053002BF5D1156030BC7047000005
:1093E0000648804706480047FEE7FEE7FEE7FEE73F
:1093F000FEE7FEE7FEE7FEE7FEE7FEE7AD9B0100C6
:10940000019201002DE9F05F0546002092469B463F
:1094100088460646814640241BE02846414647468A
:10942000224600F096F953465A46C01A914110D38D
:1094300011461846224600F016F82D1A67EB01086F
:109440004F4622460120002100F00DF817EB0009DD
:109450004E41201EA4F10104DFDC484631462A4675
:109460004346BDE8F09F202A04DB203A00FA02F1CF
:10947000002070479140C2F1200320FA03F3194302
:109480009040704700487047AC23020040EA010357
:109490009B0703D009E008C9121F08C0042AFAD2AA
:1094A00003E011F8013B00F8013B521EF9D270476E
:1094B000D2B201E000F8012B491EFBD27047002216
:1094C000F6E710B513460A4604461946FFF7F0FFC3
:1094D000204610BD421C10F8011B0029FBD1801A48
:1094E0007047034611F8012B00F8012B002AF9D12F
:1094F000184670472DE9FE4F81EA030404F000444A
:1095000021F0004100944FF0000B23F0004350EA9B
:1095100001045ED052EA03045BD0C3F30A54C1F3E2
:109520000A552C44A4F2F3340194A0FB0254C1F375
:10953000130141F48011C3F3130343F4801301FBBF
:10954000024400FB034E840A970A44EA815447EA26
:109550008357A4FB076802958D0A05FB07854FEA30
:10956000932C04FB0C542705029D4FEA065847EA4A
:109570001637B5EB08056EEB070C870E920E47EA1F
:10958000811742EA8312A7FB0201B6EB0B0164EBE1
:1095900000042B0D43EA0C335E1844EB1C50DA46F2
:1095A0005146E7FB0201C5F313044FEA0B3343EACC
:1095B00014534FEA0432019C43EA0603A4F10C045D
:1095C0000294009CCDE900B400F0E2F803B0BDE8DD
:1095D000F08F00200146F9E72DE9F04D81EA030400
:1095E00004F0004B21F0004514464FF0000A23F030
:1095F000004150EA050220D054EA01021DD0C5F313
:109600000A570246C5F31303C1F31300C1F30A5608
:1096100040F4801543F48013A7EB0608101BD646D0
:1096200008F2FD3873EB050002D308F1010801E0F0
:1096300092185B41B8F1000F03DA00200146BDE843
:10964000F08D00204FF48011064684460EE0171B73
:1096500073EB050705D3121B63EB050306434CEAC6
:10966000010C49084FEA300092185B4150EA0107AB
:10967000EDD152EA030012D082EA040083EA050128
:10968000084305D0101BAB4106D20122002306E09F
:1096900000224FF0004302E06FF0010253101AEB7A
:1096A00006004CEB085110EB0A0041EB0B01BDE842
:1096B000F04D00F05EB870B521F0004303430CD0CC
:1096C000C1F30A550024D5EB040564EB0403D61757
:1096D000AD1AB34102DB0020014670BD201841EBFA
:1096E000025170BD0EB5C10F80EAE0700844CA0790
:1096F000002140F233438DE80E000A460B4600F08D
:1097000047F803B000BD0EB540F23341029100218D
:10971000CDE900110A460B4600F03AF803B000BD4F
:10972000C1F30A5210B5C1F3130140F2FF3341F403
:1097300080119A4201DA002010BD40F233439A4270
:10974000A2F2334203DC524200F003F810BD904015
:1097500010BD202A04DB203A21FA02F000217047D4
:1097600021FA02F3D040C2F1200291400843194689
:10977000704710B5141E73F1000408DA401C41F163
:10978000000192185B411A4301D120F0010010BD85
:109790002DE9F04D92469B4611B1B1FA81F202E0FB
:1097A000B0FA80F220329046FFF75DFE04460F4685
:1097B00040EA0A0041EA0B0153465A46084313D0D7
:1097C000114653EA010019D0C8F140025046FFF794
:1097D000C0FF05460E46504659464246FFF743FE37
:1097E000084305D0012004E020463946BDE8F08D4D
:1097F0000020054346EAE0762C4337430A98630588
:10980000E40AA0EB08000022FD0A44EA47540A30AB
:1098100002D500200146E9E7010510196941DDE99B
:10982000084500196941BDE8F04DA2E7064C074D17
:1098300006E0E06840F0010394E807009847103420
:10984000AC42F6D3FFF7E0FC682B0200882B020045
:1098500070B58C1810F8015B15F0070301D110F8F2
:10986000013B2A1106D110F8012B03E010F8016B1F
:1098700001F8016B5B1EF9D12B0705D40023521EA2
:109880000DD401F8013BFAE710F8013BCB1A921C0A
:1098900003E013F8015B01F8015B521EF9D5A14208
:1098A000D8D3002070BD00002DE9F8430025DFF873
:1098B00094804FF4807601242F460095304605F0C1
:1098C0005DF938B1D8F80403204203D0304605F0E2
:1098D0004BF92543361D64007F1CB6B2082FEDD32B
:1098E0004FF4BE74204605F049F948B1204605F012
:1098F0003BF945F000456A460121002005F004F9D6
:1099000015F0FF0F16D0012600242E420ED008EBD2
:109910008401D1F81005D1F81015C0F304200A4ACB
:10992000C1F3014152F8242002B190477600641C33
:10993000082CEAD3002D02DA684606F035FFBDE8B0
:10994000F8830000006000404847002070B54FF4E5
:109950008076304604F018FB0F4DB40540B1304618
:1099600004F019FB0120C4F8080329680020884787
:109970004FF48276304604F007FB00280AD03046C8
:1099800004F009FB0220C4F808032968BDE8704010
:109990000120084770BD0000082400200322002198
:1099A000014803F0B3BC000000B000400249024887
:1099B000091F096800680847502400202DE9FE436C
:1099C0004FF48278404605F0A5FC4C4F00254C4CE6
:1099D000012600B3404605F0A5FC94F82E0010B116
:1099E00094F82F10D1B18DF8005061680191218950
:1099F000ADF80810E26832B1218B61836260218189
:109A0000E56010B102E0257400E03E602168684620
:109A1000884784F82F5094F82E0060B34FF4807775
:109A2000384605F077FC30B3384605F07BFC628B96
:109A300094F82D108A420AD9A2EB010080B260830B
:109A40002289A2EB0000626802EB400005E007D12A
:109A5000E06828B184F82F60658305F049FC04E0D4
:109A60008A4202D184F82F606583404605F05AFC93
:109A70002248001D06604FF48877384605F04AFCFE
:109A800048B1384605F04EFC257402208DF80000E0
:109A90002168684688474FF48A77384605F03AFCD3
:109AA00028B1384605F03EFC2574BDE8FE834FF032
:109AB00000484FF48C7967691DE000BFB7FA87F062
:109AC00028FA00F109EB80058F43284605F022FCB7
:109AD00088B1284605F026FCA5F58C75E8088DF8B8
:109AE000040045F38000401C8DF800608DF80500EF
:109AF000216868468847002FE0D1D6E70070004013
:109B0000A447002000F020B970B50E46144900EBC0
:109B1000400001EBC0051446E86A183520B1012861
:109B20000FD0022805D113E0284600F041F9A042E9
:109B300001D2002411E022463146284600F070F997
:109B40000BE0284600F034F9A042F4D20446F2E7D4
:109B50003146284600F037F90446204670BD000023
:109B6000084F002038B54FF040200E4C0025C0F8BB
:109B70000851D0F808110091214607F007FE00288F
:109B80000ED1A07FFF2801D004F0DBFF657725729E
:109B9000D4E9002101B004F10800BDE830401047CD
:109BA00038BD0000D447002005F022BE30B54FF08C
:109BB0008051D1F84412504AC1F3423111604FF044
:109BC00080420021C2F80C11C2F810114A4A121F3B
:109BD00011604A4A12684A4B1A60484A121D1268BC
:109BE0001B1D1A60454A083212681B1D1A60434A41
:109BF0000C3212681B1D1A60404A103212681B1D7D
:109C00001A603E4A143212681B1D1A603B4A183211
:109C100012683B4B20331A60384A1C3212681B1DF5
:109C20001A60364A203212681B1D1A60334A2432E9
:109C300012681B1D1A60314A283212681B1D1A60F7
:109C40002E4A2C3212681B1D1A602C4A30321268C0
:109C50002B4B40331A60294A343212681B1D1A609C
:109C6000264A383212681B1D1A60244A3C32126898
:109C70001B1D1A60214A403212681B1D1A60214ABE
:109C80001368DB0701D08B1E13601F48026842F087
:109C90000F0202604FF01022D2F80002002803DB0E
:109CA000D2F80402002822DA184B01201860184864
:109CB0000468002CFCD01524C2F800420568002D71
:109CC000FCD0C2F804420268002AFCD01960016886
:109CD0000029FCD0BFF34F8F0E4801680E4A01F4F3
:109CE000E06111430160BFF34F8F00BFFDE70C49F6
:109CF0000A48086030BD00003C0500400404001024
:109D000020C5004000040040E40E004004E501408E
:109D100000E401400CED00E00400FA050090D003DF
:109D2000CC24002038B5064C20680025002805D03A
:109D300004484068804725602068009038BD0000D6
:109D4000000101401824002010B5124C02202061AF
:109D5000606111A0A06104F17800E0614FF400702F
:109D600020620020A06260620BA1A164E06204F5A1
:109D70001E71E1641021A065C4E91410E06509A119
:109D8000E01DFFF7AEFB08A12046FFF7AAFB20204D
:109D9000A07110BD084F00205465726D696E616C32
:109DA00000000000525454005345474745520000FC
:109DB0000269C1688A4203D88068401A104400E0F2
:109DC000501A401E70472DE9F047C468174689466F
:109DD00006464FF000083069A04201D9051B02E099
:109DE000B168201A0D1AB0686D1E001BA84200D879
:109DF0000546BD4200D33D4670682A462044494688
:109E0000FFF744FBB0687F1B2C44A844A944A04240
:109E100000D10024F460002FDDD14046BDE8F0877A
:109E20002DE9F04104468846D4E90207C51BE168E4
:109E3000606816460844B54206D94146FFF726FB3E
:109E4000B819E060BDE8F0812A464146FFF71EFBE5
:109E5000761B08EB050132466068FFF717FBE660EA
:109E6000F0E702E008C8121F08C1002AFAD17047C3
:109E70007047002001E001C1121F002AFBD170478A
:109E80000121202803DA81400548014003E04028F1
:109E900002DA2038814009B1012070470020704764
:109EA000FC06FFBD800701D00020704701207047ED
:109EB000C3688B4206D811440069491E814201D80B
:109EC000012070470020704790F824001F20704741
:109ED00010B501220221002002F04AF808B107283B
:109EE00010D107220221012002F042F808B1072810
:109EF00008D100210A22084602F03AF808B10728E2
:109F000000D1002010BD000000B5ADB004208DF8D8
:109F1000AC00AC216846FFF7D2FA02208DF80000B1
:109F200000208DF8020006218DF803102BA9019165
:109F30000121ADF84C10144A8DF87C1014924FF4A6
:109F4000C861CDE92210114829906946104800F0F7
:109F500044FC20B10F4A40F22D21FFF75DF90121A9
:109F60000B4800F037FC0A489DF9AC2090F85410DB
:109F7000012077DF002804D0064A40F23121FFF7A4
:109F80004BF92DB000BD0000E42200203504020092
:109F9000DC3D0020D0D80100FEB515460E46074630
:109FA00072B605F081F800BF04F0B6FE0028FBD1C0
:109FB0002249234A0120891AC90800EB0144012FD4
:109FC00022D06FF48050381821D0B0F5405F23D0F4
:109FD0006FF44051C842204605D1D5E9003219A19D
:109FE00004F0BFFF03E032461DA104F0B3FF224896
:109FF0000068C00700D000BE2A4603B0314638468C
:10A00000BDE8F04000F07AB820461CA101E02046EF
:10A0100022A104F09BFFEAE7A86805F0BDFC034617
:10A02000D5E90001CDE900100296204624A1AA68D6
:10A0300004F0A8FF20462CA1EBE70000082C02004A
:10A04000982B0200415353455254494F4E204641EC
:10A05000494C45442061742025733A257500000061
:10A06000554E4B4E4F574E204641554C542061742F
:10A070002030782530385800F0ED00E0534F46543A
:10A080004445564943453A20415353455254494F5C
:10A090004E204641494C454400000000534F465471
:10A0A0004445564943453A20494E56414C4944207F
:10A0B0004D454D4F525920414343455353000000F5
:10A0C0004552524F52202575205B25735D206174E7
:10A0D0002025733A25750D0A50432061743A2030CB
:10A0E0007825303878000000456E64206F66206562
:10A0F00072726F72207265706F72740008B50123FE
:10A100008DF800309DF80030144B186059609A604B
:10A110006FF48041401807D001280FD1DA60D86869
:10A1200000689861D86807E01A611869806858610A
:10A1300018690068986118694068D861186858689B
:10A140009868D868186958699869D86972B600BF64
:10A150009DF800000028FBD162B608BD0048002031
:10A160000821417105218171122101710021C17104
:10A170001421017301F09BBC2DE9FC4105464220EE
:10A180008DF8040003208DF800002B46012269465B
:10A19000682001F047FC287D102120F0F00040F0FD
:10A1A0000F00697580302875284601F037F90600E0
:10A1B00021482249A0EB01004FEAD0004FF00301F3
:10A1C00001EB004403D0204632461DA11CE0234889
:10A1D00001F081FD060003D02046324620A113E0A5
:10A1E0001E4F022087F82600384601F0BEFD06000B
:10A1F00007D1012087F82200384601F094FD0600BF
:10A2000007D0204632461CA104F0A4FE3046BDE82B
:10A21000FC81287D294620F0F0008030287501A8B7
:10A2200001F01DFB0500F2D020462A4618A104F0DB
:10A2300091FE2846EBE70000082C0200982B020054
:10A24000626D693136302061757820696E697420DD
:10A250006572726F723A25640A00000018230020AC
:10A26000626D6D31353020696E6974206572726F70
:10A27000723A25640A000000626D6D31353020733A
:10A280006574206F70206572726F723A25640A00DF
:10A29000626D693136302073657420617578206194
:10A2A00075746F206D6F6465206572726F723A25E8
:10A2B000640A000070B51A49064601F5806032460E
:10A2C00001604FF480618180B0610021FE2001F0C7
:10A2D00002FB050013481449A0EB01004FEAD0002F
:10A2E0004FF0030101EB004403D020462A460FA1A2
:10A2F00012E032460121F02001F0EDFA020003D015
:10A30000204618A104F026FE304601F024FB05008B
:10A3100005D020462A461FA104F01CFE284670BD29
:10A3200000410020082C0200982B0200436C65615C
:10A3300072204649464F20636F6E66696775726189
:10A3400074696F6E207265676973746572206572D7
:10A35000726F722C206572726F7220636F64653A3F
:10A3600020256400626D693136305F7365745F6605
:10A3700069666F5F636F6E666967206572726F7280
:10A380002C206572726F7220636F64653A202564B9
:10A3900000000000466C757368204649464F2065F2
:10A3A00072726F722C206572726F7220636F6465B7
:10A3B0003A202564000000000821417302218173C6
:10A3C000152101730021C17301F071BB10B500208C
:10A3D00005F008FE0B4C207901280FD106F042FD54
:10A3E00007F0BCFCA08205F087FCA18A40F67A52F7
:10A3F0000020914203D20121E171607010BDE07133
:10A4000010BD0000C8220020014802F05EBA000022
:10A410003024002010B55AB100684FF0FF340129F4
:10A420004261C0E9024400D000210161002010BD5A
:10A43000072010BD38B51148082358224168009103
:10A440000F49006803F0B6FB002815D10D4A694694
:10A450000D4802F03FFA04000ED101210A4802F033
:10A46000B0FA0123094A1946074802F006FA0649DC
:10A47000012008390870204638BD0000382002004D
:10A48000304800200D0D020030240020FFFF7F0027
:10A49000F8B50446002617460D468DF8006068465C
:10A4A00000F042F8D4E90201C04370EA010005D08F
:10A4B0009DF8000000F05CF80020F8BD02F05AFEA4
:10A4C00040197141C4E902019DF8000000F050F804
:10A4D000A761206900B125612146BDE8F840002050
:10A4E00007F038B938B5044600208DF800006846FA
:10A4F00000F01AF8D4E90201C04370EA01000DD05F
:10A500004FF0FF30C4E902009DF8000000F030F881
:10A510002146BDE83840012007F01CB99DF8000035
:10A5200000F026F8002038BD30B5EFF3108172B688
:10A530000D4A9468012324B10370002900D162B64A
:10A5400030BD93604FF0E023D3F88051074C254095
:10A550001560C3F88041D3F8844154605A17C3F89A
:10A56000842100220270E8E788480020FC06FFBD35
:10A570000B498A68002A11D000280FD1EFF3108010
:10A5800072B60B684FF0E022C2F800314B68C2F897
:10A59000043100228A60002800D162B670470000B2
:10A5A0008848002070B51500044609D000202860B6
:10A5B00034B1206820B1A079800703D0072070BD96
:10A5C0000E2070BD084600F0EFFAC0B2142804D087
:10A5D0002179814203D8042070BD052070BDE28836
:10A5E000216800FB02102860002070BD2DE9FC47A7
:10A5F000002517880646158090F82D0014468946D8
:10A6000030B13A462146484600F0E2FA051E09D12B
:10A61000B0784FF00C0A18B32088C846001DB84225
:10A6200002D95046BDE8FC87684679DF0028F9D199
:10A630002088032108F8001020881921401C80B2CE
:10A64000208008F800102088401C80B2208000EB99
:10A650000801BDF8000007F0CBF8218808442080ED
:10A66000F0780222C8B1218896F9033001F1030C79
:10A670004846BC45D5D8425421884FF0010C491CAE
:10A6800089B2218000F801C02188491C89B221804B
:10A6900009F801302088401C20807068B8B12188FA
:10A6A00090F9003001F1030C4846BC45B9D842543A
:10A6B00021880A22491C89B2218042542188491CE0
:10A6C00089B2218009F801302088401C208030891F
:10A6D00050B1CDE900474B460622022106F10800A1
:10A6E00007F066FB051E9DD1308A50B1CDE90047C9
:10A6F0004B460722032106F1100007F059FB051E07
:10A7000090D1308B50B1CDE900474B461522142132
:10A7100006F1180007F04CFB051E83D1306A30B1FA
:10A720003B462246494602F016F8051EDBD1706A08
:10A7300030B13B462246494603F006F9051ED2D108
:10A7400096F82C0038B13B4622464946304606F082
:10A75000EBFC051EC7D1307838B13B46224649464E
:10A76000304603F085F9051EBDD128465AE718B5D5
:10A7700004460020ADF8000013466A46204600F06B
:10A7800006F8002802D0BDF80000204418BD70B5BE
:10A79000E0B1DAB1002402E0045D2C44A4B2651CEF
:10A7A0008D4206D21688A642F6D8061976789E42C1
:10A7B000F2D18C420AD2A31C005D9BB200B1401EB4
:10A7C0000004000C02D01C188C4201D9002070BD7E
:10A7D000138070BD80F8301070472DE9F0410D00F6
:10A7E000044606D02CB195F87A000026012803D043
:10A7F00006E00E20BDE8F08195F89800012829D0E8
:10A80000D5F8A000042825D0D5F89C00042821D034
:10A810004FF00108A6702C2205F17801201DFEF7EB
:10A8200035FE84F83060D5F8A4006063D5F8A80040
:10A83000A0634FF6FF70A4F8E80004F1D400C4F858
:10A84000E400C4F8EA60A4F8EE6084F8F0602078D0
:10A8500010B104E00720CDE7FF2084F8540004F194
:10A8600055072046C4F8D470FFF72EFBA4F8D80093
:10A8700004F1D80239462846FFF7B8FE0028B9D1BE
:10A8800004F19300C4F8DC002046FFF71DFBA4F898
:10A89000E00004F1E00205F13C00D4F8DC10FFF721
:10A8A000A5FE0028A6D184F85180208BA4F848008A
:10A8B00084F83C80266484F85060606900216064FC
:10A8C000454604F13C02781E72DF002892D12570C3
:10A8D00090E710B50288102A1BD0112A20D0262A12
:10A8E0001DD1007A0C46012801D0022817D1A0788A
:10A8F0000521401CB0FBF1F201FB1201204600F0E3
:10A900001DF800280BD0A16B002908D0BDE810402D
:10A910000847C27B012A02D18088A1F8E80010BD57
:10A920000C46002184F8F2108088B4F8E8108842C0
:10A93000F5D120790028F2D10121DFE72DE9F05F80
:10A94000044600780F4698B1A7700025C4F8EA5075
:10A95000A4F8EE5084F8F050A079012608B1012F38
:10A9600009D0E07980B1012F05D0022F03D00BE090
:10A970000820BDE8F09F616B21B184F8F1600820E8
:10A98000884701E084F8F15004F1EB0100200A5CF3
:10A990000AB1304603E0401C0628F8D300204FF0EF
:10A9A00002084FF0030A4FF0040B012F06D0022FCC
:10A9B0000CD0032F0FD0042F15D110E0A17929B1AD
:10A9C00094F8241011B908B130460DE0E17911B1C5
:10A9D00008B1404608E0207A08B1504604E0607AA9
:10A9E00008B1584600E02846A070616B41B10328C9
:10A9F00001D0042804D1607910B194F8F20098B124
:10AA000084F8F35004F13C0018210746FEF757FD87
:10AA100084F83C6004F12C0005F0BCFE58B194F8B9
:10AA20002C0084F8510008E084F8F45084F8F360B6
:10AA300007208847E6E784F8516094F8240058B16D
:10AA400004F1280005F0A6FE20B194F8280084F84F
:10AA5000520001E084F8526084F85050A27804F16A
:10AA6000EA0104F1D409052A4DD2DFE802F06503BA
:10AA70000F1B320084F83160C4F8E450C4E91015AB
:10AA800084F83C808020A4F848003EE084F83180BF
:10AA900087F800A0228ABA81C4F8E4507960E1689E
:10AAA000B96032E06069B860208BB8813D4684F8B7
:10AAB0003C60204607F034F940B185F81480042149
:10AAC000204602F0F9F9F0B9052115E084F831A02B
:10AAD00017E0E069B860208CB8813D4684F83C609E
:10AAE000204607F01DF950B185F814800421204656
:10AAF00002F0E2F938B9062184F8311001E084F857
:10AB000031B0C4F8E490A07878B13A4604F154002A
:10AB1000D4F8E41072DF00287FF42BAF94F83010E3
:10AB200094F8540073DF0028F6D1616B11B194F8EA
:10AB30003100884700201CE784F83150F5E7000019
:10AB400070B5040012D001461C221448FEF79EFC8A
:10AB50001248134D0560206850B17ADF002806D1F5
:10AB60002068016829604068686005E00E2070BDBB
:10AB70000B487BDF0028FAD108484FF6FF711438E4
:10AB8000084A20F8041B0549343901600021FFF709
:10AB900041FC0028EBD0032070BD00009C46002043
:10ABA00000240020B91C020010B5044600F006F88D
:10ABB00008B1204610BD142010BD0000142801D398
:10ABC000002070470146014803F03EB8BC46002013
:10ABD0007CB5054608880C460930904201D90C2006
:10ABE0007CBD68466DDF0028FAD1218808206854B2
:10ABF00020881B21401C80B2208029542088401CC2
:10AC000080B220802844DDF801100160BDF80510F5
:10AC100081802088801D80B220809DF80010490826
:10AC200000D0012129542088401C208000207CBDB8
:10AC3000F8B5054601884348434A444C801AC00889
:10AC4000E78A212956D01CDC3F4A3E4B4FF00300D7
:10AC5000A3EB02024FEAD20200EB02404FF00106E2
:10AC6000102920D0112937D0132942D100231A46A8
:10AC7000852138467FDF00283BD035A240F29F1166
:10AC80000DE03B2955D0522948D0562931D1A8880A
:10AC9000132176DF00282CD02DA240F2B311BDE89D
:10ACA000F840FEF7B9BA2EA104F050F9267166718A
:10ACB000072001F07FF920B125A240F27D11FEF7B7
:10ACC000ABFAA988E1822A4803F0E6F8002810D000
:10ACD0001FA24FF4C071E2E726A104F037F900206B
:10ACE000207166716070A070E07060744FF6FF7044
:10ACF000E082F8BD042101EB004023A104F026F915
:10AD00002648694600680090A8888FDF0028F0D0A8
:10AD10000FA24FF4CC71FEF77FFAF8BD00231A465C
:10AD200019463846B1DF0028F7D009A240F2A51134
:10AD3000B5E7A888132176DF0028EED004A24FF4EF
:10AD4000D671ACE7082C0200982B0200C822002024
:10AD50002E2E5C2E2E5C2E2E5C6D61696E2E630095
:10AD6000424C4520436F6E6E65637465640000005D
:10AD7000D03D0020424C4520446973636F6E6E6580
:10AD80006374656400000000504859207570646168
:10AD9000746520726571756573742E00501F020012
:10ADA00010B51A4C0188606810290ED011292BD1DA
:10ADB000401E606028D1FFF78BF8002824D021685E
:10ADC000002921D0BDE810400847D0B90021012258
:10ADD000084601F0CDF808B107280FD1072202215B
:10ADE000012001F0C5F808B1072807D1042202218B
:10ADF000002001F0BDF820B1072802D0216801B180
:10AE000088476068401C606010BD0000F823002087
:10AE10002DE9F04701883B4E40F2F3194FF6FF75DC
:10AE200010291BD011293ED0122954D0502946D1C7
:10AE3000C188F289841D914241D1618902293ED1A4
:10AE40008688304602F0EAF9050038D004F10C009B
:10AE500000F0BEFAA8B3294630464EE0C17B878891
:10AE6000044601292BD1A846284602F0D7F905004F
:10AE700017D02F8000202872234843464A46016895
:10AE8000C5F80A104068C5F80E0004F1100105F17C
:10AE90000A0002F093FA6872F08900280FD129465F
:10AEA0002AE0042013E0808802F0B8F9040006D0FC
:10AEB0006068FFF717FB08B106F006F92580BDE8CA
:10AEC000F087FFE76868FFF70DFB0028F7D0BDE8C3
:10AED000F04706F0F9B887880646384602F09EF932
:10AEE0000400ECD02B464A4606F1080104F10A00A2
:10AEF00002F064FA607221463846BDE8F04701F07E
:10AF00007DBC00009C460020002400202DE9F04775
:10AF100002888688DFF8FCA098B0102A0DD0112A8C
:10AF200048D00AF11003192A63D01A2A6ED1007A88
:10AF30000409042C45D3012244E0364C083CA068A7
:10AF4000C0430B9061680BA802F0A2FE0B990CA8FD
:10AF500001F0E2FB2C220CA96846FEF797FA0027C5
:10AF6000E8460FE008EB47005FF00005B0F80490FA
:10AF700004EB85004946001D02F05BFE6D1C1E2D92
:10AF8000F6D37F1C0098B842ECD8142E07D318B023
:10AF9000F021BDE8F04720A20420FEF73DB931467C
:10AFA000504602F05CFE18B03146201DBDE8F04767
:10AFB00002F055BE18B031465046BDE8F04702F0E9
:10AFC00038BE00223146184601F071FF032C01D330
:10AFD000012200E000220F4831460C3001F067FFEB
:10AFE000022C01D3012200E000220A483146083039
:10AFF00007E0017A002909D1407A3146C0F3C00246
:10B00000184618B0BDE8F04701F051BF18B0BDE8D0
:10B01000F0870000C04600202E2E5C2E2E5C2E2EC7
:10B020005C2E2E5C2E2E5C2E2E5C636F6D706F6E10
:10B03000656E74735C626C655C636F6D6D6F6E5C86
:10B04000626C655F636F6E6E5F73746174652E63AF
:10B0500000000000F0B585B016460F4604001D46FE
:10B0600014D004AA19466069FFF79CFA00280BD196
:10B07000A5F57F40FF380BD0049848B1007848B15F
:10B080003088F42808D9072005B0F0BD0E20FBE772
:10B090000520F9E70820F7E70020009001900290D2
:10B0A0000390A088ADF8000001208DF80200CDE9E2
:10B0B000026769462846AEDFE6E7000070B5334D0B
:10B0C00004008EB02DCD08AE86E82D005BD0E9B32C
:10B0D0000868A061214608A862DF002851D12078C5
:10B0E00001258DF83200ADF83050A21C0CA928467D
:10B0F000A8DF002845D120216846FEF7E0F90220AC
:10B10000ADF8000020788DF802008DF80C509DF805
:10B110000D00F426ADF8046040F00C008DF81150DD
:10B12000ADF806508DF80D008DF81250608804F1CE
:10B130000C02694601F0B4F8002822D120216846AB
:10B14000FEF7BDF90320ADF8000000E01BE0207819
:10B150008DF802008DF80C509DF80D008DF81150FF
:10B16000ADF8046040F010008DF81250ADF80650B4
:10B170008DF80D008DF813506088221D694601F08E
:10B180008FF80EB070BD0E20FBE70000102002000B
:10B1900030B587B00446002928D0002C26D00846B8
:10B1A0002188102924D0502928D057291ED105469E
:10B1B000A18840696A46FFF7F5F9002816D1009882
:10B1C0000078002812D0A86900280FD0182101A803
:10B1D000FEF775F901208DF804000295A088ADF8FE
:10B1E0000C0000980490A96901A8884707B030BDF9
:10B1F00007B02146BDE8304005F054B907B02146FC
:10B20000BDE8304005F084BAF8B50D4D0C46064651
:10B210000B48ADF80040EB8A6A4631463430FFF700
:10B2200019FF08280AD01328F2D0052806D00028D4
:10B2300004D004A240F2E561FDF7EEFFF8BD000086
:10B24000C82200202E2E5C2E2E5C2E2E5C6D616995
:10B250006E2E630070B5A52161F307021849184DE1
:10B26000A6B009882C3D090A61F30B2222F4704133
:10B27000952201F5804162F3174121F070440146A7
:10B28000687A902260F31B646E4601A80094FEF772
:10B29000FDF8C4F30744A01EC1B2701C00F0ECFF1F
:10B2A0008DF8940021466846FFF7AEFF687A401C8F
:10B2B000C0B26872102801D30020687226B070BD39
:10B2C000F422002070B590212948FEF7F8F82948AB
:10B2D00005F0C2FB284C08B3207BA26A284D111848
:10B2E00026484AF6FF73401BC008032505EB0045BE
:10B2F0009942284634D223A102F5143203F02AFEE3
:10B30000A06A90221A4900F5143002F01DFF98B18E
:10B310002846BDE870401FA103F018BE1449154827
:10B3200005F0FEFBC1B2124801F0CAFB1048FFF75E
:10B3300091FF206A401C19E090210D4801F0B2F8FD
:10B3400048B990210A4801F0BBFB0948FFF782FF8A
:10B35000206A401C2062217BA06A0844A06270BD64
:10B360000FA1226A03F0F6FD0020A074206270BDD8
:10B37000303D002074250020C8220020082C020047
:10B38000982B02007265616420616464723A3078BF
:10B390002578000072656164206572726F7200002A
:10B3A000717565756520616E6420666C61736820D7
:10B3B00061726520656D7074792C2073656E6420F0
:10B3C00066696E6973682C636E743A2564000000C8
:10B3D000007800F00100704708B504F0CFF920B103
:10B3E0000D4A40F2C511FDF717FF00200090694695
:10B3F000012003F0B3FF20B1074A40F2CB11FDF763
:10B400000BFF684604F03EF8002804D0024A40F2E0
:10B41000CF11FDF701FF08BDD0D801001CB50446CF
:10B4200004F032FE10B14FF0FF301CBD207DC0078C
:10B4300029D000208DF8000019208DF80400234643
:10B44000012201A97E2000F0EDFAA8B9616A01206D
:10B4500088472346012269466B2000F0B8F99DF821
:10B46000001041F020018DF8001028B92346012278
:10B4700069466B2000F0D6FA0028D6D12046BDE8F8
:10B480001C4000F05DB86FF004001CBDF8B5044628
:10B49000BBB1D869A8B11D7D6FF00400EE070FD0D5
:10B4A000C5F3810585B1012D10D0022D10D0032DDB
:10B4B00006D10820009313460A46214601F04CFCB1
:10B4C000F8BD4FF0FF30F8BD0120F3E70220F1E7AF
:10B4D0000620EFE72DE9FF414FF000041E0017465C
:10B4E0008846254601D0306A20BB4FF0FF3423E068
:10B4F0003346012241464F2000F094FA0446716A17
:10B500000A208847A4B93346012269464E2000F03C
:10B5100089FA0446716A0A2088474CB9781E854228
:10B5200006DA9DF8000008F10108401C8DF80000C3
:10B530006D1CEDB2BD42DBD304B02046BDE8F08106
:10B5400038B5044600200090607D234640008DF809
:10B55000000001224C200DF1010100F038F9050036
:10B560001FD19DF80100217D20F08000490840EAAC
:10B57000C1108DF80100217D20F00300C1F381018D
:10B58000084320F03C0040F00C008DF801002346F9
:10B59000022269464B2000F045FA0546616A0A20FE
:10B5A0008847284638BD2DE9FF414FF000050E467B
:10B5B00007461400ADF80450ADF808508DF80C5053
:10B5C0000DD0A06958B1016849B1C07950B1314678
:10B5D000384601F0FCFA04B02846BDE8F0814FF08F
:10B5E000FF35F8E71346324602A901A801F06EFDC7
:10B5F0000BE0214601A800F066FFA06903AA01A99B
:10B60000037A3846009406F02AF9BDF80400BDF824
:10B6100008108842EDD39DF80C003070A169BDF888
:10B6200004004881D7E72DE9FE434FF000070E469E
:10B63000804615003C46ADF804708DF808700BD0BC
:10B64000A869016841B1C17949B13146404601F06C
:10B6500022FB3846BDE8FE834FF0FF37F9E78189CA
:10B66000ADF80410017A20290ED060290FD0A0294E
:10B670000DD0E02910D08188ADF804108088A1B2E7
:10B6800081421AD9044618E03178CC00F6E73178C7
:10B69000C1EBC1014C00F1E7317801EB81018C0075
:10B6A000ECE7294601A800F00EFFA86902AA01A94B
:10B6B000037A4046009506F082F9BDF80400A1B275
:10B6C0008842EED39DF808003070A969BDF80400E7
:10B6D000C881BEE72DE9FF414FF000050E46074641
:10B6E0001400ADF80450ADF808508DF80C500CD093
:10B6F000A069016849B1C07950B13146384601F0BE
:10B7000075FB04B02846BDE8F0814FF0FF35F8E73F
:10B710001346324602A901A801F002FD0BE02146C2
:10B7200001A800F0D0FEA06903AA01A9037A384657
:10B73000009406F0C6F9BDF80400BDF80810884270
:10B74000EDD39DF80C003070A169BDF8040088812C
:10B75000D7E738B504004FF0000025D0A1690A688A
:10B7600012B34881A169234602228881A169C88158
:10B77000A1690861A16908752220694600F027F8CF
:10B780009DF80110002801F007018DF80110BDF8A7
:10B7900000100BD1A2699088884200D99180A269DB
:10B7A0009379022B03D008E04FF0FF3038BD1931F8
:10B7B000814202D8908819309080A06923468288FF
:10B7C000016801B02420BDE83040AFF3008030B400
:10B7D00033B1DC6924B13AB19D78012D07D008E07E
:10B7E0004FF0FF3030BC70476FF00B00FAE740F0CD
:10B7F00080005D7813460A4601462846A44630BCC0
:10B80000604738B50446032504F03EFC00281FD1EC
:10B81000A178012907D12346012269467F20FFF73D
:10B82000D6FF002814D10021217005E02346012213
:10B8300019460020FFF7CBFF6D1EEDB202D3217831
:10B84000D829F3D110B92078D82802D06FF002009F
:10B8500038BDFF20E070204600F096F938BD38B5BD
:10B8600005460C46084604F00FFC10B14FF0FF35BA
:10B870002FE0207DC0072AD02346012229464D20F3
:10B8800000F0D0F80546616A0A2088470DBB2346C0
:10B89000012269464420FFF79AFF05000DD1207D63
:10B8A000234600098DF8000001226946442000F07B
:10B8B000B9F80546616A0A20884755B9207D20F00D
:10B8C000020020752046FFF73BFE054601E06FF0C1
:10B8D0000405284638BDF8B50F464FF000011400A6
:10B8E0008DF800104FF0470600F0FE052ED01346ED
:10B8F000012269463046FFF76AFF002825D135B19D
:10B900009DF80000012F24D0A8438DF800002346A5
:10B9100001226946304600F085F8002815D12346FB
:10B92000012269463046FFF752FF00280DD19DF8ED
:10B930000010A36901F01002DA71A36901F0E002BE
:10B9400001F002011A72A2699171F8BD4FF0FF3047
:10B95000F8BD2843D9E738B5B0218DF800107E2412
:10B9600030B1034601226946204600F05BF838BD3D
:10B970004FF0FF3038BDF8B5040015D0606A98B1BB
:10B9800000208DF8000020796FF00305A0F1100170
:10B99000022928D8217A88421AD02146684605F023
:10B9A0002BF8060003D011E04FF0FF30F8BD23461E
:10B9B0000122211D7E2000F035F80646207A10284D
:10B9C00002D1616A05208847217921723000EDD1CA
:10B9D000207B0026142808D0152806D0172804D06C
:10B9E0002E463046F8BD2846F8BD217C8842F8D066
:10B9F0002346012204F10C017E2000F013F80646D4
:10BA0000207C142802D0172803D008E05120616A56
:10BA100004E0207B152802D1616A0A208847207B38
:10BA20002074DEE72DE9F0474FF000051C0090463A
:10BA3000064689462F460BD0D4F820C0BCF1000F33
:10BA400006D0B8F1000F06D0A078012806D007E094
:10BA50004FF0FF3528E06FF00B0525E006F07F067C
:10BA6000207A112802D0207C152818D10A46607847
:10BA700043463146E0470546616A0120884710E0A9
:10BA8000256A09EB0702607801233146A847761C36
:10BA90000546616AF6B2012088477F1CFFB2474520
:10BAA000EED30DB16FF001052846BDE8F08738B53B
:10BAB00004005DD0606A00285AD0002521466846FF
:10BAC000009500F0B5FC002851D1234601226946BB
:10BAD0004020FFF7A7FF002849D161796172E17921
:10BAE000E1722346012241200DF10101FFF79AFF87
:10BAF00000283CD1A179A17221466846009500F04A
:10BB0000F3FC002833D12346012269464220FFF787
:10BB100089FF00282BD1617B6174E17BE1742346AE
:10BB2000012243200DF10101FFF77CFF00281ED107
:10BB3000A17B2046A174FFF71EFF002817D12346E2
:10BB40008DF80050012269460220FFF740FE9DF863
:10BB50000010C1F343018DF8001001290BD0022918
:10BB60000CD003290DD0072901D16FF0080038BD92
:10BB70004FF0FF3038BD6FF0050038BD6FF00600A4
:10BB800038BD6FF0070038BD38B504004FF0B6007F
:10BB90008DF800000DD0606A58B123460122694635
:10BBA0007E20FFF73FFF0546616A012088471DB1EF
:10BBB0001FE04FF0FF351CE0A078012807D1234695
:10BBC000012269467F20FFF702FE050011D1022005
:10BBD000E07108216171102222710322A271E073C9
:10BBE0006173142020730020A0736068A060E06877
:10BBF0002061284638BD2DE9F04104460F4608462D
:10BC000004F036FA5FEA00082CD15CB32078C00853
:10BC1000207094F9011040EA4110A178CE08A67076
:10BC200094F9031046EA411621794D08257194F9DB
:10BC3000051045EAC115A1798908A171E27941EAA7
:10BC400082143A46214600F0B5FCB88630463A46A2
:10BC5000214600F0EDFCF88628463A46214600F0E1
:10BC600023FD38874046BDE8F081000030B41C4613
:10BC7000154608462246294630BC014BFFF706BC54
:10BC8000D440002030B41C461546084622462946BA
:10BC900030BC014BFFF71EBCD44000202DE9F04121
:10BCA000054617460E461C46184604F0E1F970B9E1
:10BCB0006EB1A078012801D045F0800560786468F5
:10BCC0003B4632462946A446BDE8F04160474FF066
:10BCD000FF30BDE8F08138B5054600208DF8000042
:10BCE000284604F0C5F9040015D12946012005F0C5
:10BCF0008DFA0446E9680320884764B92B4601227F
:10BD000069464020FFF7CAFF040004D19DF80000F7
:10BD1000322802D0A41E204638BD2870284604F0E0
:10BD20009AFF0446F7E770B5054690F8224004F004
:10BD30009FF9002807D13CB1012C05D0032C03D07A
:10BD4000042C0CD0C01E70BD284605F063FC0028F2
:10BD5000F9D129462046BDE8704006F0D9B82946F9
:10BD6000BDE87040002005F051BA10B5044604F05B
:10BD70007FF900280AD194F82610012907D002295A
:10BD80000CD0032911D0042917D0C01E10BD84F88F
:10BD90002300012084F82400022014E084F823000A
:10BDA000042084F824000E200DE0052084F82300F0
:10BDB000172084F82400522005E084F8230007208F
:10BDC00084F824001A2084F825002046BDE810409D
:10BDD00005F00BBA2DE9F041074615460E461C4604
:10BDE000184604F045F950B94EB145B16078A468E1
:10BDF0002B4632463946A446BDE8F04160474FF035
:10BE0000FF30BDE8F08100000149085C7047000088
:10BE1000D01F020007490B5C4FF0A041D1F8042568
:10BE20000120984020EA0203C1F808351040C1F80B
:10BE30000C057047CC1F02000249085C012102F08A
:10BE400087BE0000CC1F02000249085C002102F0FE
:10BE50007FBE0000CC1F02000649095C4FF0A040E5
:10BE6000D0F80405C84010F0010000D0012080F097
:10BE700001007047CC1F020010B500242046FFF7D8
:10BE8000DBFF641C042CF9D310BD10B50024204640
:10BE9000FFF7DAFF641C042CF9D310BD10B502467D
:10BEA000064B4FF0FF3000215C5C944201D1084604
:10BEB00010BD491C0429F7D310BD0000D01F02009B
:10BEC00010B5002000F066F908B1062806D101205F
:10BED00000F060F908B1062800D1002010BD000074
:10BEE0002DE9F0470D468146FFF7D8FF04460428A8
:10BEF00036D2DFF874801B481C4EA8F10C0725B31E
:10BF0000012D0ED0022D2BD104EB44003044457896
:10BF1000002D25D0B968002922D02846BDE8F04779
:10BF2000084704EB4401755C0E44717849B10E4A30
:10BF30004FF48041093A8068FEF7AAFA08B987F8F9
:10BF40000390B17808F80410E2E78068FEF7CAFAB7
:10BF500004EB4401314418F804008D78A842D7D08E
:10BF6000BDE8F087D41F020090230020584600202F
:10BF700070B50023042810D20D4D00EB4004012AB7
:10BF800002D101290CD00022094E00EB40003044C0
:10BF900061B1012906D0022906D00723184670BDD9
:10BFA0000E30C2B22A55F9E74270F7E78270F5E722
:10BFB00058460020044A014600201279D20702D0D8
:10BFC000084600F003B87047842300202DE9F05F95
:10BFD0006E4C054600266078B34618B184F801B06F
:10BFE00001F00EFA6A4F4FF47A694FF4C87A4FF0B5
:10BFF0000108182D69D2DFE805F00C1313384754F7
:10C00000696E727B727BC58484848484B3B6B9BC48
:10C01000C5C501F0F5F93868FEF764FA06465CE03C
:10C020000020FFF719FF00284FF0000008D0FFF7AD
:10C0300003FF022D02D14FF4E16008E0484606E01C
:10C04000FFF702FF022D01D1C82000E05046410C4D
:10C05000C0034FF47A72801841F10001257052003C
:10C060000023FDF7CFF901462AE00020FFF7F4FE98
:10C0700000284FF0000004D0FFF7DEFE4FF44870B8
:10C08000E5E7FFF7E1FEDFE70020FFF7E5FE002828
:10C090004FF0000002D0FFF7CFFECFE7FFF7D4FE4E
:10C0A000D4E70020FFF7D8FE00284FF0000002D0B0
:10C0B000FFF7C2FE01E0FFF7C7FE257040F6CD4155
:10C0C00000223868FEF7E4F9064646E00020FFF754
:10C0D000A1FE257008E0002051E025703DE084F8C5
:10C0E00001800120FFF796FE002240F26661E8E73A
:10C0F00084F801800120FFF78DFE00224FF40051EB
:10C10000DFE77868FEF7EEF90646D5F1110000D0BA
:10C110002EB10220FFF790FE84F802B01DE0012846
:10C1200016D980B2C8214843C117C90341EA50411A
:10C13000C0034FF47A72801841F1000152000023CD
:10C14000FDF760F9014600227868FEF7A1F906467E
:10C150000220FFF779FE84F802803046BDE8F09FA8
:10C1600001F04EF9B9E701F04BF9B4E701F048F9F5
:10C1700004E001F045F90020FFF766FE0120FFF71B
:10C1800063FEAAE7FFF781FEA7E7000084230020F3
:10C19000D41F0200012105F072BE00002DE9F84F06
:10C1A0000546861C00208DF8000091460F464FF092
:10C1B000010A6846FEF7B8F91B4C04F21C48606897
:10C1C0003860D4E90101194F401A3968081A0EE0A5
:10C1D0000121404601F056FD01F034F90146404688
:10C1E00001F050FDD4E90101401A3968081A401CD9
:10C1F0008642EDD8B9F1000F03D0052065F3891010
:10C2000002E0062065F39F5061683A68114004EB34
:10C210008101C8606068304460609DF80000FEF7EE
:10C22000A7F95046BDE8F88FE84A002074240020A2
:10C2300070B50D4604460A2902D10D21FFF7F8FF1B
:10C24000A0682268411CA1601554D4E90101814213
:10C2500004D32046BDE8704001F0F1BF70BD00007E
:10C26000044881684068814201D101207047002064
:10C2700070470000E84A002010B50346007801220C
:10C2800003E09C5C6040521CD2B28A42F9D310BDDC
:10C290000249084490F930007047000048470020E8
:10C2A0002DE9F0438146887891B090460C4600B95C
:10C2B00001208DF83E002088ADF83C000025009557
:10C2C000607C694604F0C6FF6E46A07C711C04F0D9
:10C2D000C1FFE07B00289DF8020002D040F008007A
:10C2E00001E020F008008DF80200217C11B140F03F
:10C2F000100001E020F010008DF80200217B11B148
:10C3000040F0010001E020F001008DF80200217DE5
:10C3100009B1022100E0012161F342008DF8020021
:10C320001C2102A8FDF7CBF8607BC10601D4800672
:10C3300017D50E950EAFE07C791C04F08BFF9DF8AD
:10C340003800079720F00F00401C20F0F00010305C
:10C350008DF838009DF83A0020F00600801C8DF81A
:10C360003A00607B8DF80800A07B8DF8090014214D
:10C3700009A8FDF7A4F80FA8CDE90906A088ADF833
:10C380003000A06820B1E088ADF82C00A0680D90C6
:10C39000A06998B301950088ADF81000A06901ADBF
:10C3A00001A94088ADF81200A06940680695039085
:10C3B000A069007B04F04EFFA069691C407B04F07B
:10C3C00049FFA069807A00289DF8060002D040F05D
:10C3D000080001E020F008008DF80600A169C97A84
:10C3E00011B140F0100001E020F010008DF80600BF
:10C3F000A169097A19B140F0010002E00DE020F0D6
:10C4000001008DF80600A169897B09B1022100E0D5
:10C41000012161F342008DF80600E06900B105904A
:10C42000434609AA02A94846AADF11B0BDE8F08335
:10C4300070B50D460B460446014602224020FFF728
:10C44000C6F900282DD16979001F0C2929D86A7AEC
:10C45000914206D0227801F00F0122F00F02114321
:10C460002170E97907291CD8EA7A914207D022780D
:10C47000702322F0700203EA011111432170A9799F
:10C480000022641C0C290AD8A87A814208D020789E
:10C4900001F00F0120F00F000143217000E002467F
:10C4A000104670BD10B500231A4604E0845CFF2CD2
:10C4B00000D00123521C8A42F8DB012B01D001205D
:10C4C00010BD002010BD10B58B6902889988941C9E
:10C4D0008C4208D21B689C5C802C04D11A44527890
:10C4E000002A00D1018010BD70B50D460B460446F0
:10C4F000014602224220FFF76AF900282AD1697B0F
:10C50000001F0D2926D86A7C914206D0227801F0BE
:10C510000F0122F00F0211432170E97B022919D883
:10C520002278302322F0300203EA0111114304F88B
:10C53000011BA97B002204290AD8A87C814208D0CB
:10C54000207801F0070120F007000143217000E08E
:10C550000246104670BD000070B5084C050009D0B9
:10C5600010342168002907D00868206049682846EF
:10C570008847F6E70834F4E770BD00003447002030
:10C58000054A012120B1012805D19170FFF7E4BFD0
:10C5900051700020FAE770473447002010B5D0E909
:10C5A0000234D1E90220D11AA04101D3012010BDEB
:10C5B000002010BD30B51D4B10F5805F34D011B98F
:10C5C000D18B89B381B3D38B9B0393FBF1F1A1F59D
:10C5D000804111FB01F3DD1792F91D4003EB556318
:10C5E000DB115C43137FDB0111FB03F12144CB170B
:10C5F00001EBD3514FF4801303EB612192F9123018
:10C60000A0335943CB1701EB135109134843C1170A
:10C6100000EBD14092F9101040F34F3000EBC10015
:10C62000C11700EB11700311184630BD0080FFFFE9
:10C6300030B51C4B10F5805F32D011B9D18B79B376
:10C6400071B3D38B9B03B3FBF1F1A1F5804111FBD7
:10C6500001F3DD1792F91D4003EB5563DB115C43D9
:10C66000137FDB0111FB0341CB1701EBD35192F98F
:10C670001330491201F58011A0335943CB1701EB58
:10C68000135109134843C11700EBD14092F911101F
:10C6900040F34F3000EBC100C11700EB11700311E4
:10C6A000184630BD0080FFFFF0B51A4B10F5804FE3
:10C6B0002ED0B2F916505DB3948A4CB341B3D68BE9
:10C6C00036B3B7B20EB2F11B178B17FB01F1B2F9FB
:10C6D0001A207443801AC203600000F50040CF178F
:10C6E000C41701EB977100EB1440A2EBA10105EB1D
:10C6F000204091FBF0F0B0F5004F01DB580C03E057
:10C70000984201DC0348401CC11700EB1170031173
:10C7100018B2F0BD0080FFFF73B58CB00646002054
:10C7200000900D9880B100246D4621460DA801F0BF
:10C730008BFA30B1009805EB400084800098401CD3
:10C740000090641C142CF0D32C2269463046FCF770
:10C750009DFE0EB070BD2DE9F04117880646B81D4C
:10C7600014460D46984202D90C20BDE8F08131886C
:10C77000072206290AD34FF4486C4FF6FF73614530
:10C7800001D9994202D17088062801D21046ECE7FF
:10C79000604501D99842F9D1994203D0984201D01D
:10C7A0008142F3D80520E85520881221401C80B230
:10C7B000208029542088401C80B220804119308874
:10C7C00005F016F82188084480B22080411970884D
:10C7D00005F00EF82188084420800020C5E70000FD
:10C7E00002A24FF49571FCF717BD00002E2E5C2EAF
:10C7F0002E5C2E2E5C6D61696E2E630038B54A7A10
:10C800000F4B62B100220A725969002906D0012239
:10C810008DF80020ADF802006846884738BD0A7AD6
:10C8200062B19B684C68024619462046FDF730FE0F
:10C830000028F3D0BDE8384004F046BC5B68F1E75F
:10C840009C46002010B50021024801F031FA80F327
:10C85000100010BD044F00204FF480328A40016860
:10C86000C1F848230068C0F8082370474FF4A0724D
:10C8700002EB810189B200F0A0B92DE9F041054633
:10C880000E464FF4A07000EB860081B228684FF48A
:10C890008034B440984622F07F47C0F808432868A7
:10C8A000C0F84843286802F01DFD286800EB8600A8
:10C8B000C0F840752868C0F84443B8F1000F02D0B2
:10C8C0002868C0F80443BDE8F0810068D0F804058A
:10C8D0007047000070B54379224C44F82320427918
:10C8E000241D04EBC202204B1579204A9A1AD30862
:10C8F0002DB10824022000EB03401DA12EE00268A8
:10C900000D88C2F8085590F904208978002A4FEA6A
:10C91000411106DA02F00F0202F1E02282F8141D42
:10C9200003E002F1E02282F8001490F904100122E1
:10C9300001F01F0502FA05F54909890001F1E0211E
:10C94000C1F80051417904EBC1010A71417944F801
:10C9500031000320002400EB03400EA102F0F6FAA0
:10C96000204670BD4C240020E82B0200982B0200CA
:10C9700052544320696E7374616E636520616C72FA
:10C980006561647920696E697469616C697A65644E
:10C990002E0000005254433A20696E697469616C3C
:10C9A000697A65642E00000090F90400012100F00E
:10C9B0001F0291404009800000F1E020C0F8001201
:10C9C00070470A46022100F0EFB84FF4827100F080
:10C9D000F4B80068012101607047006801214160DE
:10C9E00070472DE9F05F07460C464FF4A07000EB4E
:10C9F00084001FFA80FA38684FF48036A6409B46C0
:10CA000022F07F45C0F848633868C0F8086338688A
:10CA1000D0F8048500EB8402D2F84095C2F8408536
:10CA20005146386802F05EFCA9EB080020F07F4018
:10CA3000012806D1102003F005F85146386802F0AD
:10CA400051FC3868D0F80485C0F84463A5EB0801B0
:10CA500021F07F413868012900EB840010D0C0F834
:10CA600040553868D0F804156FF07F4C6A1A521E92
:10CA700022F07F42ACEB0B03934217D362B118E074
:10CA80006D1CC0F84055102002F0DCFF3868D0F86B
:10CA9000040540450AD10CE000EB84006D1CC0F891
:10CAA00040553868D0F80405884202D00D20BDE812
:10CAB000F09F01223146384600F076F80020F6E774
:10CAC00030B5CA0709D030BD00EB420310F8124060
:10CAD0005D7800F812505C70521CB2EB610FF3DB12
:10CAE00030BD00002DE9F843104D0F4680461E462C
:10CAF00091466946286801F070F8040014D01C21A2
:10CB0000FCF7DDFC01202071C4F81490380BC4F848
:10CB10000080C4E902606946286801F07FF804F0EB
:10CB200079F80020BDE8F8830420FBE72822020002
:10CB300070B500252C464FF4143600BF06EB0430C8
:10CB400001F09CFA08B1012070BD641C0B2CF5DBD0
:10CB5000284670BD30B50446006887B00D46806831
:10CB600000281FD018216846FCF7A9FC0195A06891
:10CB70000590207910B1012810D107E001208DF82F
:10CB8000000020690290E068039005E002208DF823
:10CB90000000E068000302906069049020688168EA
:10CBA0006846884707B030BD0368C3F84413002ABD
:10CBB00002D00068C0F80413704710B500684258EE
:10CBC0001AB102F08FFB012010BD002010BDFEB590
:10CBD000064600208DF80800906914460D464089ED
:10CBE000ADF8040049E01268525C491C02F0FC03F5
:10CBF000ADF80410882B23D00CDC482B30D004DC9B
:10CC0000402B28D0442B33D120E0802B2ED0842BF6
:10CC10002ED10BE0942B09D004DC8C2B06D0902B6A
:10CC200026D10AE0982B0ED09C2B21D102AA01A973
:10CC30003046009404F013FE1AE02246082111E069
:10CC4000224606210EE022460E210BE0214601A8D5
:10CC500004F0B4FF0CE0214601A804F0C4FF07E093
:10CC60002246012101A800F0F9FE01E0ADF8040020
:10CC700028789DF80810884205D0A269BDF80410F4
:10CC800090888842AFD89DF808002870A169BDF847
:10CC900004004881FEBDFEB5064600208DF8080060
:10CCA000906914460D46C089ADF8040029E0126869
:10CCB000525C491C02F0FC03ADF80410882B3BD0F9
:10CCC0000CDC482B45D004DC402B3DD0442B11D14B
:10CCD00035E0802B0ED0842B0CD12DE0942B1ED070
:10CCE00004DC8C2B22D0902B04D118E0982B16D08A
:10CCF0009C2B14D0ADF8040028789DF808108842C9
:10CD000005D0A269BDF8041090888842CFD89DF85C
:10CD100008002870A169BDF80400C881FEBD02AA00
:10CD200001A93046009404F04AFEE5E722460C21B2
:10CD300001A800F093FEDFE722460621F8E721462E
:10CD400001A804F03BFFD7E7214601A804F04BFF00
:10CD5000D2E722460121EBE72DE9FF4F83B0002403
:10CD6000DDF840B01E469146804600944FF0040A1C
:10CD70002546C7B2019433E05B46012204A94D2049
:10CD8000FEF750FE0446DBF824100A2088473CBB1F
:10CD90005B46424669465046FEF719FD040002D044
:10CDA0006FF001041EE00020464501D2F7B203E017
:10CDB000711B414500DACFB26946B84207D20B5C1D
:10CDC00005EB000C401C09F80C30C0B2F5E79DF8EB
:10CDD000101001EB08008DF8100005EB0800C5B23B
:10CDE000B542C9D307B02046BDE8F08FFEB5064670
:10CDF00000208DF80800906914460D468089ADF832
:10CE0000040046E01268525C491C02F0FC03ADF8D5
:10CE10000410882B19D00CDC482B2DD004DC402BBF
:10CE200025D0442B30D11DE0802B2BD0842B2BD14F
:10CE300012E0942B13D004DC8C2B06D0902B23D142
:10CE40000DE0982B01D09C2B1ED102AA01A93046DF
:10CE5000009404F036FE17E0224606210EE022463A
:10CE600008210BE0214601A804F0A8FE0CE02146B1
:10CE700001A804F0B8FE07E02246012101A800F055
:10CE8000EDFD01E0ADF8040028789DF80810884217
:10CE900005D0A269BDF8041090888842B2D89DF8E8
:10CEA00008002870A169BDF804008881FEBD0AB1A0
:10CEB00000F0D5BE00F0BDBE70B50D460446B0F81A
:10CEC000D810D0F8D4000122FDF751FC00B1057054
:10CED00004F13C0204F1D40104F1540072DF70BD8E
:10CEE000014643680D480E4A801AC008032202EB2F
:10CEF000004013B10B4902F029B80A78012A07D083
:10CF0000022A09D18B680A6907A100BF02F029B87B
:10CF10008B680A6912A1F9E770470000082C02002B
:10CF2000982B0200B02302002D2D3E204576656E21
:10CF3000742072656365697665643A206572617311
:10CF4000656420256420706167652066726F6D20BE
:10CF50006164647265737320307825782E00000058
:10CF60002D2D3E204576656E742072656365697669
:10CF700065643A2077726F74652025642062797445
:10CF80006573206174206164647265737320307806
:10CF900025782E000EB517A19DF8080020F00F008F
:10CFA000401C20F0F00010308DF80800062202A886
:10CFB0007CDF20B1114A40F20711FCF72DF9002067
:10CFC000009001902020ADF800002420ADF8020070
:10CFD0000220ADF804004FF4C870ADF806006846B2
:10CFE0007ADF002804D0054A40F21111FCF714F949
:10CFF0000EBD0000456172506F740000D0D8010072
:10D0000030B40D4A4B88D48AA34207D10B88A3F5CC
:10D010002064773C02D18988C91E11830388428825
:10D020000648074930BC401AC008042101EB004003
:10D0300004A101F096BF0000C8220020082C0200C5
:10D04000982B0200415454204D5455206578636854
:10D05000616E676520636F6D706C657465642E200A
:10D0600063656E7472616C2030782578207065720B
:10D070006970686572616C20307825780000000066
:10D0800010B50C490C4800F08AFE20B10BA24FF4F9
:10D09000F471FCF7C1F8F721074800F074FE00288E
:10D0A00006D0BDE8104005A240F2EB11FCF7B4B881
:10D0B00010BD000001D00100C03D00202E2E5C2ECE
:10D0C0002E5C2E2E5C6D61696E2E630030B59C69FE
:10D0D000648904809D692C7A402C0ED0C02C10D01D
:10D0E000602C12D0E02C15D0AA88028098690A889A
:10D0F0008088824200D9088030BD107800EB400063
:10D1000006E0107800EB400007E01078C0EBC000AC
:10D11000400003E0107800EB800080000880E5E725
:10D1200030B59C69A48904809D692C7A802C0ED02E
:10D13000C02C10D0A02C12D0E02C15D0AA880280D0
:10D1400098690A888088824200D9088030BD1078AA
:10D1500000EB400006E0107800EB400007E010789C
:10D16000C0EBC000400003E0107800EB80008000BE
:10D170000880E5E710B50B48FFF7A7FB094A083A16
:10D18000D2E90434C018D2E9063244F10001C31ACE
:10D1900071EB020204D24FF08072801841F100015D
:10D1A00010BD00003024002070B50E4C0025204634
:10D1B000E1790126007A012902D0217900290FD1D5
:10D1C00048B1A07A012802D104F03EF9A572BDE869
:10D1D000704002F05BB8102001F0ACFC2672F0E762
:10D1E00070BD0000C822002010B50A4941600A48FD
:10D1F00000F045FD58B902F00DFB07491C238C22B5
:10D20000087404488C39001F006800F0D3FC00202B
:10D2100010BD00002C2202003C49002001460348BA
:10D2200002888A4200D00020704700008846002013
:10D230002DE9FC5F0E008346DDE90C47C6F10000D6
:10D2400098469246814600D40846012503E000BF77
:10D2500090FBFAF06D1C5045FADAA84500D9454616
:10D2600024B1002E01DB780700D5641EB80702D573
:10D27000B8F1000F0AD0F80708D13CB1A54205D299
:10D2800020215846641EFEF7D3FFF6E7002E02DA8F
:10D290004E462D2102E0780703D52B215846FEF794
:10D2A000C7FF07F0030002280BD1B8F1000F08D127
:10D2B0003CB1A54205D230215846641EFEF7B8FFA6
:10D2C000F6E7CDE90047434652463146584604F05A
:10D2D00099FCBDE8FC9F024600201268530713D555
:10D2E00002F00300012802D002280CD105E0C2F3AD
:10D2F00083100B68801C184404E00223086803EBC9
:10D300009252104408600120704700002DE9F04758
:10D310009146884604464FF480354FF4A0760027A6
:10D32000DFF884A016E000BFD4F8040328420DD033
:10D33000A05958B1C4F84853C4F8085331462046A0
:10D3400001F0CAFF5AF82810F8B28847361D6D0060
:10D35000B6B27F1C4F45E7D3D4F804034FF4807175
:10D3600010F0010F09D0D4F8000130B1204601F0CF
:10D37000B3FF5AF8281004208847D4F804034FF468
:10D38000827110F0020F0CD0D4F80401002808D0EC
:10D39000204601F0A1FF5AF82810BDE8F04705200B
:10D3A0000847BDE8F0870000242400200248007AE6
:10D3B000002800D0012070473C490020F0B5848847
:10D3C000A518944200D82246A41AC288D6189A42B8
:10D3D00000D81346D21A4B880788BB420CD340882A
:10D3E000834209D88888A04206D3A84204D8C888B6
:10D3F000904201D3B04201D90020F0BD0120F0BD20
:10D400000A4810B5807860B1002401E0022C06D0F3
:10D410002046FEF711FD641C042CF7D310BD032435
:10D42000F6E7BDE81040FEF727BD0000842300208A
:10D43000F72101801721418000210171417170475E
:10D44000704700002DE9FF410026244800F014FC3D
:10D450002248001F074600F00FFC214C2149A0681C
:10D4600000900D6800E000986946284004EB8000B9
:10D470000C30FFF730FF0028F5D101AA009901EA2E
:10D48000050304EB8303491CDB6842F82030401C91
:10D4900000910228F2D3019800F0030001280BD07C
:10D4A000022810D10198032101EB90500099BDF89A
:10D4B0000A6001EB900005E00198BDF80A60C0F336
:10D4C000831008440090384600F0D3FB08B1009860
:10D4D000A06004B03046BDE8F0810000004F00209D
:10D4E000E84A0020742400208CB04FF480410020D2
:10D4F00001F0AEFD20B1F6A24FF44271FBF78CFEB5
:10D5000001F0FCFBFCF796FF20B1F1A240F66401AC
:10D51000FBF782FE002415200323009422462146B7
:10D52000019401F09FFA122001F0C9FA122001F0D3
:10D5300001FB102001F0C3FA102001F0FBFA01F00A
:10D5400091FE20B1E2A240F21531FBF765FEFDF736
:10D5500043FFFFF71FFDFFF793FDE148019001A98D
:10D56000E04800F0A4FC20B1D9A240F60C01FBF782
:10D5700053FEDD4800906946DC48FDF79FFD20B171
:10D58000D3A240F61401FBF747FEFCF7BDFC1C21BB
:10D5900005A8FBF794FF4FF4A031CDE90541D4482D
:10D5A0000A900326D3484FF4F0218DF820600B90A9
:10D5B000A0460791ADF822408DF8244005A8FDF75C
:10D5C000BFFA20B1C2A24FF4A071FBF725FEC548F7
:10D5D00003210C30FDF7B2F9C748C849C34D401AC2
:10D5E000343D0124C008AC7106EB004040F6161330
:10D5F000C34AC4A101F0B5FC00F070FDC94803F0B6
:10D6000086FABF48C84A01210838FCF703FFBC4E20
:10D6100000220C3E4FF470217068FCF739FF703621
:10D6200002AB96E8070083E8070002A8BF4902F0B2
:10D63000F3FC10F0FF0004D0A5A240F63211FBF776
:10D64000EBFDAA48243802F0ABFC10F0FF0004D038
:10D650009FA240F63411FBF7DFFD02F0CFFC03F090
:10D6600001FC04F07BFBA88202F046FB4FF0A046D1
:10D670004FF4802924E000BF01F04EFB0028FBD1CD
:10D68000FFF792FD287901281DD00028F4D102F07F
:10D6900033FB03F0D9FE152001F008FA052001F054
:10D6A00005FA042001F002FA142001F0FFF912201B
:10D6B00001F005FA102001F002FA102001F03AFA08
:10D6C000C6F80C95D8E7A87C012801D1FDF7FAFD32
:10D6D000687800287DD0E87A012803D185F80B808E
:10D6E000FFF726FAA87A68B903F0B4FE914890498A
:10D6F00001629149C1619149416280F80180012133
:10D700008170A972287A012823D1D6F80405000C6B
:10D7100010F0010F1DD04FF48030C6F80C056420C6
:10D7200000F042FC8348FEF72FFAC82000F03CFCD2
:10D730008048FEF766F87F48FCF712FD7D48FCF74D
:10D740003BFE7C48FCF718FD7A48FCF7B3FD85F8F2
:10D7500008804E2000F028FC764CC82004F22C41B2
:10D76000888008206873A873E8732046FDF7F1FFEE
:10D7700010F0FF0F80D15D492246253904F2345064
:10D78000FDF751FF59492246263904F2BC40FDF706
:10D79000A1FF56492246273904F24440FDF703FF12
:10D7A000A878E8B3DFF844B1002704F2BC4A0BF1D3
:10D7B0001C0B00BF624807EB47015A4C30F8212090
:10D7C00007EBC703903C00EB810024F8132042884C
:10D7D00000E06EE004EB430462808088A0803AF8A9
:10D7E00021200AEB8100E2804188218180886081CC
:10D7F00053483E49F03000EBC7001C31FEF7FBF9FF
:10D80000BBF83410A181BBF83610E1817F1CBBF856
:10D810003800FFB22082082FCCD34248903800E075
:10D8200001E0FDF717FD687C0128A3D19021454850
:10D83000FBF745FEDFF808B1DFF8B0A000270BF1D9
:10D84000780B0AF11C0A00BF3D4A07EB47003D4B2D
:10D8500007EBC70432F8201023F8141002EB800104
:10D8600003EB44044A8862808988A1803BF8202029
:10D870000BEB8000E28041882181808860811B4918
:10D8800003F6681000EBC7001C31FEF7B4F9BAF8D4
:10D890003410A181BAF83610E1817F1CBAF8380043
:10D8A000FFB22082082FCFD39021264803F002FB3D
:10D8B000E2E6287A20B9102001F03CF90120287214
:10D8C000A87A0128F4D103F0BFFD85F80A80D3E6D9
:10D8D0002E2E5C2E2E5C2E2E5C6D61696E2E6300EA
:10D8E000A1F20100D03D0020A1000200FC22002096
:10D8F00071040200E1C70100082C0200982B02000D
:10D900005C1F020025732C25642C626C6520696EF7
:10D9100069742066696E6973682C7665723A30782E
:10D920003033000074250020CDA30100B91E020091
:10D9300061DB0100D440002019DB0100A9DF0100F8
:10D9400018450020A03C002070B5144682880E4681
:10D9500005462088111D0144921C994201D8FE2AD7
:10D9600001D90C2070BD521C32542088FF21401C6C
:10D9700080B2208031542088401C80B220808119E0
:10D98000288803F035FF2188084480B22080AA88C7
:10D9900042B1A96841B13044FBF778FD2088A988DD
:10D9A00008442080002070BD072070BD2DE9F0479D
:10D9B000C5881E1DB6FBF5F78946B6FBF5F1044692
:10D9C00005FB176C407916686843DDF820A0F7184E
:10D9D000001F874200D9C61A166001E02468491E5C
:10D9E0000029FBD1A5EB0C078846B74216D818E0F2
:10D9F00004EB0C00001D09EB0803BAF1000F3A46D6
:10DA000002D00146184600E01946FBF73FFD2468A6
:10DA1000F61B4FF0000CB844B54201D9374600E080
:10DA20002F46002EE4D1BDE8F087000030B5024655
:10DA300051B101F021FB0021074C08E034F82130FE
:10DA40001568AB4202D11160002030BD491C8142F3
:10DA5000F4D3052030BD0000000000009269038867
:10DA600092881944914201D9028070470180704721
:10DA7000F8B50F46017814460546012901D16878AA
:10DA800030B12088821C9A4232D8012902D006E0A7
:10DA90000720F8BD69780144891C994228D8181AD2
:10DAA000801E86B2ADF800602188B81C0844694623
:10DAB0007DDF0028EDD12978022904D06878BDF8EF
:10DAC0000020904205D3BDF80000B04201D80920E3
:10DAD0000AE00820012905D16978B14202D8ADF8E1
:10DAE000001001E0ADF80060BDF80010FE2901D97A
:10DAF0000C20F8BD2288491CB9542188491C89B2E0
:10DB0000218078542088401C2080BDF800100844F3
:10DB100020800020F8BD0000F8B50D4E00201C4606
:10DB20001746F0740B480170581CC2B20A4B0949E1
:10DB30000A48009200F096FA0546F07C0028FCD0D6
:10DB400005492246491C3846FBF7A0FC68B2F8BDDF
:10DB5000C8220020D43E0020D43F0020781F0200BD
:10DB600038B50C4D1C4600201346E8740A4822467E
:10DB700000F8011B1946FBF789FC641CE2B2074B55
:10DB800005490748009200F06DFAE97C0029FCD0B5
:10DB900040B238BDC8220020D43E0020D43F00202F
:10DBA000781F020010B5FBF790FB08B1002010BDF4
:10DBB000112010BD10B531B1B2FBF3F403FB1424F6
:10DBC0001CB1092010BD0E2010BD01600021416074
:10DBD00081608281C381084610BD70B50C46054640
:10DBE000FBF728FB002802D021882868084470BD74
:10DBF00010B50A8849888A4203D1FBF75DFB0120F2
:10DC000010BD002010BD70B50C460546FBF737FB74
:10DC1000002802D061882868084470BD10B50A88C1
:10DC200049888A4203D1FBF721FB012010BD002067
:10DC300010BD01F01F0301229A40D243490900EBB5
:10DC40008100114600F024B84A0950F8220001F082
:10DC50001F0201219140084000D00120704701F0CF
:10DC60001F0301229A40490900EB8100114600F090
:10DC700024B8002100F012B8012100F01EB80121E3
:10DC800000F011B808B56A46FBF76BFB009808BDB9
:10DC900008B56A46FBF74BFB009808BD08B56A4615
:10DCA000FBF745FB08BD08B56A46FBF733FB08BD2B
:10DCB00008B56A46FBF722FB08BD08B56A46FBF7C4
:10DCC00029FB009808BD08B56A46FBF757FB00988A
:10DCD00008BD38B5044600258DF800506846FCF7AD
:10DCE00023FC21686268086890420ED9401E0860D3
:10DCF0000178238AE26801FB0325227A2168101A41
:10DD0000C0B20A79824200D208719DF80000FCF787
:10DD10002FFC284638BD38B5054600208DF8000098
:10DD20000C466846FCF700FCE868298A201AB0FB1C
:10DD3000F1F12A681068431C136001709DF800001F
:10DD4000FCF716FC38BD10B530B1017A42680368A3
:10DD5000891AC9B21A6006E00E2010BD03681A685D
:10DD6000541C1C601170491EC9B2F7D20068002112
:10DD70000171084610BDC20800F007030120895C4C
:10DD800098400840704728B1A1F11702E12A03D357
:10DD9000072070470E20704701800020704710B5A3
:10DDA00060B1C160F72120F8021B20F8021BFB21A3
:10DDB00000F8021BFFF73CFB002010BD0E2010BD39
:10DDC0002DE9F0410C468188002942D101880025C7
:10DDD000102906D011290BD03A290DD0552914D17C
:10DDE0000FE0C07BA11D01280FD1208808800CE026
:10DDF000A01DFFF71DFB08E00146204602F030FCA5
:10DE000003E00146204602F083FBA07A002820D0E0
:10DE10002846E188A5DF1049104A0127891ACE0853
:10DE200058B1112815D001F0B7FD024607EB0640A6
:10DE3000BDE8F0410AA101F08DB8A572E772042097
:10DE40002B46E28800EB0640BDE8F041114901F0A5
:10DE500088B8BDE8F0810000982B0200982B0200E2
:10DE600073645F626C655F67617474635F65786338
:10DE700068616E67655F6D74755F726571756573F6
:10DE80007428292072657475726E65642025732E5E
:10DE900000000000F423020020B10278DE2A03D043
:10DEA000082070470E20704741800020704760B105
:10DEB00059B10278DE2A0AD009684160DE2101707A
:10DEC0004FF6FF714180002070470E2070470820F8
:10DED00070477FB5054600294DD0002D4BD00878FE
:10DEE0000C46DE2847D1A8886188884202D12046A6
:10DEF00003F022FF2888012825D002283BD01128D2
:10DF00003AD0512837D135F8040F6188884232D190
:10DF1000A978A81C02292ED1017A042903D0062948
:10DF200001D0052927D10021009102228DF800207F
:10DF300001914FF4C07202910391ADF80420007A70
:10DF400005280FD010E0297A2046012913D1A9888D
:10DF5000428891420FD10121017204B0BDE87040A6
:10DF600003F0EABEADF8041028886946B0DF002847
:10DF700001D0616888477FBDA88861888842FAD14E
:10DF80004FF6FF7060807FBD00F180400068002880
:10DF900000D00120704708B500F1804000210160E9
:10DFA0000068009008BD00002DE9F041040007D092
:10DFB000044E4FF47A47751C3846A847641EFAD1C0
:10DFC000BDE8F081701F020070B50D4C012520786E
:10DFD00008B185260EE00020A06060602061E0604E
:10DFE000084801F001FD064601F014FC08B901F0F3
:10DFF000E5FC257001F0DAFC00B1A570304670BD7B
:10E000003447002081C5010038B500258DF8005047
:10E010006846FCF789FA084CE068401EE060E0685A
:10E0200028B901F0C3FC10B901F0ECFCA5709DF813
:10E030000000FCF79DFA38BD3447002030B41C4680
:10E040000378064D45F823202D1D45F8234002B1E5
:10E05000034A30BC001D01F085BE000010240020E2
:10E06000C51402001FB5001D069C8DE81E0000228D
:10E07000694601F063FF04B010BD000010B5014611
:10E08000002301220B4800F0D3F910F0FF040CD05C
:10E0900009480A492246401AC008032101EB004002
:10E0A00007A100F057FF032010BD024800F07CF8E4
:10E0B000204610BDD0240020082C0200982B02001E
:10E0C0006E72665F6673746F726167655F657261B9
:10E0D0007365206572726F722C25640010B5124949
:10E0E0000022124800F040FA0446104802F028FCD2
:10E0F00040F6F8700268501C02D14FF010204269BF
:10E100004FF0805108694969531C01D101FB00F2AD
:10E1100007480849401AC008032101EB004006A146
:10E1200000F018FF204610BD38220200D024002045
:10E13000082C0200982B0200656E645F61646472B3
:10E140003A3078257800000010B5B9B1B2B1134665
:10E150000A4601460A4800F079FA10F0FF000CD098
:10E160000849094A891AC908032202EB01430246F9
:10E1700006A1184600F0EEFE042010BD012010BDDF
:10E18000D0240020082C0200982B02006E72665FDB
:10E190006673746F726167655F7265616420657232
:10E1A000726F722C2564000010B50446204600F002
:10E1B00025FA0028FAD110BD38B5C1B1BAB1002393
:10E1C000009313460A4601460C4800F05DFB10F030
:10E1D000FF040ED00A480B492246401AC00803210A
:10E1E00001EB004008A100F0B5FE022038BD01207F
:10E1F00038BD0248FFF7D8FF204638BDD0240020A4
:10E20000082C0200982B02006E72665F6673746FB2
:10E21000726167655F7772697465206572726F728B
:10E220002C2564000FB408B50399002904D004AA72
:10E2300000926A4600F00FF801B05DF814FB10B5CB
:10E2400082680446002A05D0D4E90403216898476F
:10E250000020A06010BD2DE9FC4791460C008046CF
:10E2600076D014F8011B39B125290ED04046FDF7B0
:10E27000DFFF20780028F4D198F80C00002867D040
:10E280004046BDE8FC47FFF7DABF002001222178B5
:10E290002B291BD02D2902D0302908D102E040F0D3
:10E2A000010001E040F00200641C002AEFD10025CB
:10E2B0002A290ED02178A1F130020A2A11D205EBC9
:10E2C000850201EB4205641C303DF1E740F004009B
:10E2D000EAE7D9F800100B1DC9F800300968641C82
:10E2E0000D44217800232E290BD114F8011FA1F130
:10E2F00030020A2A05D203EB830201EB4203303BD2
:10E30000F3E76C290DD068290BD0692921D00BDCEB
:10E31000252918D0582931D063290ED0642915D168
:10E3200017E014F8011FECE7702969D0732932D087
:10E3300075291BD0782909D120E0D9F80000011DEA
:10E34000C9F8001001784046FDF772FF641C90E7A1
:10E350006CE0D9F800100A1DC9F800200968CDE961
:10E3600000500A224046FEF763FFEFE7D9F800109D
:10E370000A1DC9F8002009680A2206E0D9F8001031
:10E380000A1DC9F8002009681022CDE90050404656
:10E3900003F038FCDAE7D9F8001000270A1DC9F8A5
:10E3A00000200E68C00705D112E04046761C7F1C95
:10E3B000FDF73EFF31780029F7D104E020214046E7
:10E3C0006D1EFDF735FFBD42C0D9002DF6D1BDE76A
:10E3D0004EB13046FBF77EF8074604E02021404668
:10E3E0006D1EFDF725FFBD4206D9002DF6D103E0D5
:10E3F0004046761CFDF71CFF31780029F8D1A5E7CF
:10E40000D9F80000011DC9F8001005683021404608
:10E41000FDF70EFF78214046FDF70AFF0820002196
:10E42000CDE90001034610222946B0E7BDE8FC878C
:10E430002DE9F843884605002C482D499946A0EB64
:10E4400001004FEAD0004FF00101164601EB0044F5
:10E4500024D0286800282CD0002E34D0696840468B
:10E460004FF010070A68511E11EA080F11D101463A
:10E4700072432846FBF71CFD00282ED028684B4627
:10E480003246046901B041462846A446BDE8F0433F
:10E4900060472046174B18A2009722E00E200090FC
:10E4A0002046144B1EA220A100F063FD0E20BDE803
:10E4B000F8830820009020460E4B26A21AA100F0F7
:10E4C00058FD0820F3E7092000902046094B24A2BC
:10E4D00015A100F04EFD0920E9E7064B214A204630
:10E4E000009711A100F045FD1020E0E7002C02008C
:10E4F000982B020013220200616464725F69735FEB
:10E50000706167655F616C69676E656428705F66DE
:10E51000732C20706167655F61646472290000007C
:10E52000705F667300000000257320636865636B8D
:10E53000206661696C656420696E20257328292036
:10E54000776974682076616C756520307825782E3F
:10E5500000000000705F66732D3E705F617069009F
:10E560006C656E002828020038B503001148124D72
:10E570004FF00E04A0EB05004FEAD0004FF001056C
:10E5800005EB004009D061B119600C6801B0A446E8
:10E59000BDE83040114618466047084B08A2009479
:10E5A00002E0064B08A2009409A100F0E2FC0E2054
:10E5B00038BD0000002C0200982B0200C821020088
:10E5C000705F667300000000705F6170690000009A
:10E5D000257320636865636B206661696C656420E0
:10E5E000696E202573282920776974682076616C0C
:10E5F000756520307825782E000000002DE9F04167
:10E6000028B1016819B1C969BDE8F04108470D4D4D
:10E610000D480024461B14270DE000BF04EB8400C6
:10E6200005EB8000016829B1C969884710B1012054
:10E63000BDE8F081641CB6FBF7F0A042EED80020E4
:10E64000F6E70000D0240020E42400202DE9F84360
:10E65000904689462F49304A0500A1EB02014FEA56
:10E66000D1014FF001021E464FF00E0002EB0144B3
:10E670001ED0B8F1000F20D0286840B3002E30D053
:10E680004846FBF70FFC1027002834D03246494695
:10E690002846FBF70DFC002832D028683346424656
:10E6A000846801B049462846A446BDE8F043604767
:10E6B00000902046194B1AA203E00090174B204609
:10E6C00019A21BA100F055FC0E20BDE8F88308201C
:10E6D00000902046114B21A215A100F04AFC082011
:10E6E000F3E70920009020460C4B1FA210A100F078
:10E6F00040FC0920E9E72046084B1CA2009703E0F4
:10E70000064B20461FA2009709A100F032FC102002
:10E71000DBE70000002C0200982B0200EE21020033
:10E72000705F667300000000705F646573740000C2
:10E73000257320636865636B206661696C6564207E
:10E74000696E202573282920776974682076616CAA
:10E75000756520307825782E00000000705F6673A4
:10E760002D3E705F617069006C656E00616464725B
:10E770005F69735F616C69676E65643332287372B9
:10E7800063290000616464725F69735F776974680C
:10E79000696E5F626F756E647328705F66732C209C
:10E7A0007372632C206C656E2900000004480121FF
:10E7B0004174007A08B100207047012070470000C2
:10E7C0003C490020012801D0032808D10449002237
:10E7D00001284A7400D00020087402F0CBB97047B9
:10E7E0003C49002070B50246022801D0032A45D1D9
:10E7F000234C207A002841D0012833D0022831D17F
:10E8000020480023022A006802D0032A2AD11BE0F4
:10E81000E360017911B1012924D10DE0D0E905654A
:10E82000711B4FF48056B14200D3314629448161B7
:10E830004569A9420ED015E00169491C0161426990
:10E8400091420FD1237213E0E168491CE16008296D
:10E8500008D9E3602372022A0AD00D21FEF77AF963
:10E8600002F004F9607C28B1BDE8704000F0D8BF28
:10E870000021F3E7BDE8704002F07CB970BD0000F4
:10E880003C490020602400202DE9F84F90468A463C
:10E890003A493B4A0500A1EB02014FEAD1014FF092
:10E8A0000102DDF828901E464FF00E0002EB0144F5
:10E8B0001AD0B8F1000F1CD02868002822D00920F7
:10E8C000002E29D069684968B6FBF1F201FB12619C
:10E8D000002926D000902B4B20462BA235A100F01A
:10E8E00048FB0920BDE8F88F00902046254B3CA24C
:10E8F00003E00090234B20463BA22EA100F039FB01
:10E900000E20EFE70820009020461E4B38A229A1D8
:10E9100000F02FFB0820E5E700902046194B37A2B6
:10E92000DCE75046FBF7BEFA102798B14046FBF7EC
:10E93000B9FAA0B1324651462846FBF7B9FA98B168
:10E94000CDF80090286833464246C46851462846B0
:10E95000A047C7E720460B4B29A2009708E02046B6
:10E96000084B2DA2009703E0064B204633A20097E8
:10E9700010A100F0FEFA1020B4E70000002C020005
:10E98000982B02000022020021286C656E202520B1
:10E99000705F66732D3E705F666C6173685F696E51
:10E9A000666F2D3E70726F6772616D5F756E697410
:10E9B00029000000257320636865636B2066616928
:10E9C0006C656420696E2025732829207769746836
:10E9D0002076616C756520307825782E0000000067
:10E9E000705F667300000000705F73726300000068
:10E9F000705F66732D3E705F617069006C656E00BC
:10EA0000616464725F69735F616C69676E656433CA
:10EA10003228646573742900616464725F69735F8E
:10EA2000616C69676E65643332282875696E74336A
:10EA3000325F7429705F73726329000061646472CD
:10EA40005F69735F77697468696E5F626F756E6422
:10EA50007328705F66732C20646573742C206C655A
:10EA60006E29000070B541EA4201DDE904564FF01D
:10EA7000A04441EA830141EA052104EB800041EA18
:10EA80000641C0F8001770BD70B541EA4201DDE9EA
:10EA900004564FF0A04441EA830141EA052104EB0A
:10EAA000800041EA0641C0F8001770BD1CB5002186
:10EAB00000910B4601220191FFF7D4FF1CBD1CB54C
:10EAC000002100910B46012201911146FFF7CAFF78
:10EAD0001CBD1CB5002100910B460122019111467D
