:020000040001F9
:1090000090590020E1930100E9930100EB930100E6
:10901000ED930100EF930100F193010000000000C7
:10902000000000000000000000000000F3930100B9
:10903000F593010000000000F7930100F99301008F
:10904000099A0100FB930100FB930100FB930100CF
:10905000759D01000000000099980100219B01000E
:10906000FB930100FB930100FB9301005D9A01005B
:10907000FB930100FB930100FB930100FB930100B4
:1090800009A001000D9B010000000000000000008D
:10909000FB930100FB930100299E0100FB9301005B
:1090A000FB930100FB9301000000000000000000A2
:1090B00000000000000000000000000000000000B0
:1090C00000000000000000000000000000000000A0
:1090D0000000000000000000000000000000000090
:1090E0000000000000000000000000000000000080
:1090F0000000000000000000000000000000000070
:10910000000000000000000000000000000000005F
:10911000000000000000000000000000000000004F
:10912000000000000000000000000000000000003F
:10913000000000000000000000000000000000002F
:10914000000000000000000000000000000000001F
:10915000000000000000000000000000000000000F
:1091600000000000000000000000000000000000FF
:1091700000000000000000000000000000000000EF
:1091800000000000000000000000000000000000DF
:1091900000000000000000000000000000000000CF
:1091A00000000000000000000000000000000000BF
:1091B00000000000000000000000000000000000AF
:1091C000000000000000000000000000000000009F
:1091D000000000000000000000000000000000008F
:1091E000000000000000000000000000000000007F
:1091F000000000000000000000000000000000006F
:10920000DFF810D000F00AFB0048004731E401000D
:10921000AFF300809059002000B583B00290009118
:10922000019244F2010071466A4600F081FF03B0EA
:1092300000BD000030B450E8012F93B2C48923442C
:109240008489A34228BF1B1B0489A34202BFBFF32A
:109250002F8F002007E0C3EA020340E80134002C0E
:10926000E9D14FF001000A6030BC704750E8012F8F
:10927000C2EA024240E801210029F7D1704730B428
:1092800050E8022F1FFAA2F3C488A34202BFBFF323
:109290002F8F00200DE0C48923448489A34228BF76
:1092A0001B1BC2EA034340E80234002CE8D14FF014
:1092B00001000A6030BC704750E8022FC2EA224227
:1092C00040E802210029F7D17047034653E8022FF6
:1092D000D988B2EB324F4FF0000017BF92B241EA8B
:1092E000014142EA014104E05A68B2EB324F08BF43
:1092F000012043E80212002AE8D1704730B4044646
:1093000054E8000F0D4644E80053002BF8D11560D7
:1093100030BC704730B4044654E8000F40EA010501
:1093200044E80053002BF7D1156030BC704730B4CF
:10933000044654E8000F00EA010544E80053002BFE
:10934000F7D1156030BC704730B4044654E8000FC4
:1093500080EA010544E80053002BF7D1156030BCCA
:10936000704730B4044654E8000F00EB010544E8B0
:109370000053002BF7D1156030BC704730B4044661
:1093800054E8000FA0EB010544E80053002BF7D18F
:10939000156030BC704770B404464FF0000054E8CC
:1093A000006F0D68AE4207BF44E80023012044E887
:1093B00000630E60002B1CBF0020F0E770BC7047FC
:1093C00030B4044654E8000F88422CBF451A0546C5
:1093D00044E80053002BF5D1156030BC7047000005
:1093E0000648804706480047FEE7FEE7FEE7FEE73F
:1093F000FEE7FEE7FEE7FEE7FEE7FEE75D9E010013
:10940000019201002DE9F05F0546002092469B463F
:1094100088460646814640241BE02846414647468A
:10942000224600F08DF953465A46C01A914110D396
:1094300011461846224600F016F82D1A67EB01086F
:109440004F4622460120002100F00DF817EB0009DD
:109450004E41201EA4F10104DFDC484631462A4675
:109460004346BDE8F09F202A04DB203A00FA02F1CF
:10947000002070479140C2F1200320FA03F3194302
:109480009040704700487047DC32020040EA010318
:109490009B0703D009E008C9121F08C0042AFAD2AA
:1094A00003E011F8013B00F8013B521EF9D270476E
:1094B000D2B201E000F8012B491EFBD27047002216
:1094C000F6E710B513460A4604461946FFF7F0FFC3
:1094D000204610BD421C10F8011B0029FBD1801A48
:1094E00070472DE9FE4F81EA030404F0004421F0A7
:1094F000004100944FF0000B23F0004350EA0104B8
:109500005ED052EA03045BD0C3F30A54C1F30A5598
:109510002C44A4F2F3340194A0FB0254C1F31301D0
:1095200041F48011C3F3130343F4801301FB02449D
:1095300000FB034E840A970A44EA815447EA8357A2
:10954000A4FB076802958D0A05FB07854FEA932C5B
:1095500004FB0C542705029D4FEA065847EA1637CC
:10956000B5EB08056EEB070C870E920E47EA8117E4
:1095700042EA8312A7FB0201B6EB0B0164EB000485
:109580002B0D43EA0C335E1844EB1C50DA4651466F
:10959000E7FB0201C5F313044FEA0B3343EA14530C
:1095A0004FEA0432019C43EA0603A4F10C0402943E
:1095B000009CCDE900B400F0E2F803B0BDE8F08F04
:1095C00000200146F9E72DE9F04D81EA030404F09B
:1095D000004B21F0004514464FF0000A23F00041F3
:1095E00050EA050220D054EA01021DD0C5F30A5703
:1095F0000246C5F31303C1F31300C1F30A5640F446
:10960000801543F48013A7EB0608101BD64608F21A
:10961000FD3873EB050002D308F1010801E0921850
:109620005B41B8F1000F03DA00200146BDE8F08D80
:1096300000204FF48011064684460EE0171B73EBA2
:10964000050705D3121B63EB050306434CEA010C27
:1096500049084FEA300092185B4150EA0107EDD10A
:1096600052EA030012D082EA040083EA05010843AB
:1096700005D0101BAB4106D20122002306E00022D8
:109680004FF0004302E06FF0010253101AEB0600A6
:109690004CEB085110EB0A0041EB0B01BDE8F04D1B
:1096A00000F05EB870B521F0004303430CD0C1F365
:1096B0000A550024D5EB040564EB0403D617AD1A54
:1096C000B34102DB0020014670BD201841EB02517E
:1096D00070BD0EB5C10F80EAE0700844CA070021D2
:1096E00040F233438DE80E000A460B4600F047F87F
:1096F00003B000BD0EB540F2334102910021CDE927
:1097000000110A460B4600F03AF803B000BDC1F361
:109710000A5210B5C1F3130140F2FF3341F4801136
:109720009A4201DA002010BD40F233439A42A2F27D
:10973000334203DC524200F003F810BD904010BDEC
:10974000202A04DB203A21FA02F00021704721FA96
:1097500002F3D040C2F120029140084319467047FD
:1097600010B5141E73F1000408DA401C41F1000129
:1097700092185B411A4301D120F0010010BD2DE980
:10978000F04D92469B4611B1B1FA81F202E0B0FA77
:1097900080F220329046FFF766FE04460F4640EA0C
:1097A0000A0041EA0B0153465A46084313D01146BA
:1097B00053EA010019D0C8F140025046FFF7C0FF3C
:1097C00005460E46504659464246FFF74CFE0843B2
:1097D00005D0012004E020463946BDE8F08D002088
:1097E000054346EAE0762C4337430A986305E40ACA
:1097F000A0EB08000022FD0A44EA47540A3002D5D3
:1098000000200146E9E7010510196941DDE9084535
:1098100000196941BDE8F04DA2E70000064C074D74
:1098200006E0E06840F0010394E807009847103430
:10983000AC42F6D3FFF7E8FC983A0200B83A0200CF
:1098400070B58C1810F8015B15F0070301D110F802
:10985000013B2A1106D110F8012B03E010F8016B2F
:1098600001F8016B5B1EF9D12B0705D40023521EB2
:109870000DD401F8013BFAE710F8013BCB1A921C1A
:1098800003E013F8015B01F8015B521EF9D5A14218
:10989000D8D3002070BD00002DE9F04F002689B01C
:1098A0000120554CB4464FF48072314680460196F3
:1098B00002F1804303F5C0431D68012D08D1D4F89F
:1098C0000453054204D0C3F800C01B680643049348
:1098D000121D4000491C92B20829E9D34748DFF81D
:1098E00020B1016801290CD1C0F800C000680090C7
:1098F000DBF8000046F00046D0F820150191C0F8D2
:109900002015404D16F0FF0F1CBF0127002417D073
:10991000374211D0A00000F1804101F5C041D1F8DB
:109920001005D1F81015C0F3042055F82420C1F318
:109930000141002A18BF90477F00641C082CE7D320
:1099400016F0004F19BF01AE4FF0A04709B0BDE8B7
:10995000F08F0024281990F95010B1F1FF3F3AD050
:1099600090F8501021F0C000C20800F00703B25C6C
:1099700008FA03F313422ED007EB80028909D2F8CC
:109980000037C3F30143022B0CBF4FF0030C4FF021
:10999000020CD2F8009729F44039C2F80097D2F8A7
:1099A000009749EA0C4CC2F800C708FA00F2C7F861
:1099B00020252A1892F9302055F822205AB103297F
:1099C00008D0022B04D0032B08BF022902D002E0EA
:1099D000012900D19047641C042CBBD3DBF80000A4
:1099E000D0F820150191C0F8201501980028B0D1B9
:1099F00009B0BDE8F08F0000006000407C610040CD
:109A0000602F020048470020F8B54FF08044D4F89A
:109A100000010F4E002548B10E4805600068009017
:109A20000120C4F80803316800208847D4F80401F5
:109A3000002808BFF8BD08480560006800900220B3
:109A4000C4F80803316801B00120BDE8F0400847C0
:109A50000824002000010040040100402DE9F84FD7
:109A60004FF00008274CDFF8A0A04FF0030B4FF495
:109A700080354FF4A0764746C14600BFD4F80403B2
:109A800028421CBFA05900280BD0C4F84853C4F882
:109A9000085344F80690A05900905AF82810F8B2DC
:109AA0008847301D6D007F1C86B25F45E6D3D4F831
:109AB000040310F0010F1CBFD4F80001002809D0E6
:109AC000C4F80091D4F8000100905AF828104FF023
:109AD00004008847D4F8040310F0020F1ABFD4F82A
:109AE00004010028BDE8F88FC4F80491D4F80401FB
:109AF00000905AF8281001B04FF00500BDE8F04F73
:109B00000847000000B00040242400200349024818
:109B10000968006808470000502400204C240020F9
:109B20002DE9F043544C85B0D4F80401DFF84C81A2
:109B30000026534D012718B3C8F80060D8F800007C
:109B4000009095F82E2012B195F82F00D8B18DF81D
:109B50000060686801902889ADF80800E86800286E
:109B600008BF2E7407D0298B698368602981EE6055
:109B7000002A08BF276068462968884785F82F6053
:109B800095F82E0088B3D4F8000170B33D48066004
:109B9000006800906A8B95F82D003B4B824203F1E0
:109BA000040C0DD9A2EB000189B269832A89A2EBCA
:109BB00001016A6802EB41011960CCF800000EE077
:109BC00008D1E96831B185F82F706E831960CCF83F
:109BD000000004E0824204BF85F82F706E83C8F84D
:109BE0000060D8F8000000906760D4F8100150B110
:109BF00026480660006803902E7402208DF800004D
:109C0000296868468847D4F8140138B120480660AE
:109C1000006800902E7405B0BDE8F0836C69002CDC
:109C200019BF4FF000484FF48C7905B0BDE8F083C0
:109C3000B4FA84F028FA00F18C4309EB800000F1BB
:109C4000804101F5E0410A6882B10E600968039124
:109C5000A0F58C70C1088DF8041027EA90008DF8EB
:109C600000708DF80500296868468847002CDFD110
:109C700005B0BDE8F08300000070004004710040B2
:109C8000A4470020007100402C7600401071004075
:109C90001471004000F0CEB92DE9F0411546344A68
:109CA00000EB400002EBC00000F11804C06A20B1D4
:109CB000012829D0022850D055E02069E668B0423A
:109CC00084BF3246801A02D8A3689A1B1044401EF3
:109CD000A84248D3A0688846871BBD4206D2606868
:109CE0002A463044FFF7D2FB701926E060683A46F6
:109CF0003044FFF7CBFBEE1B08EB070132466068F0
:109D0000FFF7C4FBE6602FE02069E768B84284BF34
:109D10003A46801A02D8A368DA1B1044401EA842B3
:109D200038BF05468846A068C61BAE4207D96068A2
:109D30002A463844FFF7AAFB7819E06014E060680F
:109D400032463844FFF7A2FBAF1B08EB06013A4648
:109D50006068FFF79BFBE76006E02A46204600F0BC
:109D60009DF9054600E000252846BDE8F081000089
:109D7000084F002078B44FF040212A480023C1F852
:109D80000831D1F808210092D1F818258DF800206B
:109D9000D0F818C0426A624504D29DF800C04469F8
:109DA00004F802C0426A521C426290F828C0521C59
:109DB000BCF1000F0DD0D0F810C0944528BF9446D8
:109DC000C0F810C0D0F818C0944528BF9446C0F819
:109DD00018C005690124954284BFC068805C06D81C
:109DE000D0F818C0944588BF90F8200003D9C1F876
:109DF0001C0578BC7047416A8D4292BF8C4578BC87
:109E00007047817FFF2905D04FF0A04204FA01F18D
:109E1000C2F80815437700F8083F50E9022101B065
:109E200070BC1047D447002000B583B00A4968468B
:109E300007F030FA0298002804BF03B000BD00BF4D
:109E4000D0E900108847684607F035FA02980028E4
:109E5000F6D103B000BD0000E031020010B44FF0B5
:109E60008051D1F844124A4AC1F3423111604FF097
:109E700080410022C1F80C21C1F8102145490A6037
:109E800045490968454B1960454909681B1D19601A
:109E9000444909681B1D1960434909681B1D196065
:109EA000424909681B1D1960414909681B1D196059
:109EB00040490968404B1960404909681B1D1960F9
:109EC0003F4909681B1D19603E4909681B1D19603F
:109ED0003D4909681B1D19603C4909681B1D196033
:109EE0003B4909683B4B19603B4909681B1D1960D8
:109EF0003A4909681B1D1960394909681B1D196019
:109F0000384909681B1D196037490B6813F0010FA8
:109F10001CBF6FF001030B603448016841F00F0172
:109F200001604FF01023D3F8000210F0004F04BF7F
:109F3000D3F8040210F0004F25D0DFF8B4C00120A0
:109F4000CCF800002B4801680029FCD01524C3F888
:109F5000004201680029FCD0C3F8044201680029CE
:109F6000FCD0CCF8002001680029FCD0BFF34F8F53
:109F700021480168214A01F4E06111430160BFF307
:109F80004F8F00BFFDE71F491D48086010BC704798
:109F90003C050040380500400404001020C5004086
:109FA000080400100C040010100400101404001029
:109FB000180400101C04001040C5004020040010CC
:109FC00024040010280400102C0400103004001099
:109FD0003404001060C50040380400103C04001038
:109FE000400400104404001000040040E40E00404F
:109FF00004E5014000E401400CED00E00400FA0536
:10A000000090D003CC2400200748D0F8000100289D
:10A0100008BF704708B505484068804704480021DC
:10A0200001600068009008BD000001401824002075
:10A030000001014010B5124C02202061606111A0A6
:10A04000A06104F17800E0614FF40070206200200C
:10A05000A06260620BA1A164E06204F51E71E1647C
:10A060001021A06521656065E06509A009A100686F
:10A07000C4F80700204600F042F82020A07110BD6F
:10A08000084F00205465726D696E616C000000001D
:10A090005254540053454747455200002DE9F047BC
:10A0A000C4681746894606464FF000083069A0424A
:10A0B0008FBF001BB168201A081A451EB068001B2C
:10A0C000A84298BF0546BD4228BF3D4670682A4653
:10A0D00020444946FFF7DAF9B0687F1B2C44A844B6
:10A0E000A944A04208BF0024F460002FDED14046FE
:10A0F000BDE8F087002101608180817170470A68A6
:10A1000002608B88838091F806C080F806C0704793
:10A1100002E008C8121F08C1002AFAD17047704730
:10A12000002001E001C1121F002AFBD1704700008E
:10A13000F0B583B015460E46074672B606F090FAA3
:10A1400006F04EF80028FBD12448254A0121801A48
:10A15000C00841EA0044012F04BF204621A126D0B7
:10A160006FF48050381804BF204626A11FD0B0F5E8
:10A17000405F1FD06FF44051C842204605D1D5E959
:10A18000003229A106F075F903E032462DA106F050
:10A1900069F93248006810F0010F00D000BE2A466D
:10A1A00003B031463846BDE8F04000F077B806F01D
:10A1B00055F9EEE7A86807F0CBF80346D5E90001AA
:10A1C000CDE900100296204625A1AA6806F069F99B
:10A1D00020462DA106F042F9DBE70000383B0200E3
:10A1E000C83A0200534F46544445564943453A2025
:10A1F000415353455254494F4E204641494C4544E2
:10A2000000000000534F46544445564943453A2008
:10A21000494E56414C4944204D454D4F52592041DD
:10A220004343455353000000415353455254494F53
:10A230004E204641494C45442061742025733A25FF
:10A2400075000000554E4B4E4F574E204641554C21
:10A25000542061742030782530385800F0ED00E04B
:10A260004552524F52202575205B25735D20617445
:10A270002025733A25750D0A50432061743A203029
:10A280007825303878000000456E64206F662065C0
:10A2900072726F72207265706F72740081B00123E8
:10A2A0008DF800309DF80030164B186059609A60A8
:10A2B0006FF48041401809D0012811D1DA60D868C4
:10A2C00000689861D8684068D86109E01A61186927
:10A2D0008068586118690068986118694068D86199
:10A2E000186858689868D868186958699869D8696A
:10A2F00072B600BF9DF800000028FBD162B601B025
:10A300007047000000480020F0B5054683B04220A9
:10A310008DF8040003208DF800002B4601226946C9
:10A32000682002F085FD287D102120F0F00040F02B
:10A330000F00697580302875284601F0A5FC0600DD
:10A3400026482749A0EB01004FEAD0004FF0030157
:10A3500041EA004407D02046324622A106F082F8A6
:10A3600003B03046F0BD264802F0F4FF060007D0E7
:10A370002046324623A106F075F803B03046F0BD02
:10A380001F4F022087F82600384603F010F9060018
:10A3900007D1012087F82200384603F078F806003C
:10A3A00007D0204632461DA106F05CF803B03046C7
:10A3B000F0BD287D294620F0F0008030287501A8E6
:10A3C00002F0E9FB050004BF03B0F0BD20462A46B9
:10A3D00018A106F047F803B02846F0BD383B02004C
:10A3E000C83A0200626D69313630206175782069A3
:10A3F0006E6974206572726F723A25640A000000FB
:10A4000018230020626D6D31353020696E6974202B
:10A410006572726F723A25640A000000626D6D31D8
:10A42000353020736574206F70206572726F723AD8
:10A4300025640A00626D69313630207365742061CD
:10A440007578206175746F206D6F64652065727218
:10A450006F723A25640A000070B51C49064601F582
:10A460008060324601604FF480618180B0610021DC
:10A47000FE2002F000FC050015481649A0EB010083
:10A480004FEAD0004FF0030141EA004406D02046D5
:10A490002A4611A105F0E6FF284670BD324601218B
:10A4A000F02002F0E8FB020003D0204618A105F0DE
:10A4B000D9FF304602F021FC050008BF70BD2046E0
:10A4C0002A461FA105F0CEFF284670BD004100209E
:10A4D000383B0200C83A0200436C6561722046496D
:10A4E000464F20636F6E66696775726174696F6E3F
:10A4F000207265676973746572206572726F722C61
:10A50000206572726F7220636F64653A2025640063
:10A51000626D693136305F7365745F6669666F5F5F
:10A52000636F6E666967206572726F722C20657248
:10A53000726F7220636F64653A202564000000002A
:10A54000466C757368204649464F206572726F727B
:10A550002C206572726F7220636F64653A202564E7
:10A560000000000010B584B0002007F0C5FA1A4CB6
:10A57000207901281CBF04B010BD184AD2E9190186
:10A58000D26ECDE9000102921549164806F08EFF01
:10A5900020B1154A40F64201FEF73EFE6946002012
:10A5A00006F034FF20B1104A40F64401FEF734FEB5
:10A5B00008F05AFBA08207F069F8A18A40F67A52A7
:10A5C0000020914222BFE07104B010BD0121E17171
:10A5D000607004B010BD0000C8220020902E020060
:10A5E000F5240200982E020080200200002A04BFF9
:10A5F0000720704700684FF0FF3C01294261C0E925
:10A6000002CC18BF002101610020704738B5114805
:10A6100008235822416800910F49006804F034FB78
:10A62000002818BF38BD0D4A69460D4803F0EEFCFE
:10A63000040018BF38BD0121094803F065FD01235E
:10A64000084A1946064803F0B7FC0749012008707C
:10A65000204638BD642F0200304800201523020038
:10A6600030240020FFFF7F0028240020F8B5044696
:10A67000002617460D468DF80060684600F080F809
:10A68000D4E90201C04370EA010005D09DF8000042
:10A6900000F0A4F80020F8BD1B4803F0B3FC1B49F0
:10A6A000D1E904238018D1E906217341821A73EBA2
:10A6B000010103D210F1807043F10003401943EB14
:10A6C0000601C4E902019DF8000000F087F8A761C7
:10A6D0002069002818BF256100250D4F694638689C
:10A6E00004F0E7FA002804BF0420F8BD05704460B8
:10A6F0006946386804F000FB00281CBF024803F0DC
:10A70000F5FC3046F8BD000030240020282400204D
:10A71000642F0200F8B5044600258DF80050684605
:10A7200000F02EF8D4E90201C04370EA01001DD008
:10A73000681EC4E902009DF8000000F04FF80E4FBB
:10A7400001266946386804F0B4FA002804BF0420E2
:10A75000F8BD067044606946386804F0CDFA0028F8
:10A760001CBF064803F0C2FC2846F8BD9DF8000057
:10A7700000F034F80020F8BD642F020030240020DF
:10A7800010B4EFF3108172B6124AD2F808C0012358
:10A79000BCF1000F18BF037006D000291CBF10BC0D
:10A7A000704762B610BC704793604FF0E023D3F857
:10A7B0008041DFF824C004EA0C041460C3F880C1AF
:10A7C000D3F884C1C2F804C05A17C3F88421002208
:10A7D0000270E2E788480020FC06FFBD0C498A6849
:10A7E000002A08BF7047002818BF7047EFF3108099
:10A7F00072B60B684FF0E022C2F800314B68C2F825
:10A80000043100228A60002818BF704762B6704782
:10A8100088480020002A04BF0E20704770B504004D
:10A820004FF000001546106019BF206800280E2068
:10A8300070BDA07910F0030F1CBF072070BD084643
:10A8400000F092FCC0B2142804BF052070BD21792D
:10A8500081429CBF042070BDE288216800FB021089
:10A860002860002070BD00002DE9F04F83B04FF04C
:10A87000000817880546A2F8008090F82D001446BD
:10A880000E464FF00C0A4FF0010900282FD0208807
:10A890000930B84200F28B8168466DDF00281CBF8A
:10A8A00003B0BDE8F08F08212288B15420881B2214
:10A8B000401C80B2208032542088401C80B220800E
:10A8C0003044DDF801100160BDF80510818020885A
:10A8D000801D80B220809DF8001011F0FE0F12BF85
:10A8E00006F80090002232542088401C2080A8786E
:10A8F0004FF0020B08B32088001DB84200F25781C8
:10A90000684679DF00281CBF03B0BDE8F08F032143
:10A910002288B15420881922401C80B220803254F1
:10A920002088401C80B220803044BDF800100170A7
:10A93000090A41702088801C2080E878B0B1218805
:10A9400095F90300CA1CBA4200F2318106F801B041
:10A950002188491C89B2218006F801902188491C70
:10A9600089B2218070542088401C20806868B0B172
:10A9700090F900102088C21CBA4200F2188106F833
:10A9800000B020880A23401C80B2208033542088E5
:10A99000401C80B2208031542088401C20802889AF
:10A9A00070B1CDE9004733460622022105F10800C7
:10A9B00008F084F9B0F100081CBF03B0BDE8F08FC7
:10A9C000288A70B1CDE9004733460722032105F1FB
:10A9D000100008F073F9B0F100081CBF03B0BDE827
:10A9E000F08F288B70B1CDE9004733461522142132
:10A9F00005F1180008F062F9B0F100081CBF03B0BF
:10AA0000BDE8F08F4FF0070B286AD8B3B4F800C048
:10AA10000CF106018F42C0F0CA800288062A7DD35D
:10AA20004FF6FF73B2F5486F01D99A4276D141884B
:10AA3000062973D3B1F5486F01D999426ED19A4274
:10AA40001CBF99428A4269D8052106F80C1021885A
:10AA50001222491C89B2218072542188491C89B272
:10AA60002180314402880A70120A4A702188891CA8
:10AA700089B22180314440880870000A48702088DB
:10AA8000801C2080D5F82490B9F1000F2ED0B9F8A1
:10AA900004002188021D0A44801CBA4298BFFE2887
:10AAA00067D8401C70542088FF22401C80B2208050
:10AAB00032542088401C80B220803044B9F8001005
:10AAC0000170090A41702088801C80B22080B9F88A
:10AAD00004205AB1D9F8081000295FD03044FEF79D
:10AAE000D5FC2088B9F804100844208095F82C0083
:10AAF000F0B3A96A91B14FF0000900283CD900BF1A
:10AB0000A86A09EB490100EB8108B8F80400801C31
:10AB1000FE284CD82288401CB05400E03EE020883B
:10AB20001622401C80B2208032542088401C81B202
:10AB300021803144B8F800000870000A487020886D
:10AB4000801C80B22080B8F8042052B1D8F80810D8
:10AB500021B33044FEF79AFC2088B8F8041008446A
:10AB6000208009F1010000F0FF0995F82C0001E0B8
:10AB700004E01CE04845C3D84FF000082878E8B34B
:10AB8000C0B2012804BF6978002907D0218801F1EB
:10AB90000202BA420BD801280DD103E003B0584697
:10ABA000BDE8F08F68780844801CB84203D903B030
:10ABB0005046BDE8F08F781A801E87B2ADF800705D
:10ABC0002088B11C084469467DDF00281CBF03B003
:10ABD000BDE8F08F2978022904D06878BDF80020FC
:10ABE000904205D3BDF80000874228BF09200CD24F
:10ABF0000820012907D16978B94200E018E098BF20
:10AC0000ADF8001001D9ADF80070BDF80010FE29B4
:10AC1000CDD82288491CB1542188491C89B2218091
:10AC200070542088401C2080BDF80010084420800B
:10AC300003B04046BDE8F08F18B504460020ADF8DB
:10AC4000000013466A46204600F006F800281CBFA4
:10AC5000BDF80000204418BD30B400281CBF002AF5
:10AC60004FF0000C25D004E010F80CC0A4441FFAEB
:10AC70008CFC0CF101048C4207D21588AC45F3D34F
:10AC800000EB0C056D789D42EED1614511D910F8AD
:10AC90000C000CF102039BB2002818BF401E0004F8
:10ACA000000C06D003EB000C8C459EBF138030BC1B
:10ACB0007047002030BC704780F830107047002982
:10ACC00012BF00280E2070472DE9F041044691F88C
:10ACD0007A0000260D46012804BF95F89800012847
:10ACE00071D0D5F8A00004281CBFD5F89C0004281A
:10ACF00069D0A67005F1780504F104040FCD0FC4E6
:10AD00000FCD0FC4AA6875E82601A26064E80901A6
:10AD10004FF0010784F83060D5F8A4006063D5F8DF
:10AD2000A800A0634FF6FF70A4F8E80004F1D40077
:10AD3000C4F8E40004F1EA00FFF7DCF92078002809
:10AD400004BFFF2084F8540004F15500C4F8D40077
:10AD500094F824001F20A4F8D80004F1D80204F1CC
:10AD600055012846FFF780FD002818BFBDE8F08197
:10AD700004F19301C4F8DC1094F824001F20A4F817
:10AD8000E00004F1E00205F13C00FFF76DFD002852
:10AD900018BFBDE8F08184F85170208BA4F84800FA
:10ADA00084F83C70266484F850606069606404F143
:10ADB0003C02002104F1540072DF002808BF277014
:10ADC000BDE8F081FFE70720BDE8F08110B50288FB
:10ADD000102A23D0112A28D0262A18BF10BD0C46CD
:10ADE000007A01281CBF022810BDA0781A4900F182
:10ADF0000100A1FB00214FEA9101C1F1000101EB2B
:10AE000081010844C1B2204600F028F800281ABF8A
:10AE1000A16B002910BDBDE810400847C27B012A84
:10AE200004BF8088A1F8E80010BD0C46002184F81A
:10AE3000F2108088B4F8E810884206BF2079002814
:10AE400010BD4FF00101204600F008F800281CBF9B
:10AE5000A16B0029DFD110BDCDCCCCCC2DE9F05FAA
:10AE6000044600788846002804BF0820BDE8F09F0B
:10AE700084F8028004F1EA008346FFF73BF9A079E9
:10AE80000126002510B1A078012806D0E07970B124
:10AE9000A078012818BF022809D1616B002908BFDA
:10AEA00084F8F15003D084F8F1600820884794F8C2
:10AEB000EB00002804BF94F8EC00002810D194F8AF
:10AEC000ED00002804BF94F8EE00002808D194F8A3
:10AED000EF00002802BF94F8F0000028284600D0B8
:10AEE00030464FF002074FF003094FF0040AB8F163
:10AEF000010F09D0B8F1020F0FD0B8F1030F12D033
:10AF0000B8F1040F14D018E0A17931B194F82410ED
:10AF100019B9002818BF304610D1E17900291CBFAB
:10AF2000002838460AD1207A002818BF484605D1A3
:10AF3000607A002818BF504600D12846A070616B87
:10AF400041B1032818BF042804D1607910B194F8E6
:10AF5000F20040B384F8F350E56325646564A564AA
:10AF6000E564256584F83C60E06A012816BF022884
:10AF700084F8510084F8516094F8240038B1A06A34
:10AF8000012816BF022884F8520084F8526084F821
:10AF90005050A07804F1D40805287CD2DFE800F0F6
:10AFA000A20A1624510084F8F45084F8F3600720B4
:10AFB0008847D1E784F83160C4F840B0C4F8E45061
:10AFC00084F83C708020A4F848006EE084F831706A
:10AFD00084F83C90218AA4F84810C4F840B0C4F822
:10AFE000E450E168616460E061696164218BA4F808
:10AFF000481084F83C60617904F13C00F1B194F8A8
:10B00000F210D9B994F8F410C1B107752546042699
:10B01000B4F8D8100122D4F8D400FFF70DFE0028B0
:10B0200018BF067005F13C0205F1D40105F154008A
:10B0300072DF002808BF052135D12BE084F831905C
:10B040002FE0E1696164218CA4F8481084F83C6029
:10B05000617904F13C0011B394F8F210F9B994F855
:10B06000F410E1B1077525460426B4F8D810012282
:10B07000D4F8D400FFF7E0FD002818BF067005F1F2
:10B080003C0205F1D40105F1540072DF002808BF2D
:10B09000062108D100E006E084F8311001E084F8D0
:10B0A00031A0C4F8E480A07898B104F13C0204F126
:10B0B0005400D4F8E41072DF002818BFBDE8F09FF8
:10B0C00094F8301094F8540073DF002818BFBDE8DE
:10B0D000F09F616B00291CBF94F831008847002065
:10B0E000BDE8F09F84F83150F3E70000002804BF6A
:10B0F0000E20704770B50446174894E80E1000F112
:10B10000340585E80E10D4E90412A369C364C0E9CC
:10B1100011123430114D0560206848B17ADF0028E3
:10B1200018BF70BD2068016840682960686004E04D
:10B130000A487BDF002818BF70BD09484FF6FF7131
:10B14000084A20F8041B044901600021FFF74EFA69
:10B15000002818BF032070BD68460020002400208E
:10B1600088460020ED2B020010B504460146142845
:10B1700006D2044803F0D7FD00281CBF204610BDAE
:10B18000142010BDBC460020F8B5054601884E4885
:10B190004E4A4F4C801AC008B4F816C0212961D01D
:10B1A00021DC4A4A484B4FF00300A3EB02024FEA6E
:10B1B000D20240EA02404FF00106102927D011299F
:10B1C00042D0132918BFF8BD00231A4685216046D6
:10B1D0007FDF002808BFF8BD3EA2BDE8F84040F27E
:10B1E0009F11FEF719B83B2960D052294FD056293C
:10B1F00018BFF8BDA888132176DF002808BFF8BD66
:10B2000034A2BDE8F84040F2B311FEF705B835A10D
:10B2100005F024F926716671072002F02FFB20B19A
:10B220002CA240F27D11FDF7F7FFA988E182314899
:10B2300003F08EFF002808BFF8BD26A2BDE8F84045
:10B240004FF4C071FDF7E8BF2BA105F007F900200E
:10B25000207166716070A070E07060744FF6FF70CE
:10B26000E082F8BD042141EA004028A105F0F6F88B
:10B270002B48694600680090A8888FDF002808BF27
:10B28000F8BD14A24FF4CC71FDF7C6FFF8BD002342
:10B290001A4619466046B1DF002808BFF8BD0DA266
:10B2A000BDE8F84040F2A511FDF7B6BFA88813210C
:10B2B00076DF002808BFF8BD06A2BDE8F8404FF4CD
:10B2C000D671FDF7A9BF0000383B0200C83A020062
:10B2D000C82200202E2E5C2E2E5C2E2E5C6D616905
:10B2E0006E2E6300424C4520436F6E6E656374653D
:10B2F00064000000D03D0020424C45204469736347
:10B300006F6E6E65637465640000000050485920DC
:10B3100075706461746520726571756573742E0053
:10B32000902E020010B52E4C01886068102916D0AE
:10B33000112918BF10BD401E606018BF10BD01224A
:10B340000221002002F072FA002818BF07282ED030
:10B350002168002908BF10BDBDE81040084760B94A
:10B3600000210122084602F061FA002818BF0728D0
:10B3700007D02168002918BF88476068401C6060BA
:10B3800010BD07220221012002F050FA002818BF48
:10B390000728EED14FF004024FF002014FF00000F9
:10B3A00002F044FA002818BF0728E2D1E5E74FF081
:10B3B00007024FF002014FF0010002F037FA0028B7
:10B3C00018BF0728C4D14FF000014FF00A02084609
:10B3D00002F02CFA002818BF0728B9D110BD0000D0
:10B3E000F82300202DE9F84F854D02880026298892
:10B3F000012705F11404102A2FD0112A7DD0122A1A
:10B4000000F0BA80502A18BFBDE8F88F821DC388AB
:10B41000B4F80EC0634501BF5389022BB0F8048015
:10B42000414518BFBDE8F88F02F10C0000F028FC80
:10B43000002863D0687A4246002875D02E72606971
:10B44000002808BFBDE8F88F8DF800700146ADF800
:10B45000028068468847BDE8F88FC37B8288012B4D
:10B4600018BFBDE8F88FA1F57F43FF3B09D0A16964
:10B470000420002908BFBDE8F88F01B0BDE8F04FF7
:10B48000084760492A802E720B684968C5F80A305F
:10B49000C5F80E10E98940F2F3134FF6FF7C01F274
:10B4A000F318994298BF0B46C91A2B8A03EB0C0973
:10B4B000634598BF9C46A3EB0C0C438AB5F80AA0E1
:10B4C000534524BFB5F80CA09A450AD3838A8B4212
:10B4D00028BF984505D3C08A604524BF81453846BA
:10B4E00000D230466872E189002918BFBDE8F88FA4
:10B4F00080B12E726069002801E016E033E008BFD9
:10B50000BDE8F88F8DF800700146ADF8022068465E
:10B510008847A0E761686868FFF7A8F800281CBFA3
:10B52000A1690029A9D196E70EE08088814292D1D5
:10B530006868FFF7EFF800281EBFA1690029884757
:10B540004FF6FF70288086E7287A002814BFA1688C
:10B5500061686868FFF78AF800281CBFA1690029A4
:10B560003FF479AF89E76868FFF7D4F800281CBF7B
:10B57000A169002981D16EE7828891427FF46BAF87
:10B58000E98940F2F31C4FF6FF7301F2F3186145AD
:10B5900098BF8C46A1EB0C0C298A01EB0309994258
:10B5A00098BF0B46C91A4389B5F80AA0534524BF72
:10B5B000B5F80CA09A450AD38389634528BF9845FE
:10B5C00005D3C089884224BF8145384600D2304621
:10B5D000687228B12E72606900283FF43CAF91E791
:10B5E000287A002814BFA16861686868FFF73EF8F0
:10B5F00000281CBFA16900297FF43FAF2BE70000A2
:10B6000088460020002400202DE9F0430188878827
:10B610004A4D97B0102912D011295CD0192975D044
:10B620001A291CBF17B0BDE8F083007A3946040917
:10B6300005F11800042C56D303F081FB55E0A868EF
:10B64000C0431690696816A803F09DFB16990BA8D5
:10B6500002F05DFC0BAC002694E80F008DE80F00B3
:10B660000FAC94E80F0004AC84E80F00DDE913018F
:10B67000159A0A92CDE908010098002888BFE9468A
:10B6800013D900BF09EB46005FF00004B0F8048056
:10B6900005EB84004146001D03F039FB641C1E2CA1
:10B6A000F6D30098761C8642ECD3142F07D317B03C
:10B6B000F021BDE8F04322A20420FDF7ADBD3946DC
:10B6C00005F1080003F03BFB17B03946281DBDE823
:10B6D000F04303F034BB17B0394605F10800BDE86C
:10B6E000F04303F014BB03F012FB05F114003946DC
:10B6F000032C02D303F023FB01E003F008FB05F168
:10B7000010003946022C0ED212E0FFE7017A002920
:10B710001CBF17B0BDE8F083407A3946C0F3C002C1
:10B7200005F1180022B117B0BDE8F04303F007BBE4
:10B7300017B0BDE8F04303F0EABA0000B8460020B5
:10B740002E2E5C2E2E5C2E2E5C2E2E5C2E2E5C2E33
:10B750002E5C636F6D706F6E656E74735C626C658A
:10B760005C636F6D6D6F6E5C626C655F636F6E6E58
:10B770005F73746174652E6300000000002804BFCD
:10B780000E207047F0B585B016460F4604461D469C
:10B79000406904AA1946FFF73DF800281CBF05B010
:10B7A000F0BDA5F57F40FF3819BF0498002805209B
:10B7B00005B008BFF0BD0078002802BF082005B022
:10B7C000F0BD3088F42882BF072005B0F0BD00200E
:10B7D0000090019002900390A088ADF80000012035
:10B7E0008DF80200CDE9026769462846AEDF05B054
:10B7F000F0BD0000F0B5DFF8ECC004008FB09CE8AD
:10B800000D100AAD85E80D1011BF00290E200FB0F4
:10B81000F0BD0868A06121460AA862DF00281CBFAD
:10B820000FB0F0BD207801258DF82600ADF824502A
:10B83000A21C09A92846A8DF00281CBF0FB0F0BD34
:10B84000002600960196029605960220039604961D
:10B8500006960796ADF8000020788DF802008DF866
:10B860000C509DF80D00F427ADF8047040F00C006A
:10B870008DF81150ADF806508DF80D008DF812506E
:10B88000608804F10C02694602F043FA00281CBFEC
:10B890000FB0F0BD00960196029605960320039620
:10B8A000049606960796ADF8000020788DF8020001
:10B8B0008DF80C509DF80D008DF81150ADF8047006
:10B8C00040F010008DF81250ADF806508DF80D00C4
:10B8D0008DF813506088221D694602F01AFA0FB0E5
:10B8E000F0BD0000502F0200002914BF002870474F
:10B8F0002DE9F04304460088022700268BB04FF064
:10B90000010810282CD0502863D057281CBF0BB03A
:10B91000BDE8F0830D46A18801AA6869FEF77AFFA9
:10B9200000281CBF0BB0BDE8F08301980178002906
:10B9300019BFA96900290BB0BDE8F08302960796EC
:10B940000496059606968DF808800395A188ADF8B3
:10B9500010100590A96902A888470BB0BDE8F083D4
:10B960000D460196A18801AA6869FEF753FF0AA84F
:10B97000CDE90260ADF80870ADF80A602989A088A9
:10B9800002AAADDF00281CBF0BB0BDE8F083A86998
:10B99000002804BF0BB0BDE8F083039800F070F9F5
:10B9A000002804BF0BB0BDE8F0830198002818BF41
:10B9B00080F80080049609960696079608968DF8FA
:10B9C00010700595A1880790ADF8181004A8A96912
:10B9D00032E00D4604F10609A18808AA6869FEF75D
:10B9E00019FF029604960596069607960395A08879
:10B9F000ADF8100008980590B9F800102A89914216
:10BA000004BFB9F80A20022A1AD0A88981421CBFB3
:10BA10000BB0BDE8F083A869002804BF0BB0BDE8F7
:10BA2000F0838DF8086009F10C000690B9F80A005F
:10BA3000ADF81C00A96902A888470BB0BDE8F083E7
:10BA4000002804BF0BB0BDE8F08309F10C0000F042
:10BA500017F90028089803BF067003208DF8080026
:10BA600080F8008018BF8DF80870A96900291CBFF4
:10BA700002A888470BB0BDE8F0830000F8B50D4D73
:10BA80000C460646ADF80040EB8A6A4631460A4845
:10BA9000FFF774FE082808BFF8BD1328F2D0052868
:10BAA00014BF0028F8BD054A40F2E561FDF7B4FB7C
:10BAB000F8BD0000C8220020FC22002080200200E7
:10BAC00070B5A52161F307021849194DA6B0098880
:10BAD0006E46090A61F30B2222F47041952201F5AA
:10BAE000804162F3174121F070440146687A902248
:10BAF00060F31B6401A80094FDF7C8FCC4F307447D
:10BB0000A01EC1B2701C02F0ECF88DF89400214622
:10BB10006846FFF7B3FF687A401CC0B2687210280D
:10BB200024BF0020687226B070BD0000F4220020FF
:10BB3000C822002070B590213948FDF7C0FC394873
:10BB400006F0C0FA384C002822D0207BA16A384A7F
:10BB50000B1836484AF6FF7C801AC00803220026DC
:10BB600042EA00456345284653D201F5143231A11B
:10BB700004F078FCA06A9022294900F5143003F003
:10BB800063FC10B32846BDE870402EA104F066BCEB
:10BB90002349244806F0FAFAC1B2214811F0010FF6
:10BBA0000CD14908002909DD10F8012B491E10F8B5
:10BBB000013B00F8023C00F8012CF5D11848FFF7D2
:10BBC0007FFF206A401C206270BD15499020002331
:10BBD00011F8012BFF2A18BF0123401EF8D1012BB9
:10BBE00004BF0F4848210FD110F8012B491E10F84F
:10BBF000013B00F8023C00F8012CF5D10848FFF7A2
:10BC00005FFF206A401C2062217BA06A0844A0627A
:10BC100070BD0FA1226A04F025FCA674266270BDD7
:10BC2000303D002074250020C8220020383B02004F
:10BC3000C83A02007265616420616464723A3078C7
:10BC40002578000072656164206572726F72000071
:10BC5000717565756520616E6420666C617368201E
:10BC600061726520656D7074792C2073656E642037
:10BC700066696E6973682C636E743A25640000000F
:10BC8000007800F00100704770B582B000281CBF3A
:10BC9000C169002920D0016A00291CBF416A00291E
:10BCA0001AD0017D11F0010F02BF6FF0040002B045
:10BCB00070BD05464FF019004FF000068DF80400E6
:10BCC0008DF800602B464FF0010201A94FF07E0075
:10BCD00001F0AEF820B119E002B04FF0FF3070BDB6
:10BCE000696A012088472B46012269466B2000F0D3
:10BCF000C6FE9DF8001041F020018DF8001028B913
:10BD00002B46012269466B2001F092F804002DD1E8
:10BD10000096687D2B4640008DF8000001220DF151
:10BD200001014C2000F0ABFE04001FD19DF8010082
:10BD3000297D20F08000490840EAC1108DF80100FB
:10BD4000297D20F00300C1F38101084320F03C006D
:10BD500040F00C008DF801002B46022269464B2072
:10BD600001F066F80446696A0A20884702B0204656
:10BD700070BD00002DE9F04F85B04FF0000C002B96
:10BD800019BFDC69002C4FF0FF3005B008BFBDE8DB
:10BD9000F08F1C7D14F0010F11D0C4F38104002C2E
:10BDA00008BF012410D0012C08BF02240CD0022CA3
:10BDB00008BF062408D0032C08BF082404D005B00F
:10BDC0006FF00400BDE8F08F4FF000068DF8000022
:10BDD0008A4617009946CDF808C0B0462546CDF8EA
:10BDE0000CC018BF0DF1080B4ED04B46012269461E
:10BDF0004D2001F01DF80646D9F824100A20884786
:10BE0000EEBB4B46224602A9042000F038FE060095
:10BE100002D06FF0010637E0A74238BFFDB204D36D
:10BE2000A7EB0800A042B8BFC5B26A1E002A17DD02
:10BE30000AEB0801491EABF1010015F0010F03D117
:10BE400010F8013F01F8013F4378521008D000BFBD
:10BE500010F802CF4B70437801F802CF521EF7D191
:10BE6000681E04D41BF8001040440AF800109DF826
:10BE7000000020448DF8000008EB040000E001E021
:10BE800000F0FF08B845B0D305B03046BDE8F08FEC
:10BE90002DE9FF474FF000041E001746884625464F
:10BEA0001ABF306A00284FF0FF3427D0002F88BF18
:10BEB000A7F1010922D93346012241464F2000F063
:10BEC000B7FF0446716A0A2088479CB933460122AD
:10BED00069464E2000F0ACFF0446716A0A2088478C
:10BEE00044B94D4506DA9DF8000008F10108401CF0
:10BEF0008DF80000681CC5B2BD42DCD304B02046FA
:10BF0000BDE8F0872DE9F0474FF0000845465FEAAD
:10BF100002090F460646AA461FBFD9F81800002896
:10BF20000168002908BF4FF0FF3800F0BF81C179D8
:10BF30004489E1B18088A04240F2B481D9F8180068
:10BF40000268115D01F0FC03611C89B20C46882B6C
:10BF500000F0768179DC482B00F0958176DC402B6F
:10BF600000F08A81442B00F0768100F091B9017ACB
:10BF7000402904BF397801EB410125D0C02904BF15
:10BF8000397801EB410121D0602904BF3978C1EB38
:10BF9000C10119D0E02906BF397801EB81018488FD
:10BFA00014D08088A9B2814288BF0546A8B28442D5
:10BFB00079D2D9F81810A21C888882420DD20A685A
:10BFC000135D802B09D103E04D00EAE78D00E8E71F
:10BFD00022445278002A08BF0446097A4A4690292A
:10BFE0007ED010DC80297FD006DC202978D0402943
:10BFF00018D0602941D07CE0842913D0882973D0DF
:10C000008C2924D075E0A02970D006DC942934D086
:10C0100098296BD09C2947D06BE0C02917D0E02924
:10C0200042D066E0A31D2146834241D80AF0FF00BA
:10C0300000EB400306EB830006F000FDA01D84B278
:10C040000AF1010000F0FF0A53E063E05BE004F155
:10C050000C0181422CD8A01D81B20AF0FF0000EB38
:10C06000400306EB830006F0E9FC04F10C0084B207
:10C070000AF1010000F0FF0A3BE004F10E018142E9
:10C0800016D8881F81B20AF0FF0000EB400306EBD0
:10C09000830006F0D3FC04F10E0084B20AF1010023
:10C0A00000F0FF0A25E028E004F11401814201D9E3
:10C0B00004461EE004F10E0081B20AF0FF0000EB1E
:10C0C000400306EB830006F0B9FC04F1140084B2CF
:10C0D0000AF1010000F0FF0A0BE001E004E005E0D6
:10C0E00004F1080084B204E0A01D01E004F10E0098
:10C0F00084B2A8B28442FFF45CAF87F800A0D9F8FC
:10C1000018004481D2E0802B08BF848843D0842B60
:10C110000CD0BDE0942B09D004DC8C2B06D0902BE6
:10C120007BD0B5E0982B79D09C2B34D1902B78D054
:10C1300010DC802B78D006DC202B72D0402B18D05E
:10C14000602B3ED0A4E0842B13D0882B6CD08C2B9A
:10C1500022D09DE0A02B69D006DC942B31D0982B07
:10C1600064D09C2B43D093E0C02B15D0E02B3ED065
:10C170008EE080888A1D824201D9044688E0E8B2B8
:10C1800000EB400206EB82004A4606F057FCA01D79
:10C1900084B2681CC5B27BE0808801F10C02824247
:10C1A000EBD8A01D81B2E8B200EB400206EB8200A2
:10C1B0004A4606F043FC04F10C0084B2681CC5B288
:10C1C00066E0808801F10E028242D6D804F10800B0
:10C1D00081B2E8B200EB400206EB82004A4606F06C
:10C1E0002DFC04F10E0084B2681CC5B250E08088BA
:10C1F00001F114028242C0D804F10E0081B2E8B20B
:10C2000000EB400206EB82004A4606F017FC04F100
:10C21000140084B2681CC5B23AE00BE015E000E0FF
:10C2200002E004F1080003E0A01D01E004F10E00AB
:10C2300084B22DE004F108018488A14228D826E0C8
:10C24000A11D8488A14223D821E004F10E01848835
:10C25000A1421DD81BE08488CB1CA34218D85418D7
:10C26000515C94F802C064784FEA0C4C4CEA04220A
:10C2700011439CB201610BE08488A14208D2525C58
:10C280000275481CD4E7611C8488A14200D88CB296
:10C290003878E9B2884205D0D9F818008088A042E1
:10C2A0003FF64CAE3D70D9F8180044814046BDE8D9
:10C2B000F0872DE9F0030027BC4664464AB1956932
:10C2C0002B6833B1EB793BB1EB89AC889C427ED9CA
:10C2D000E1E04FF0FF37DAE02E7AAB89202E04BF81
:10C2E0000C78E40007D0602E18BFA02E19D0E02EE5
:10C2F00018BFAB881AD0AD88A6B2AE4288BF2C4614
:10C30000A5B2AB4263D2966903F10208B588A8458D
:10C3100018D2D6F8008018F80390B9F1800F11D127
:10C3200009E00C78C4EBC4046400E4E70C7804EB87
:10C330008404A400DFE7984498F80180B8F1000F66
:10C3400008BF2B4696F80880B8F1900F2DD017DC67
:10C35000B8F1800F70D009DCB8F1200F25D0B8F10A
:10C36000400F6AD0B8F1600F38D088E0B8F1840F80
:10C3700063D0B8F1880F7BD0B8F18C0F7BD07EE012
:10C38000B8F1A00F41D009DCB8F1940F26D0B8F174
:10C39000980F3AD0B8F19C0F50D070E0B8F1C00FB0
:10C3A00069D0B8F1E00F49D069E003F10808A84569
:10C3B00048D836680CF0FF081E4400EBC808356802
:10C3C000C8F800507568C8F80450083300E05AE017
:10C3D0000CF1010C9BB20CF0FF0C50E003F10E08C5
:10C3E000A8452FD836680CF0FF081E4400EBC8089B
:10C3F0003568C8F8005075680E330CF1010CC8F8A8
:10C4000004509BB20CF0FF0C39E003F10E08A84574
:10C4100018D836680CF0FF081E4400EBC805D6F8A3
:10C420000080C5F8008076680E330CF1010C6E6058
:10C430009BB20CF0FF0C22E01AE01EE003F114089E
:10C44000A84501D92B461AE036680CF0FF08F5180C
:10C4500000EBC8082E68C8F800606D6814330CF152
:10C46000010CC8F804509BB20CF0FF0C07E002E08E
:10C470009B1D9BB203E00C3300E09B1D9BB2A5B259
:10C48000AB42FFF440AF81F800C09069C3813846E9
:10C49000BDE8F003704795692E68F45C5B1C04F0FE
:10C4A000FC089BB21C46B8F1880F7AD011DCB8F1B9
:10C4B000480F77D006DCB8F1400F74D0B8F1440FC4
:10C4C00072D010E0B8F1800F0DD0B8F1840F6CD0AD
:10C4D00009E0B8F1940F17D010DCB8F18C0F7AD0C6
:10C4E000B8F1900F10D0AB880C780CF0FF05AC427F
:10C4F000C9D09469A4889C42CDD8C4E7B8F1980FFC
:10C5000018BFB8F19C0FEED1B8F1900F32D017DC04
:10C51000B8F1800F77D009DCB8F1200F2AD0B8F13C
:10C52000400F70D0B8F1600F40D0DDE7B8F1840F54
:10C5300018BFB8F1880F66D0B8F18C0F65D0D3E77B
:10C54000B8F1A00F48D009DCB8F1940F2ED0B8F1A3
:10C55000980F41D0B8F19C0F06D0C5E7B8F1C00FD5
:10C5600053D0B8F1E00FBFD1AD8804F11408A8454D
:10C5700005D837E0AD8804F10808A84501D92B4655
:10C58000B2E70CF0FF08F41800EBC80526682E602F
:10C59000646808330CF1010C6C609BB20CF0FF0C6A
:10C5A000A2E735E064E05BE045E03EE0AD8804F101
:10C5B0000E08A845E3D80CF0FF08F41800EBC805F6
:10C5C00026682E6064680E330CF1010C6C609BB21F
:10C5D0000CF0FF0C88E721E0AD8804F10E08A845B7
:10C5E000E9D9CCE70CF0FF08F41800EBC805266881
:10C5F0002E60646814330CF1010C6C609BB20CF07B
:10C60000FF0C71E7FFE79B1D00E00C339BB26BE76B
:10C610009C1DAB889C423FF667AF2EE003F10C04F3
:10C62000AB889C423FF660AF27E09C1DAB889C42E4
:10C630003FF65AAF21E0AB8804F1030898453FF676
:10C6400053AF06EB0409345D99F8023099F8019074
:10C650001B0443EA092323432B611FFA88F343E7B2
:10C66000AB889C42BFF440AF335D2B75631CCDE7B4
:10C670005C1CAB889C423FF637AFA3B234E70000A6
:10C680002DE9F0474FF0000845465FEA02090F46E2
:10C690000646AA460AD0D9F81800016831B1C17916
:10C6A000848931B18088A04273D9C4E04FF0FF384B
:10C6B000BEE0017A802904BF397801EB410128D01E
:10C6C000C02904BF397801EB410125D0A02904BF5E
:10C6D0003978C1EBC1011CD0E02906BF397801EBE4
:10C6E0008101848818D000BF80881FFA8AF18142B6
:10C6F00088BF82461FFA8AF084424AD2D9F81810BD
:10C70000A21C888882420FD20A68135D802B0BD14D
:10C7100005E04FEA410AE7E74FEA810AE4E72244ED
:10C720005278002A08BF0446097A4A4690295BD00D
:10C7300010DC80291DD006DC202955D040296CD082
:10C7400060294DD06BE0842967D0882911D08C29CD
:10C7500020D064E0A0294AD006DC942940D0982952
:10C7600045D09C2928D05AE0C02913D0E02923D0F5
:10C7700055E0A31D214683423DD8E8B200EB4003BB
:10C7800006EB830006F080F9A01D84B2681CC5B2D8
:10C7900045E049E004F10C03214683422BD8E8B27E
:10C7A00000EB400306EB830006F06EF904F10C0089
:10C7B00084B2681CC5B232E004F1140181421AD877
:10C7C00004F1080081B2E8B200EB400306EB8300FD
:10C7D00006F05AF904F1140084B2681CC5B21EE0D8
:10C7E00004F10E0084B21AE004F1080016E004F12E
:10C7F0000E01814201D9044611E004F1080081B222
:10C80000E8B200EB400306EB830006F03DF904F1CB
:10C810000E0084B2681CC5B201E0A01D84B21FFAEC
:10C820008AF08442FFF46AAF3D70D9F81800848121
:10C830004046BDE8F087D9F818000268115D01F0A4
:10C84000FC03611C89B20C46882B1BD00EDC482BE4
:10C8500075D004DC402B73D0442B72D0C4E0802B05
:10C8600008BF848843D0842B6CD0BDE0942B6AD061
:10C8700004DC8C2B06D0902B7ED0B5E0982B18BF13
:10C880009C2B34D14A46902B61D010DC802B1DD0DC
:10C8900006DC202B5BD0402B74D0602B54D0A3E05F
:10C8A000842B6FD0882B11D08C2B21D09CE0A02B17
:10C8B00050D006DC942B47D0982B4BD09C2B29D002
:10C8C00092E0C02B14D0E02B24D08DE080888B1D0B
:10C8D000834201D9044687E0E8B200EB400306EB4F
:10C8E000830006F0D1F8A01D84B2681CC5B27BE0BD
:10C8F000808801F10C038342ECD8E8B200EB4003DE
:10C9000006EB830006F0C0F804F10C0084B2681C4A
:10C91000C5B269E0808801F114038342DAD804F1DA
:10C92000080081B2E8B200EB400306EB830006F09A
:10C93000ABF804F1140084B2681CC5B254E04EE0B8
:10C9400046E033E021E02BE004F10E001BE004F1AF
:10C95000080018E0808801F10E038342BAD804F180
:10C96000080081B2E8B200EB400306EB830006F05A
:10C970008BF804F10E0001E00CE003E084B2681CC7
:10C98000C5B231E0A01D84B22EE0A11D8488A14271
:10C990002AD828E004F108018488A14224D822E0A2
:10C9A00004F108018488A1421ED81CE08488CB1CB5
:10C9B000A34219D802EB010C515C9CF802409CF890
:10C9C00001C0240444EA0C2211439CB201610BE033
:10C9D0008488A14208D2525C0275481CD3E7611CCE
:10C9E0008488A14200D88CB23978E8B281423FF401
:10C9F0001BAFD9F818008088A0423FF61CAF13E7A0
:10CA000038B504004FF0000026D0A1690A681AB3B7
:10CA10004881A169234602228881A169C881A16950
:10CA20000861A16908752220694600F028F89DF880
:10CA30000110002801F007018DF80110BDF8001069
:10CA400018BF38BDA2699088884288BF9180A269CA
:10CA50009379022B09D102E04FF0FF3038BD193134
:10CA6000814202D8908819309080A069234682883C
:10CA7000016801B02420BDE83040AFF30080002BF6
:10CA800019BFD3F81CC0BCF1000F4FF0FF30704746
:10CA9000002A04BF6FF00B00704730B49C78012C63
:10CAA00008BF40F080005C7813460A4601462046E5
:10CAB00030BC6047F0B583B004001CBFE0690028BB
:10CAC00009D0206A00281CBF606A002803D0A07823
:10CAD000012804D00DE003B04FF0FF30F0BD234635
:10CAE000012201A97F20FFF7CAFF00281CBF03B065
:10CAF000F0BD00270226277035462346012219463D
:10CB00000020FFF7BCFF6A1ED5B202D32178D829D6
:10CB1000F3D1002807BF2078D8286FF0020003B0B7
:10CB200018BFF0BD4FF0FF00E0704FF0B6008DF879
:10CB30000000002C1ABF606A00284FF0FF3527D094
:10CB400023464FF0010269464FF07E0000F070F975
:10CB50000546616A01208847D5B9A078012807D128
:10CB60002346012269467F20FFF789FF05000FD188
:10CB7000E67108206071102121710321A171E67313
:10CB8000607314202073A7736068A060E068206160
:10CB900003B02846F0BD38B50C001CBFE169002980
:10CBA0001AD0216A00291CBF616A002914D0217D96
:10CBB00011F0010F08BF6FF004055AD0014623465B
:10CBC0004FF001024FF04D0000F032F90546616A66
:10CBD0000A2088471DB14CE04FF0FF3549E023465D
:10CBE000012269464420FFF74AFF05000DD1207D50
:10CBF000234600098DF8000001226946442000F018
:10CC000017F90546616A0A20884795BB207D2346AF
:10CC100020F00200207500200090607D012240007D
:10CC20008DF800000DF101014C20FFF728FF0500F1
:10CC30001FD19DF80100217D20F08000490840EAC5
:10CC4000C1108DF80100217D20F00300C1F38101A6
:10CC5000084320F03C0040F00C008DF80100234612
:10CC6000022269464B2000F0E3F80546616A0A207B
:10CC70008847284638BDF8B50F464FF0000114002C
:10CC80008DF800104FF0470600F0FE0504BF4FF08E
:10CC9000FF30F8BD1346012269463046FFF7EFFE2C
:10CCA000002818BFF8BD3DB1012F9DF800000CBF52
:10CCB0002843A8438DF800002346012269463046E8
:10CCC00000F0B6F8002818BFF8BD234601226946D7
:10CCD0003046FFF7D4FE002818BFF8BD9DF80010BD
:10CCE000A36901F01002DA71A36901F0E00201F01A
:10CCF00002011A72A2699171F8BD08B5B0218DF8D0
:10CD000000104FF07E0C002804BF4FF0FF3008BD2C
:10CD1000034601226946604600F08AF808BD70B5F6
:10CD200082B0040019BF606A00284FF0FF3002B0E3
:10CD300008BF70BD4FF000008DF800002179A1F10F
:10CD40001002022A82BF6FF0030002B070BD227A87
:10CD5000914243D06E468DF80400254623460122B9
:10CD600031464020FFF78BFE88B9287912289DF8BC
:10CD700000000FD010F0800F1DD020F080008DF843
:10CD800000002B4601223146402000F051F80500FA
:10CD900011D01FE040F080008DF800002B460122EA
:10CDA0003146402000F044F80028F0D102222B4602
:10CDB00001A95820E9E701222346211D7E2000F029
:10CDC00037F80546207A102802D1616A0520884785
:10CDD0002179217228001CBF02B070BD0025207B84
:10CDE000142818BF152807D0172818BF6FF003059F
:10CDF00002D002B0284670BD217C8842F9D023467B
:10CE0000012204F10C017E2000F012F80546207C7E
:10CE1000142804BF616A512006D0172801BF207B67
:10CE20001528616A0A2000D18847207B2074E0E73A
:10CE30002DE9F0474FF000051C0006469046894654
:10CE40002F461ABFD4F820C0BCF1000F4FF0FF35B9
:10CE50002AD0B8F1000F08BF6FF00B0524D0A078DE
:10CE6000012808BF06F07F06207A11281CBF207C0D
:10CE700015281CD0B8F1000F16D900BFD4F820C077
:10CE800009EB0702607801233146E0470546701C34
:10CE9000C6B2616A01208847781CC7B2B845EDD890
:10CEA000002D18BF6FF001052846BDE8F087134636
:10CEB0000A4660783146E0470546616A01208847A6
:10CEC000EEE738B5040019BF606A00284FF0FF3064
:10CED00038BD4FF00005694623464FF002024FF07F
:10CEE00040000095FFF7CBFD10B100284FD133E093
:10CEF00060790C2888BF6FF00300F6D8617A884209
:10CF000008D09DF8001000F00F0021F00F01084339
:10CF10008DF80000E079072826D8E17A884209D008
:10CF20009DF80010702221F0700102EA0010084301
:10CF30008DF80000A0790C2888BF6FF0030026D878
:10CF4000A17A884208D09DF8011000F00F0021F06E
:10CF50000F0108438DF80100234601226946402055
:10CF6000FFF766FF98B902E06FF0030038BD617902
:10CF70006172E179E172234601220DF10101412044
:10CF8000FFF756FF002804BFA179A17202D0002844
:10CF900018BF38BD69462346022242200095FFF79C
:10CFA0006EFD10B1002848D130E0607B0D2888BFAD
:10CFB0006FF00300F6D8617C884208D09DF800101D
:10CFC00000F00F0021F00F0108438DF80000E07B16
:10CFD0000228C9D89DF80010302221F0300102EA61
:10CFE000001008438DF80000A07B042888BF6FF074
:10CFF000030022D8A17C884208D09DF8011000F0DF
:10D00000070021F0070108438DF8010023460122A3
:10D0100069464220FFF70CFF78B9617B6174E17BC0
:10D02000E174234601220DF101014320FFF700FFC7
:10D03000002804BFA17BA17402D0002818BF38BD0E
:10D040002046FFF76CFE002818BF38BD23468DF838
:10D050000050012269460220FFF711FD9DF80010E3
:10D06000C1F343018DF80010012904BF6FF00500E2
:10D0700038BD022904BF6FF0060038BD032904BF84
:10D080006FF0070038BD072908BF6FF0080038BDF2
:10D0900038B504004FF0B6008DF800001ABF606A82
:10D0A00000284FF0FF3529D023464FF00102694692
:10D0B0004FF07E00FFF7BCFE0546616A01208847FD
:10D0C000E5B9A078012807D12346012269467F20CF
:10D0D000FFF7D5FC050011D10220E0710821617134
:10D0E000102222710322A271E07361731420207355
:10D0F0000020A0736068A060E0682061284638BD09
:10D100002DE9F00300291CBF4A68002A61D08A6813
:10D11000002A1CBFCA68002A5BD04FF0000C002810
:10D1200000F0D6800278D208027090F9013042EA0D
:10D1300043168278D308837090F9032043EA42159E
:10D1400002795208027190F9053042EAC3148279DB
:10D1500092088271C07916F5805F42EA80105F4ABA
:10D160003DD0031E38D0CF8BBF0397FBF3F3A3F55D
:10D17000804313FB03F74FEAE77991F91D8007EB32
:10D180005967FF1108FB07F791F81C804FEAC81890
:10D1900013FB08F33B44DF1703EBD7534FF480171F
:10D1A00007EB632391F91270A0377B43DF1703EB82
:10D1B00017531B137343DE1703EBD64391F910602B
:10D1C00043F34F3303EBC603DE1703EB16731B1158
:10D1D00006E04FF0FF3C7BE0CB8B002BC3D1134626
:10D1E0008B8615F5805F35D0031E30D0CE8BB6030D
:10D1F000B6FBF3F3A3F5804313FB03F64FEAE6789F
:10D2000091F91D7006EB5866F61177430E7FF60113
:10D2100013FB0673DE1703EBD6535E1291F913303E
:10D2200006F58016A0337343DE1703EB16531B136A
:10D230006B43DD1703EBD54391F9115043F34F33A3
:10D2400003EBC503DD1703EB15731B1103E0CB8B59
:10D25000002BCBD11346CB8614F5804F1CBFB1F900
:10D260001630002B33D08D8A002D1EBF0028CE8BA8
:10D27000002E2CD0B2B20E8BA0EB020216FB02F2F3
:10D280004FEAE27602EB967205FB00F0B1F91A6004
:10D290004FEA400000F50040A4EB06044FEAE075B9
:10D2A0004FEAC43400EB1540A4EBA20203EB20408C
:10D2B00092FBF0F0B0F5004FA8BF47F6FF7002DA1E
:10D2C00010F5004F08DDC21700EB127002110A873B
:10D2D000BDE8F003604670470148F4E70080FFFFB7
:10D2E0000180FFFF30B4144608469C46214630BCFE
:10D2F000014B6246FEF73EBDD440002030B41446D8
:10D3000008469C46214630BC014B6246FEF7C0BD34
:10D31000D440002030B41546002B1CBFD3F804C005
:10D32000BCF1000F12D09A68002A1EBFDA68002AEA
:10D3300000290BD09A78012A18BF40F080005C7851
:10D340000A4601462B46204630BC604730BC4FF0B1
:10D35000FF30704770B586B04FF0000605008DF8BD
:10D3600014601CBF6868002812D0A86800281CBF81
:10D37000E86800280CD04FF001048DF800602B46BF
:10D38000224669464FF04B00FFF7C4FF18B112E088
:10D390004FF0FF3423E09DF800002B4664F30000BB
:10D3A0008DF80000012269464B2000F046F9002864
:10D3B00008BF85F821400446E9680320884774B90E
:10D3C0002B46012205A94020FFF7A4FF040006D147
:10D3D0009DF81400322818BF6FF0010402D006B087
:10D3E000204670BD287000960196029603962B4643
:10D3F000022269465D200496FFF78CFF002844D185
:10D400002B46042201A96220FFF784FF00283CD1AB
:10D410002B460A2202A96820FFF77CFFA8BB9DF8D3
:10D42000001029749DF8011069749DF80610A97404
:10D430009DF80710E9749DF80B109DF80A2042EA48
:10D440000121A9829DF809109DF8082042EA0121D6
:10D45000E9829DF80F109DF80E2042EA01212983F0
:10D460009DF805109DF8042042EA012169839DF88A
:10D47000111029779DF8101069779DF80D109DF80F
:10D480000C20490642EA5141E9830446A7E738B532
:10D49000040094F822501CBF606800287DD0A0686A
:10D4A00000281CBFE06800287ED02DB3012D3BD0A2
:10D4B000032D51D0042D1CBF6FF0020038BD002594
:10D4C0008DF800502346012269464B20FFF722FFCA
:10D4D000002818BF38BD9DF80000234665F3000002
:10D4E0008DF80000012269464B2000F0A6F80028C4
:10D4F00008BF84F8215038BD204605F0EDF900281A
:10D5000018BF38BD606800281FBFA0680028E06809
:10D51000002849D023464FF0010269464FF04C00E5
:10D52000FFF7F8FE88B338BD204605F0D5F900288E
:10D5300018BF38BD606800281FBFA0680028E068D9
:10D54000002831D023464FF0010269464FF04C00CD
:10D55000FFF7E0FEC8B138BD204605F0BDF9002850
:10D5600018BF38BD606800281FBFA0680028E068A9
:10D57000002819D023464FF0010269464FF04C00B5
:10D58000FFF7C8FE002818BF38BD9DF800002346ED
:10D5900065F342008DF8000000E005E001226946D5
:10D5A0004C2000F04AF838BD4FF0FF3038BD00285D
:10D5B0001CBF416800291ED0816800291CBFC168BA
:10D5C000002918D090F826204FF00001012A15D02C
:10D5D000022A1DD0032A25D0042A1CBF6FF00200A6
:10D5E000704780F82310072180F824101A2180F852
:10D5F000251005F057B84FF0FF30704780F8231022
:10D60000012180F82410022180F8251005F04AB885
:10D6100080F82310042180F824100E2180F82510B2
:10D6200005F040B8052180F82310172180F8241058
:10D63000522180F8251005F035B830B40446002B8F
:10D640001CBF5868002811D0D3F808C0BCF1000FE7
:10D650001CBFD868002809D0002918BF002A05D0AF
:10D66000587813460A46214630BC604730BC4FF01C
:10D67000FF3070470149085C70470000102F02001E
:10D6800008490A5C4FF0A040D0F80415012303FAC2
:10D6900002F222EA0103C0F808351140C0F80C1567
:10D6A000704700000C2F020004490122085C4FF073
:10D6B000A04102FA00F0C1F8080570470C2F0200E3
:10D6C00004490122085C4FF0A04102FA00F0C1F8C1
:10D6D0000C0570470C2F02000749085C4FF0A04171
:10D6E000D1F8041521FA00F010F0010018BF012054
:10D6F00080F00100704700000C2F0200074B002053
:10D700004FF0010C4FF0A042195C0CFA01F1C2F885
:10D710000815401C0428F7D3704700000C2F0200A6
:10D72000074B00204FF0A0424FF0010C195C0CFA9F
:10D7300001F1C2F80C15401C0428F7D37047000013
:10D740000C2F020001464FF0FF300D2904BF0020CE
:10D7500070470E2904BF012070470F2904BF022023
:10D760007047102908BF0320704710B5002000F053
:10D77000F1F900281CBF062810BD4FF0010000F091
:10D78000E9F9002814BF0628002010BD2DE9F04754
:10D790000D468146FFF7D6FF0446042828BFBDE8A2
:10D7A000F0871E48DFF878801E4EA8F10C073DB3C5
:10D7B000012D11D0022D18BFBDE8F08704EB440005
:10D7C00030444578002D1ABFB9680029BDE8F087BC
:10D7D0002846BDE8F047084704EB4401755C0E4459
:10D7E000717849B1104A4FF480418068FCF73EFFE0
:10D7F000002808BF87F80390B07808F80400E1E734
:10D800008068FCF787FF04EB4401314418F80400FA
:10D810008D78A842D6D0BDE8F0870000142F020012
:10D8200090230020584600208723002030B4002396
:10D83000042813D2104C00EB400C012A12D000BF78
:10D840000D4D00EB40002844002908BF827006D02F
:10D8500001290DD0022908BF427000D0072330BC37
:10D8600018467047012912BF00220E30C2B2E7D11C
:10D8700004F80C20F3E70000584600200549024652
:10D880000020097911F0010F08BF7047104600F021
:10D8900003B80000842300202DE9F041AB4E04467C
:10D8A00000277078B84698B186F80180B0780028D3
:10D8B00018BF00250AD002E0022D08BF0325284624
:10D8C000FFF7F2FE6D1C042DF6D301E0FFF716FF03
:10D8D000182C80F02281DFE804F00C2525506071BF
:10D8E00087F294A194A1AEB1B1B1B1B1DFF6F0EF7E
:10D8F000AEAEB078002818BF002503D109E0022D94
:10D9000008BF03252846FFF7CFFE6D1C042DF6D374
:10D9100001E0FFF7F3FE8E480068FCF7FBFE0746C8
:10D9200000F0FAB80020FFF7D7FE00284FF0000003
:10D9300008D0FFF7B9FE022C0CBF4FF4E1604FF4A2
:10D940007A6006E0FFF7BCFE022C14BF4FF4C870EB
:10D95000C8203470410CC00310F57A7041F1000109
:10D960004FF4FA620023FBF74DFD01467848002290
:10D970000068FCF77BFE0746CFE00020FFF7ACFE17
:10D9800000284FF0000004D0FFF78EFE4FF44870DF
:10D99000DFE7FFF795FEC820DBE70020FFF79CFEDE
:10D9A00000284FF0000004D0FFF77EFE4FF47A60AD
:10D9B000CFE7FFF785FE4FF4C870CAE70020FFF7F6
:10D9C0008BFE00284FF0000002D0FFF76DFE01E053
:10D9D000FFF776FE5E48347040F6CD4100220068C5
:10D9E000FCF744FE074698E00020FFF749FE584840
:10D9F0003470002240F266610068FCF737FE07468B
:10DA00008BE001207070FFF73BFE5148002240F28E
:10DA100066610068FCF72AFE07467EE00120707010
:10DA2000FFF72EFE4A4800224FF400510068FCF731
:10DA30001DFE074671E0FFF773FE6DE0444D686818
:10DA4000FCF768FE0746D4F1110000D02FB1022088
:10DA5000FFF72AFE86F802805FE0012816D980B21F
:10DA6000C8214843C117C90341EA5041C00310F51A
:10DA70007A7041F100014FF4FA620023FBF7C2FC17
:10DA8000014600226868FCF7F1FD07460220FFF717
:10DA900017FE0120B07040E0B078002818BF0025C4
:10DAA00003D10DE0022D08BF03252846FFF7FCFD3A
:10DAB0006D1C042DF6D32FE032E018E003E014E0F3
:10DAC000FFF71CFE28E0B078002818BF002503D11E
:10DAD00009E0022D08BF03252846FFF7E5FD6D1C70
:10DAE000042DF6D301E0FFF709FE002012E0B07824
:10DAF000002818BF002503D109E0022D08BF032527
:10DB00002846FFF7D1FD6D1C042DF6D301E0FFF789
:10DB1000F5FD0120FFF7D4FD34703846BDE8F081F3
:10DB2000B078002818BF002503D109E0022D08BFF6
:10DB300003252846FFF7B8FD6D1C042DF6D301E040
:10DB4000FFF7DCFD0020FFF7BBFDE2E784230020A8
:10DB5000142F020010B5042824BF062010BDFFF7C3
:10DB600089FD4FF0A04101EB8000D0F8001721F4AF
:10DB70004031C0F80017D0F8001741F44031C0F828
:10DB80000017002010BD00002DE9F74F82B081463C
:10DB900000F102080120019000208DF800000D46E0
:10DBA0006846FCF7EDFD414C414E4FF0020A6068BB
:10DBB0002860D4E90101401A3168081A401C8045E8
:10DBC00088BF4FF0030B56D9012104F21C4001F02D
:10DBD000D4F8002504F5836001F0C2F804F2144083
:10DBE00001F0BEF8A06831680EE000BF02F0030348
:10DBF000012B04BFC2F38312921C04D0022B08BF76
:10DC00000AEB925200D1104400EA010204EB8202B6
:10DC1000D26812F0040FE9D100EA0102401C04EBC3
:10DC200082020140D26804EB8101471CC96802F0FE
:10DC30000300012807D0022809D10BEB92500D0CEC
:10DC400007EB900703E0C2F383100D0C074404F2C6
:10DC5000144001F07FF8002818BFA760294604F29D
:10DC60001C4001F08AF8D4E90101411A3068401AD9
:10DC7000401C8045A8D80498002819BF052069F3E6
:10DC80008910062069F39F5061683268114004EBE7
:10DC90008101C8606068404460609DF80000FCF746
:10DCA0009DFD019805B0BDE8F08F0000E84A002016
:10DCB0007424002070B50D4604460A2904BF0D21C6
:10DCC000FFF7F8FFA0682168421CA2600D54D4E958
:10DCD0000101814238BF70BD2046BDE8704001F0AF
:10DCE00031BC02784B1E002B11DD11F0010F02D167
:10DCF00010F8011F4A40C3F3470141B14378491E60
:10DD00005A4010F8023F5A4011F0FF01F6D1104678
:10DD100070472DE9F0430746887891B016460C46C7
:10DD2000002808BF01208DF83E002088ADF83C0097
:10DD300000250095607C694604F011FDA07CE84652
:10DD40000DF1010104F00BFDE07B00289DF80200BD
:10DD500014BF40F0080120F008018DF80210207C6B
:10DD6000002814BF41F0100121F010018DF80210BD
:10DD7000207B002814BF41F0010121F001018DF842
:10DD80000210207D002814BF0220012060F3420110
:10DD90008DF8021002950395049505950695079553
:10DDA0000895607B10F0300F1AD00E95E07C0DF1D5
:10DDB00038090DF1390104F0D2FC9DF83800CDF896
:10DDC0001C9020F00F00401C20F0F00010308DF867
:10DDD00038009DF83A0020F00600801C8DF83A00CB
:10DDE000607B8DF80800A07B8DF809000B950C95E1
:10DDF0000FA80D95CDE90908A088ADF83000A068FE
:10DE000020B1E088ADF82C00A0680D90A069002832
:10DE100040D001950088ADF81000A06901AD01A9BE
:10DE20004088ADF81200A069406806950390A0698B
:10DE3000007B04F094FCA069691C407B04F08FFC1B
:10DE4000A069807A00289DF806000CBF20F0080128
:10DE500040F008018DF80610A069C07A002814BFB0
:10DE600041F0100021F010008DF80600A169097A38
:10DE7000002914BF40F0010020F001008DF80600D9
:10DE8000A169897B002914BF0221012161F34200AD
:10DE90008DF80600E069002818BF0590334609AAEE
:10DEA00002A93846AADF11B0BDE8F08370B5114968
:10DEB000012280B1012818BF70BD8A70012501F1CF
:10DEC00010042168002908BF70BD086820604968F7
:10DED00028468847F5E74A70002501F108042168C3
:10DEE000002908BF70BD0868206049682846884737
:10DEF000F5E7000034470020D0E90220D1E90231E3
:10DF00009A1A71EB00002CBF01200020704773B5F6
:10DF10008CB00646002000900D9800281CBF0024FD
:10DF20006D460ED021460DA800F0FDFE30B10098E0
:10DF300005EB400084800098401C0090641C142C69
:10DF4000F0D39DE80F000FC604AC94E80F000FC695
:10DF5000DDE908010A9AB260C6E900010EB070BDA1
:10DF600002A24FF49571FBF757B900002E2E5C2EDC
:10DF70002E5C2E2E5C6D61696E2E63004FF4803234
:10DF800002FA01F10268C2F848130068C0F80813E9
:10DF900070474FF4A07202EB8101026889B281B030
:10DFA00053580020002B04BF01B070475050505808
:10DFB0000090012001B0704778B405684FF4803CB0
:10DFC0004FF4A0740CFA01FC04EB8104A4B222F01B
:10DFD0007F42C5F808C30568C5F848C30568002630
:10DFE0002E512C590094046804EB8101C1F840259E
:10DFF0000168C1F844C3002B1CBF0068C0F804C30B
:10E0000078BC70470068D0F80405704710B54379B4
:10E01000DFF894C04CF8232042790CF1040303EBA1
:10E02000C202DFF88CC01479204AA2EB0C024FEA3E
:10E03000D20C44B10220082440EA0C401DA102F099
:10E040000DFA204610BD02680C88C2F8084590F908
:10E0500004208978002A4FEA4111B8BF02F00F026C
:10E0600002F1E022B4BF82F8141D82F8001490F986
:10E070000410012201F01F0402FA04F44909890086
:10E0800001F1E021C1F800414179002403EBC10115
:10E090000A71417943F83100032040EA0C400EA197
:10E0A00002F0DCF9204610BD4C240020183B020091
:10E0B000C83A020052544320696E7374616E6365FE
:10E0C00020616C726561647920696E697469616C44
:10E0D000697A65642E0000005254433A20696E69E3
:10E0E0007469616C697A65642E00000090F904001F
:10E0F000012200F01F0102FA01F14009800000F145
:10E10000E020C0F80012704703680222C3F84423DD
:10E1100000291CBF0068C0F804237047016881B063
:10E12000D1F804210020002A04BF01B07047C1F8D3
:10E130000401D1F804010090012001B0704700688B
:10E1400001210160704700680121416070470000B3
:10E150002DE9F84F06460D464FF4803000FA05F4DD
:10E160004FF4A07000EB850087B23068994622F02A
:10E170007F48C0F848433068C0F808433168D1F898
:10E18000040501EB8502D2F84015C2F8400532685B
:10E190004FF0000A42F807A0D259081A20F07F4039
:10E1A000DFF8A8B00092012808D14BF001018002ED
:10E1B0008847306840F807A0C05900903068D0F810
:10E1C0000475C0F84443A8EB070121F07F41306893
:10E1D000012913D000EB8500C0F840853068D0F8E5
:10E1E00004156FF07F43A8EB0102521E22F07F421C
:10E1F000A3EB090393421DD3FAB910E000EB8500AD
:10E2000008F10101C0F840154BF001014FF48060A6
:10E2100088473068D0F80405B8420BD10DE000EB18
:10E22000850008F10102C0F840253068D0F80405E7
:10E23000884202D00D20BDE8F88F3068C0F8444312
:10E240003068C0F804430020BDE8F88F802F02003A
:10E250002DE9F843154C0F4680461D461646694683
:10E26000206800F026FD002804BF0420BDE8F883E4
:10E27000002141600161816101210171C0F80080CC
:10E28000390B4661C0E902516946206800F034FD4F
:10E29000074C201D00F06BFD002804BF607C0028A7
:10E2A00001D103F0A9FF0020BDE8F8835831020036
:10E2B0003C490020014643680D480E4A801AC008B8
:10E2C000032242EA004013B10B4902F0C7B80A78B2
:10E2D000012A07D0022A18BF70478B680A6907A174
:10E2E00002F0C7B88B680A6912A102F0C2B8000038
:10E2F000383B0200C83A0200E03202002D2D3E20D9
:10E300004576656E742072656365697665643A204A
:10E31000657261736564202564207061676520669D
:10E32000726F6D2061646472657373203078257834
:10E330002E0000002D2D3E204576656E74207265FE
:10E340006365697665643A2077726F746520256429
:10E3500020627974657320617420616464726573EE
:10E360007320307825782E000D4A4B88B2F816C0FD
:10E37000634502BF0B88A3F5206CBCF1770C02D17A
:10E380008988C91E11830388428806480649401AB5
:10E39000C008042141EA004004A102F06AB800006C
:10E3A000C8220020383B0200C83A020041545420E1
:10E3B0004D54552065786368616E676520636F6DA5
:10E3C000706C657465642E2063656E7472616C2078
:10E3D00030782578207065726970686572616C208C
:10E3E000307825780000000010B5094941600948DF
:10E3F00000F0BDFC50B902F0F3FE06491C238C224C
:10E40000087405488C39006800F03EFC002010BDFF
:10E410005C3102003C490020583102000248007A79
:10E42000002818BF012070473C49002070470000B9
:10E43000B0B04FF48041002002F0DAF820B1FE4A7B
:10E440004FF44271FAF7E8FE01F0BAFEFCF7DEF88D
:10E4500020B1F94A40F66401FAF7DEFEF7480024DD
:10E460000C214FF0A04AC0F80017F5480326C0F869
:10E4700000670125A804CAF80805F248C0F800673B
:10E480008002CAF8080502F0C7FA20B1EA4A40F251
:10E490001531FAF7C1FE02F08FFD20B1E64A40F2D5
:10E4A000C511FAF7B9FE69460120009402F0EEFAB0
:10E4B00020B1E14A40F2CB11FAF7AEFE684602F015
:10E4C0007FFB20B1DC4A40F2CF11FAF7A5FE9DF8A0
:10E4D0000800DDA120F00F00401C20F0F0001030FB
:10E4E0008DF80800062202A87CDF20B1D24A40F253
:10E4F0000711FAF791FE00942020ADF800002420C7
:10E500000194ADF802000227ADF804704FF4C87012
:10E51000ADF8060068467ADF20B1C74A40F2111113
:10E52000FAF77AFECA49CB4800F0A6FC20B1C24AED
:10E530004FF4F471FAF770FEF721C64800F090FC32
:10E5400020B1BD4A40F2EB11FAF766FEC2480190D5
:10E5500001A9C24800F007FE20B1B74A40F60C01FD
:10E56000FAF75AFEBE4800906946BE48FDF742F9E8
:10E5700020B1B14A40F61401FAF74EFE04208DF89E
:10E58000AC00AC216846FAF79AFF8DF800708DF860
:10E59000024006208DF803002BA80190B248149089
:10E5A000ADF84C504FF4C860CDE922048DF87C5092
:10E5B000AE4829906946AE48FCF781FB20B19E4ADF
:10E5C00040F22D21FAF728FE0121A948FCF774FB3F
:10E5D000A7489DF9AC2090F85410012077DF20B1B6
:10E5E000954A40F23121FAF717FE4FF4A03001901E
:10E5F0004FF4F020029000949E48059003949E48AA
:10E6000004948DF80C600690ADF80E408DF8104023
:10E610006846FCF76BFD20B1874A4FF4A071FAF70A
:10E62000FBFD03219248FCF719FC95489549DFF85A
:10E630004C82401AC00888F8065046EA004040F66E
:10E640001613914A91A1269001F013FF00F078FE75
:10E65000964803F08FFD964A01219648FBF7C6FFC6
:10E66000DFF8549200224FF47021D9F80400FBF730
:10E67000FDFFD9E91C01D9F87820CDE92C012E92B3
:10E680002CA88E4903F052FA10F0FF0004D08CA29F
:10E6900040F63211FAF7C0FD8D4803F009FA10F088
:10E6A000FF0004D086A240F63411FAF7B5FD03F05E
:10E6B0002FFA8148D0E91912C06ECDE900120290FC
:10E6C0008449854802F0F2FE20B15B4A40F64201DF
:10E6D000FAF7A2FD6946002002F098FE20B1564AE2
:10E6E00040F64401FAF798FD04F0BEFAA8F81400C9
:10E6F00002F0CCFF4FF48020CAF80C0501F070FD49
:10E700000028FBD15D4EF079012802D0307980B12C
:10E710001BE0307A20B901200104CAF808153072D4
:10E72000B07A01280FD16D4803F0DCF80020B072F8
:10E7300009E0307A20B901200104CAF808153072C6
:10E74000B07A0128EFD002F07BF93079012821D08E
:10E750000028D3D102F09AFF604803F0C3F837488D
:10E760000221C0F800175E48C0F80017001FC0F86B
:10E7700000175C48C0F8001731480321C0F80017A3
:10E780003048C0F800178002CAF808058000CAF8AF
:10E790000C05B3E7B07C012808BFFDF7CBF9707812
:10E7A000002800F0E081F07A01280DD10020F072FD
:10E7B00004464FF4143500BF05EB043000F08CFD27
:10E7C00010B9641C0B2CF7DBB07A50BB3A4800251B
:10E7D0000124D0E91512006ECDE9001203908DF8E6
:10E7E00003500C208DF802000E208DF80100E00689
:10E7F00002908DF800402B463B4A69463B4800F0AA
:10E8000057FD20B10C4A40F2D221FAF705FD3948F4
:10E81000374901623849C1613849416245708470A5
:10E82000B472307A012806D1DAF80405000C10F031
:10E83000010F00D064E09BE08020020054000050F3
:10E840004800005040000050456172506F74000055
:10E8500069E30100C03D0020550A0200D03D0020C0
:10E86000891B0200FC220020E42200201520020067
:10E87000DC3D00209120020061DF0100C822002061
:10E88000383B0200C83A02009C2E020025732C255A
:10E89000642C626C6520696E69742066696E6973A8
:10E8A000682C7665723A307830320000742500208A
:10E8B00065A50100942E0200902E0200212E020078
:10E8C0002E2E5C2E2E5C2E2E5C6D61696E2E6300EA
:10E8D000D8220020F5240200982E0200BC2E02004F
:10E8E0001400005050000050BD270200B82E020056
:10E8F00025EC0100D4400020C5EB010091F201009D
:10E900004FF48030CAF80C059F4C642544F0010197
:10E910004FF47A4088476D1EF8D19C48FEF7B8FB4B
:10E920005FF0C80544F001014FF47A4088476D1E3E
:10E93000F8D19648FEF7BEF89448082405214471A2
:10E94000817112210171C57114210173FEF7B9FAA9
:10E950008E4802214473817315210173C573FEF73C
:10E96000B0FA8A48FBF7D0FC8848FBF775FD357292
:10E97000854D4E2445F001014FF47A408847641ECE
:10E98000F8D1824CC82104F22C4081800820707399
:10E99000B073F0732046FEF733F810F0FF0F7FF4EA
:10E9A000ADAE22467A4904F23450FDF782FC22468D
:10E9B000784904F2BC40FDF763FE2246764904F232
:10E9C0004440FDF79FFA75488078E8B3744F754E60
:10E9D000002504F2345B04F2BC4804F2444900BF51
:10E9E00005EB450005EBC50239F8201027F8121099
:10E9F00009EB800107EB42044B8863808988A18082
:10EA000038F8201008EB8000E1804188218180885F
:10EA100060810BEBC5006349FEF772FBB08EA081ED
:10EA2000F08EE081308F2082681CC5B2082DD7D3CC
:10EA3000A52262F307005C4A59491288120A62F360
:10EA40000B2020F4704000E025E0952200F5804086
:10EA5000524D62F3174020F07044687A902260F3C0
:10EA60001B646E4601A80094FAF710FDC4F3074436
:10EA7000A01EC1B2701CFFF734F98DF89400214636
:10EA80006846FCF7FBFF687A401CC0B26872102829
:10EA900024BF002068724148407C01287FF42EAEDC
:10EAA00090214248FAF70BFDDFF804B13D4EABF17F
:10EAB00078070025A7F17808A7F50F6905EB450051
:10EAC00005EBC50238F8201029F8121008EB800178
:10EAD00009EB42044B8863808988A18037F82010B5
