:020000040001F9
:10900000E0560020E1930100E9930100EB93010099
:10901000ED930100EF930100F193010000000000C7
:10902000000000000000000000000000F3930100B9
:10903000F593010000000000F7930100F99301008F
:1090400025990100FB930100FB930100FB930100B4
:10905000DD9A01000000000081980100959901004F
:10906000FB930100FB930100FB9301007599010044
:10907000FB930100FB930100FB930100FB930100B4
:109080009D9C010085990100000000000000000087
:10909000FB930100FB930100219B0100FB93010066
:1090A000FB930100FB9301000000000000000000A2
:1090B00000000000000000000000000000000000B0
:1090C00000000000000000000000000000000000A0
:1090D0000000000000000000000000000000000090
:1090E0000000000000000000000000000000000080
:1090F0000000000000000000000000000000000070
:10910000000000000000000000000000000000005F
:10911000000000000000000000000000000000004F
:10912000000000000000000000000000000000003F
:10913000000000000000000000000000000000002F
:10914000000000000000000000000000000000001F
:10915000000000000000000000000000000000000F
:1091600000000000000000000000000000000000FF
:1091700000000000000000000000000000000000EF
:1091800000000000000000000000000000000000DF
:1091900000000000000000000000000000000000CF
:1091A00000000000000000000000000000000000BF
:1091B00000000000000000000000000000000000AF
:1091C000000000000000000000000000000000009F
:1091D000000000000000000000000000000000008F
:1091E000000000000000000000000000000000007F
:1091F000000000000000000000000000000000006F
:10920000DFF810D000F0FEFA0048004731CC010032
:10921000AFF30080E056002000B583B002900091CB
:10922000019244F2010071466A4600F0EBFD03B082
:1092300000BD000030B450E8012F93B2C48923442C
:109240008489A34228BF1B1B0489A34202BFBFF32A
:109250002F8F002007E0C3EA020340E80134002C0E
:10926000E9D14FF001000A6030BC704750E8012F8F
:10927000C2EA024240E801210029F7D1704730B428
:1092800050E8022F1FFAA2F3C488A34202BFBFF323
:109290002F8F00200DE0C48923448489A34228BF76
:1092A0001B1BC2EA034340E80234002CE8D14FF014
:1092B00001000A6030BC704750E8022FC2EA224227
:1092C00040E802210029F7D17047034653E8022FF6
:1092D000D988B2EB324F4FF0000017BF92B241EA8B
:1092E000014142EA014104E05A68B2EB324F08BF43
:1092F000012043E80212002AE8D1704730B4044646
:1093000054E8000F0D4644E80053002BF8D11560D7
:1093100030BC704730B4044654E8000F40EA010501
:1093200044E80053002BF7D1156030BC704730B4CF
:10933000044654E8000F00EA010544E80053002BFE
:10934000F7D1156030BC704730B4044654E8000FC4
:1093500080EA010544E80053002BF7D1156030BCCA
:10936000704730B4044654E8000F00EB010544E8B0
:109370000053002BF7D1156030BC704730B4044661
:1093800054E8000FA0EB010544E80053002BF7D18F
:10939000156030BC704770B404464FF0000054E8CC
:1093A000006F0D68AE4207BF44E80023012044E887
:1093B00000630E60002B1CBF0020F0E770BC7047FC
:1093C00030B4044654E8000F88422CBF451A0546C5
:1093D00044E80053002BF5D1156030BC7047000005
:1093E0000648804706480047FEE7FEE7FEE7FEE73F
:1093F000FEE7FEE7FEE7FEE7FEE7FEE7259B01004E
:10940000019201002DE9F05F0546002092469B463F
:1094100088460646814640241BE02846414647468A
:10942000224600F082F953465A46C01A914110D3A1
:1094300011461846224600F016F82D1A67EB01086F
:109440004F4622460120002100F00DF817EB0009DD
:109450004E41201EA4F10104DFDC484631462A4675
:109460004346BDE8F09F202A04DB203A00FA02F1CF
:10947000002070479140C2F1200320FA03F3194302
:109480009040704740EA01039B0703D009E008C9F8
:10949000121F08C0042AFAD203E011F8013B00F8B9
:1094A000013B521EF9D27047D2B201E000F8012B05
:1094B000491EFBD270470022F6E710B513460A4654
:1094C00004461946FFF7F0FF204610BD2DE9FE4F78
:1094D00081EA030404F0004421F0004100944FF0BD
:1094E000000B23F0004350EA01045ED052EA03046B
:1094F0005BD0C3F30A54C1F30A552C44A4F2F334ED
:109500000194A0FB0254C1F3130141F48011C3F391
:10951000130343F4801301FB024400FB034E840A4F
:10952000970A44EA815447EA8357A4FB07680295E7
:109530008D0A05FB07854FEA932C04FB0C54270585
:10954000029D4FEA065847EA1637B5EB08056EEB61
:10955000070C870E920E47EA811742EA8312A7FB97
:109560000201B6EB0B0164EB00042B0D43EA0C3354
:109570005E1844EB1C50DA465146E7FB0201C5F386
:1095800013044FEA0B3343EA14534FEA0432019CAD
:1095900043EA0603A4F10C040294009CCDE900B454
:1095A00000F0E2F803B0BDE8F08F00200146F9E7D3
:1095B0002DE9F04D81EA030404F0004B21F0004551
:1095C00014464FF0000A23F0004150EA050220D073
:1095D00054EA01021DD0C5F30A570246C5F313032E
:1095E000C1F31300C1F30A5640F4801543F480130D
:1095F000A7EB0608101BD64608F2FD3873EB0500F2
:1096000002D308F1010801E092185B41B8F1000FA4
:1096100003DA00200146BDE8F08D00204FF48011F0
:10962000064684460EE0171B73EB050705D3121B95
:1096300063EB050306434CEA010C49084FEA30008E
:1096400092185B4150EA0107EDD152EA030012D0B3
:1096500082EA040083EA0501084305D0101BAB41F0
:1096600006D20122002306E000224FF0004302E070
:109670006FF0010253101AEB06004CEB085110EB8F
:109680000A0041EB0B01BDE8F04D00F05EB870B58B
:1096900021F0004303430CD0C1F30A550024D5EB5D
:1096A000040564EB0403D617AD1AB34102DB0020B6
:1096B000014670BD201841EB025170BD0EB5C10FBF
:1096C00080EAE0700844CA07002140F233438DE885
:1096D0000E000A460B4600F047F803B000BD0EB579
:1096E00040F2334102910021CDE900110A460B46B8
:1096F00000F03AF803B000BDC1F30A5210B5C1F34F
:10970000130140F2FF3341F480119A4201DA002044
:1097100010BD40F233439A42A2F2334203DC52427C
:1097200000F003F810BD904010BD202A04DB203A61
:1097300021FA02F00021704721FA02F3D040C2F171
:109740002002914008431946704710B5141E73F16A
:10975000000408DA401C41F1000192185B411A43F1
:1097600001D120F0010010BD2DE9F04D92469B463D
:1097700011B1B1FA81F202E0B0FA80F220329046E3
:10978000FFF771FE04460F4640EA0A0041EA0B016A
:1097900053465A46084313D0114653EA010019D0E4
:1097A000C8F140025046FFF7C0FF05460E4650463E
:1097B00059464246FFF757FE084305D0012004E012
:1097C00020463946BDE8F08D0020054346EAE076A4
:1097D0002C4337430A986305E40AA0EB08000022F3
:1097E000FD0A44EA47540A3002D500200146E9E761
:1097F000010510196941DDE9084500196941BDE815
:10980000F04DA2E7064C074D06E0E06840F001038A
:1098100094E8070098471034AC42F6D3FFF7F4FC05
:10982000100002003000020070B58C1810F8015BC7
:1098300015F0070301D110F8013B2A1106D110F8E9
:10984000012B03E010F8016B01F8016B5B1EF9D1ED
:109850002B0705D40023521E0DD401F8013BFAE773
:1098600010F8013BCB1A921C03E013F8015B01F8DE
:10987000015B521EF9D5A142D8D3002070BD000073
:109880002DE9F8430025DFF894804FF48076012419
:109890002F460095304604F0ABF838B1D8F80403F1
:1098A000204203D0304604F099F82543361D640069
:1098B0007F1CB6B2082FEDD34FF4BE74204604F0DF
:1098C00097F848B1204604F089F845F000456A460B
:1098D0000121002004F052F815F0FF0F16D00126E8
:1098E00000242E420ED008EB8401D1F81005D1F8E7
:1098F0001015C0F304200A4AC1F3014152F8242094
:1099000002B190477600641C082CEAD3002D02DADD
:10991000684605F0AFF8BDE8F8830000006000403D
:10992000D84C002070B54FF48076304603F0E6FD49
:109930000F4DB40540B1304603F0E7FD0120C4F8F7
:1099400008032968002088474FF48276304603F0E8
:10995000D5FD00280AD0304603F0D7FD0220C4F818
:1099600008032968BDE870400120084770BD000069
:109970000824002003220021014803F0BFB80000A2
:1099800000B0004002490248091F09680068084702
:10999000502400202DE9FE434FF48278404604F025
:1099A00077F84C4F00254C4C012600B3404604F09C
:1099B00077F894F82E0010B194F82F10D1B18DF8EB
:1099C0000050616801912189ADF80810E26832B158
:1099D000218B618362602181E56010B102E0257412
:1099E00000E03E6021686846884784F82F5094F86C
:1099F0002E0060B34FF48077384604F049F830B356
:109A0000384604F04DF8628B94F82D108A420AD93A
:109A1000A2EB010080B260832289A2EB00006268A1
:109A200002EB400005E007D1E06828B184F82F6020
:109A3000658304F01BF804E08A4202D184F82F60A9
:109A40006583404604F02CF82248001D06604FF460
:109A50008877384604F01CF848B1384604F020F8FE
:109A6000257402208DF800002168684688474FF46D
:109A70008A77384604F00CF828B1384604F010F81C
:109A80002574BDE8FE834FF000484FF48C79676978
:109A90001DE000BFB7FA87F028FA00F109EB800556
:109AA0008F43284603F0F4FF88B1284603F0F8FFFF
:109AB000A5F58C75E8088DF8040045F38000401C7E
:109AC0008DF800608DF80500216868468847002FF2
:109AD000E0D1D6E700700040344D002038B54FF09B
:109AE00040200E4C0025C0F80851D0F80811009114
:109AF000214605F00FFE00280ED1A07FFF2801D0DF
:109B000003F059FF65772572D4E9002101B004F113
:109B10000800BDE83040104738BD0000644D00200B
:109B200004F0E6B830B54FF08051D1F84412504AF5
:109B3000C1F3423111604FF080420021C2F80C1194
:109B4000C2F810114A4A121F11604A4A12684A4B61
:109B50001A60484A121D12681B1D1A60454A0832D5
:109B600012681B1D1A60434A0C3212681B1D1A60D2
:109B7000404A103212681B1D1A603E4A14321268A5
:109B80001B1D1A603B4A183212683B4B20331A6087
:109B9000384A1C3212681B1D1A60364A203212687D
:109BA0001B1D1A60334A243212681B1D1A60314A89
:109BB000283212681B1D1A602E4A2C3212681B1D97
:109BC0001A602C4A303212682B4B40331A60294AF3
:109BD000343212681B1D1A60264A383212681B1D67
:109BE0001A60244A3C3212681B1D1A60214A403216
:109BF00012681B1D1A60214A1368DB0701D08B1EF7
:109C000013601F48026842F00F0202604FF01022FA
:109C1000D2F80002002803DBD2F80402002822DA7E
:109C2000184B0120186018480468002CFCD015243B
:109C3000C2F800420568002DFCD0C2F80442026858
:109C4000002AFCD0196001680029FCD0BFF34F8FB7
:109C50000E4801680E4A01F4E06111430160BFF350
:109C60004F8F00BFFDE70C490A48086030BD000077
:109C70003C0500400404001020C5004000040040E2
:109C8000E40E004004E5014000E401400CED00E07A
:109C90000400FA050090D0036C24002038B5064C6F
:109CA00020680025002805D00448406880472560CA
:109CB0002068009038BD00000001014018240020F9
:109CC00002E008C8121F08C1002AFAD17047704785
:109CD000002001E001C1121F002AFBD170470000E3
:109CE0000121202803DA81400548014003E0402893
:109CF00002DA2038814009B1012070470020704706
:109D0000FC06FFBD800701D000207047012070478E
:109D1000C3688B4206D811440069491E814201D8AC
:109D2000012070470020704790F824001F207047E2
:109D300010B501220221002001F094FE08B107288D
:109D400010D107220221012001F08CFE08B1072862
:109D500008D100210A22084601F084FE08B1072834
:109D600000D1002010BD000010B5ACB00420214C83
:109D70008DF8AC000D202080AC216846FFF79BFBDE
:109D800002208DF8000000208DF8020006218DF8D9
:109D900003102BA9019101210994ADF84C10164A2A
:109DA0008DF87C1014924FF4C861CDE9221013484D
:109DB00029906946A4F1F80000F0DBFA20B1104ABE
:109DC00040F20721FFF728FA0A480121F83800F08D
:109DD000CDFA08489DF9AC20F83890F854100120CD
:109DE00077DF002804D0064A40F20B21FFF714FA6F
:109DF0002CB010BD3C440020E422002009E9010001
:109E0000ECCF010030B472B6034B1B68DB0700D007
:109E100000BE30BC00F002B8F0ED00E008B5012350
:109E20008DF800309DF80030144B186059609A602E
:109E30006FF48041401807D001280FD1DA60D8684C
:109E400000689861D86807E01A61186980685861ED
:109E500018690068986118694068D861186858687E
:109E60009868D868186958699869D86972B600BF47
:109E70009DF800000028FBD162B608BD904D00207F
:109E80000821417105218171122101710021C171E7
:109E90001421017301F085BB7CB5044642208DF886
:109EA000040003208DF80000234601226946682043
:109EB00001F032FB207D102120F0F00040F00F0077
:109EC000617580302075204601F022F800281ED1EF
:109ED0000F4801F07AFC002819D10D4D022085F8B9
:109EE0002600284601F0BBFC002810D1012085F88F
:109EF0002200284601F091FC002808D1207D21464F
:109F000020F0F0008030207501A801F022FA7CBD1D
:109F10001C23002010B50D49044601F5806022463F
:109F200001604FF480618180A0610021FE2001F07A
:109F30004CFA002809D122460121F02001F045FA0F
:109F40002046BDE8104001F080BA10BD74460020E4
:109F50000821417302218173152101730021C1730E
:109F600001F01FBB10B5002004F096FA0B4C2079CD
:109F700001280FD105F02CF805F05AFEA08204F05C
:109F800015F9A18A40F67A520020914203D20121AC
:109F9000E171607010BDE07110BD0000C8220020AA
:109FA000014802F094B900003024002010B55AB1E5
:109FB00000684FF0FF3401294261C0E9024400D03B
:109FC00000210161002010BD072010BD38B51148E7
:109FD00008235822416800910F49006803F00CF9EA
:109FE000002815D10D4A69460D4802F075F90400A4
:109FF0000ED101210A4802F0B8F90123094A194695
:10A00000074802F03CF9064901200839087020464B
:10A0100038BD0000F8FE0100C04D002079EE0100BF
:10A0200030240020FFFF7F00F8B5044600261746C5
:10A030000D468DF80060684600F042F8D4E9020150
:10A04000C04370EA010005D09DF8000000F05CF804
:10A050000020F8BD02F0D8FC40197141C4E90201AA
:10A060009DF8000000F050F8A761206900B125615B
:10A070002146BDE8F840002005F030BB38B5044665
:10A0800000208DF80000684600F01AF8D4E90201BB
:10A09000C04370EA01000DD04FF0FF30C4E9020068
:10A0A0009DF8000000F030F82146BDE8384001205E
:10A0B00005F014BB9DF8000000F026F8002038BD24
:10A0C00030B5EFF3108172B60D4A9468012324B1C4
:10A0D0000370002900D162B630BD93604FF0E023D9
:10A0E000D3F88051074C25401560C3F88041D3F860
:10A0F000844154605A17C3F8842100220270E8E7B3
:10A10000184E0020FC06FFBD0B498A68002A11D0BA
:10A1100000280FD1EFF3108072B60B684FF0E022E9
:10A12000C2F800314B68C2F8043100228A6000286E
:10A1300000D162B670470000184E002070B51500BF
:10A14000044609D00020286034B1206820B1A079ED
:10A15000800703D0072070BD0E2070BD084600F0B8
:10A16000EFFAC0B2142804D02179814203D8042028
:10A1700070BD052070BDE288216800FB02102860D8
:10A18000002070BD2DE9FC47002517880646158084
:10A1900090F82D001446894630B13A46214648468B
:10A1A00000F0E2FA051E09D1B0784FF00C0A18B39E
:10A1B0002088C846001DB84202D95046BDE8FC8739
:10A1C000684679DF0028F9D12088032108F80010BB
:10A1D00020881921401C80B2208008F800102088B7
:10A1E000401C80B2208000EB0801BDF8000005F0A3
:10A1F000C3FA218808442080F0780222C8B121885F
:10A2000096F9033001F1030C4846BC45D5D84254B9
:10A2100021884FF0010C491C89B2218000F801C04F
:10A220002188491C89B2218009F801302088401C0E
:10A2300020807068B8B1218890F9003001F1030CDA
:10A240004846BC45B9D8425421880A22491C89B2E3
:10A25000218042542188491C89B2218009F80130AB
:10A260002088401C2080308950B1CDE900474B4602
:10A270000622022106F1080005F004FD051E9DD10D
:10A28000308A50B1CDE900474B460722032106F141
:10A29000100005F0F7FC051E90D1308B50B1CDE9D0
:10A2A00000474B461522142106F1180005F0EAFC80
:10A2B000051E83D1306A30B13B462246494601F043
:10A2C00056FF051EDBD1706A30B13B462246494637
:10A2D00002F0B4FE051ED2D196F82C0038B13B46F0
:10A2E00022464946304604F031FF051EC7D130787A
:10A2F00038B13B4622464946304602F0DBFE051E99
:10A30000BDD128465AE718B504460020ADF8000034
:10A3100013466A46204600F006F8002802D0BDF831
:10A320000000204418BD70B5E0B1DAB1002402E0AD
:10A33000045D2C44A4B2651C8D4206D21688A64248
:10A34000F6D8061976789E42F2D18C420AD2A31C26
:10A35000005D9BB200B1401E0004000C02D01C182E
:10A360008C4201D9002070BD138070BD80F8301080
:10A3700070472DE9F0410D00044606D02CB195F848
:10A380007A000026012803D006E00E20BDE8F08107
:10A3900095F89800012829D0D5F8A000042825D0E8
:10A3A000D5F89C00042821D04FF00108A6702C227B
:10A3B00005F17801201DFFF765F884F83060D5F8C5
:10A3C000A4006063D5F8A800A0634FF6FF70A4F85E
:10A3D000E80004F1D400C4F8E400C4F8EA60A4F88A
:10A3E000EE6084F8F060207810B104E00720CDE73B
:10A3F000FF2084F8540004F155072046C4F8D470B7
:10A40000FFF792FCA4F8D80004F1D8023946284698
:10A41000FFF7B8FE0028B9D104F19300C4F8DC00BE
:10A420002046FFF781FCA4F8E00004F1E00205F10A
:10A430003C00D4F8DC10FFF7A5FE0028A6D184F874
:10A440005180208BA4F8480084F83C80266484F86E
:10A450005060606900216064454604F13C02781E4A
:10A4600072DF002892D1257090E710B50288102A7B
:10A470001BD0112A20D0262A1DD1007A0C46012893
:10A4800001D0022817D1A0780521401CB0FBF1F2C1
:10A4900001FB1201204600F01DF800280BD0A16B33
:10A4A000002908D0BDE810400847C27B012A02D12C
:10A4B0008088A1F8E80010BD0C46002184F8F21055
:10A4C0008088B4F8E8108842F5D120790028F2D1CC
:10A4D0000121DFE72DE9F05F044600780F4698B1CF
:10A4E000A7700025C4F8EA50A4F8EE5084F8F050A4
:10A4F000A079012608B1012F09D0E07980B1012FA0
:10A5000005D0022F03D00BE00820BDE8F09F616B5F
:10A5100021B184F8F1600820884701E084F8F15007
:10A5200004F1EB0100200A5C0AB1304603E0401C54
:10A530000628F8D300204FF002084FF0030A4FF02E
:10A54000040B012F06D0022F0CD0032F0FD0042FA5
:10A5500015D110E0A17929B194F8241011B908B1EE
:10A5600030460DE0E17911B108B1404608E0207AAB
:10A5700008B1504604E0607A08B1584600E0284629
:10A58000A070616B41B1032801D0042804D1607927
:10A5900010B194F8F20098B184F8F35004F13C0043
:10A5A00018210746FEF787FF84F83C6004F12C0071
:10A5B00004F057FA58B194F82C0084F8510008E0E0
:10A5C00084F8F45084F8F36007208847E6E784F8BD
:10A5D000516094F8240058B104F1280004F041FAC5
:10A5E00020B194F8280084F8520001E084F8526009
:10A5F00084F85050A27804F1EA0104F1D409052A44
:10A600004DD2DFE802F065030F1B320084F83160A1
:10A61000C4F8E450C4E9101584F83C808020A4F804
:10A6200048003EE084F8318087F800A0228ABA8191
:10A63000C4F8E4507960E168B96032E06069B860FC
:10A64000208BB8813D4684F83C60204605F0D2FA64
:10A6500040B185F814800421204602F001F9F0B9D8
:10A66000052115E084F831A017E0E069B860208C7E
:10A67000B8813D4684F83C60204605F0BBFA50B1F5
:10A6800085F814800421204602F0EAF838B9062142
:10A6900084F8311001E084F831B0C4F8E490A07877
:10A6A00078B13A4604F15400D4F8E41072DF00287F
:10A6B0007FF42BAF94F8301094F8540073DF002827
:10A6C000F6D1616B11B194F83100884700201CE786
:10A6D00084F83150F5E7000070B5040012D001464F
:10A6E0001C221448FEF7CEFE1248134D0560206868
:10A6F00050B17ADF002806D12068016829604068DF
:10A70000686005E00E2070BD0B487BDF0028FAD1A1
:10A7100008484FF6FF711438084A20F8041B054911
:10A72000343901600021FFF741FC0028EBD0032001
:10A7300070BD00002C4C0020002400208DFB010087
:10A7400010B5044600F006F808B1204610BD1420EC
:10A7500010BD0000142801D30020704701460148B5
:10A7600002F094BD4C4C00207CB5054608880C4690
:10A770000930904201D90C207CBD68466DDF00286D
:10A78000FAD121880820685420881B21401C80B2FF
:10A79000208029542088401C80B220802844DDF885
:10A7A00001100160BDF8051081802088801D80B2F5
:10A7B00020809DF80010490800D0012129542088EC
:10A7C000401C208000207CBD38B5374C05460288EF
:10A7D000E08A212A46D011DC4FF00101102A1FD057
:10A7E000112A33D0132A3CD100231A4685217FDF5A
:10A7F000002836D02DA24FF4BC710DE03B2A49D081
:10A80000522A3DD0562A2CD1A888132176DF002861
:10A8100027D026A24FF4C671BDE83840FEF7FCBC35
:10A8200021716171072001F03FF920B11FA240F2B0
:10A830005511FEF7F1FCA988E182204802F0E6FDFF
:10A8400000280ED019A24FF4AC71E5E7002020716A
:10A8500061716070A070E0706074A0744FF6FF705A
:10A86000E08238BD1648694600680090A8888FDFEE
:10A870000028F6D00DA240F27111FEF7CDFC38BDD4
:10A8800000231A461946B1DF0028F8D007A24FF47A
:10A89000BF71C1E7A888132176DF0028EFD003A29B
:10A8A00040F28511B8E70000C82200202E2E5C2E51
:10A8B0002E5C2E2E5C6D61696E2E63003843002085
:10A8C00020FE010010B51A4C0188606810290ED0D6
:10A8D00011292BD1401E606028D1FFF729FA0028EA
:10A8E00024D02168002921D0BDE810400847D0B904
:10A8F00000210122084601F0B5F808B107280FD160
:10A9000007220221012001F0ADF808B1072807D184
:10A9100004220221002001F0A5F820B1072802D06E
:10A92000216801B188476068401C606010BD00006C
:10A93000F82300202DE9F04701883B4E40F2F3193F
:10A940004FF6FF7510291BD011293ED0122954D083
:10A95000502946D1C188F289841D914241D1618933
:10A9600002293ED18688304602F0BEF8050038D074
:10A9700004F10C0000F0A6FAA8B3294630464EE0D8
:10A98000C17B8788044601292BD1A846284602F0BE
:10A99000ABF8050017D02F800020287223484346CB
:10A9A0004A460168C5F80A104068C5F80E0004F16F
:10A9B000100105F10A0002F0F9F86872F089002828
:10A9C0000FD129462AE0042013E0808802F08CF899
:10A9D000040006D06068FFF751FB08B104F0AEFB3D
:10A9E0002580BDE8F087FFE76868FFF747FB002890
:10A9F000F7D0BDE8F04704F0A1BB8788064638468B
:10AA000002F072F80400ECD02B464A4606F1080129
:10AA100004F10A0002F0CAF8607221463846BDE827
:10AA2000F04701F0F7BB00002C4C00200024002070
:10AA30002DE9F04702888688DFF8FCA098B0102A3C
:10AA40000DD0112A48D00AF11003192A63D01A2A0E
:10AA50006ED1007A0409042C45D3012244E0364C1F
:10AA6000083CA068C0430B9061680BA802F026FC6C
:10AA70000B990CA801F05CFB2C220CA96846FEF790
:10AA800001FD0027E8460FE008EB47005FF00005F6
:10AA9000B0F8049004EB85004946001D02F0EBFB82
:10AAA0006D1C1E2DF6D37F1C0098B842ECD8142ED6
:10AAB00007D318B0F021BDE8F04720A20420FEF72C
:10AAC000ABBB3146504602F0ECFB18B03146201DBE
:10AAD000BDE8F04702F0E5BB18B031465046BDE88E
:10AAE000F04702F0C8BB00223146184601F0B3FE21
:10AAF000032C01D3012200E000220F4831460C3024
:10AB000001F0A9FE022C01D3012200E000220A4834
:10AB10003146083007E0017A002909D1407A3146F0
:10AB2000C0F3C002184618B0BDE8F04701F093BE6C
:10AB300018B0BDE8F0870000504C00202E2E5C2E8F
:10AB40002E5C2E2E5C2E2E5C2E2E5C2E2E5C636FC9
:10AB50006D706F6E656E74735C626C655C636F6D57
:10AB60006D6F6E5C626C655F636F6E6E5F73746158
:10AB700074652E6300000000F0B585B016460F46E0
:10AB800004001D4614D004AA19466069FFF7D6FADE
:10AB900000280BD1A5F57F40FF380BD0049848B1B1
:10ABA000007848B13088F42808D9072005B0F0BDF6
:10ABB0000E20FBE70520F9E70820F7E700200090CA
:10ABC000019002900390A088ADF8000001208DF85C
:10ABD0000200CDE9026769462846AEDFE6E70000DD
:10ABE00070B5334D04008EB02DCD08AE86E82D0033
:10ABF0005BD0E9B30868A061214608A862DF00289D
:10AC000051D1207801258DF83200ADF83050A21CCA
:10AC10000CA92846A8DF002845D120216846FEF768
:10AC20004AFC0220ADF8000020788DF802008DF873
:10AC30000C509DF80D00F426ADF8046040F00C00B7
:10AC40008DF81150ADF806508DF80D008DF81250AA
:10AC5000608804F10C02694601F02EF8002822D128
:10AC600020216846FEF727FC0320ADF8000000E035
:10AC70001BE020788DF802008DF80C509DF80D0037
:10AC80008DF81150ADF8046040F010008DF81250AE
:10AC9000ADF806508DF80D008DF813506088221D18
:10ACA000694601F009F80EB070BD0E20FBE7000008
:10ACB000D0FE010030B587B00446002928D0002C12
:10ACC00026D008462188102924D0502928D0572979
:10ACD0001ED10546A18840696A46FFF72FFA002871
:10ACE00016D100980078002812D0A86900280FD04B
:10ACF000182101A8FEF7DFFB01208DF80400029562
:10AD0000A088ADF80C0000980490A96901A88847B4
:10AD100007B030BD07B02146BDE8304003F02ABE81
:10AD200007B02146BDE8304003F059BEF8B50D4DDF
:10AD30000C4606460B48ADF80040EB8A6A463146A1
:10AD40003830FFF719FF08280AD01328F2D0052859
:10AD500006D0002804D004A240F2BF61FEF75CFADE
:10AD6000F8BD0000C82200202E2E5C2E2E5C2E2E58
:10AD70005C6D61696E2E63000E4A10B5146860F355
:10AD80000F3461F31B6420210B481460FEF793FB22
:10AD9000094848388464200C801E074CC1B2601CEE
:10ADA00000F075FF20712046BDE810400521FFF737
:10ADB000BDBF0000FC220020CC4B002070B5A521B7
:10ADC00061F307021849184DA6B00988303D090AF9
:10ADD00061F30B2222F47041952201F5804162F368
:10ADE000174121F070440146687A902260F31B6499
:10ADF0006E4601A80094FEF745FBC4F30744A01E6D
:10AE0000C1B2701C00F043FF8DF8940021466846E3
:10AE1000FFF78CFF687A401CC0B26872102801D31B
:10AE20000020687226B070BDF822002010B5902175
:10AE30002148FEF740FB214C4EF6FF72217B606AF1
:10AE4000014491421BD290221B4900F5043002F0CC
:10AE5000EDFB002812D19021174801F02FF848B9D6
:10AE60009021154801F000FB1348FFF7A7FFE06AA7
:10AE7000401CE062217B606A0844606210BD10489B
:10AE800003F0A1FE40B10020A074E0620121BDE802
:10AE900010400B20FFF770BF0749094803F0F8FE88
:10AEA000C1B2054801F0E0FA0348FFF787FFE06A06
:10AEB000401CE06210BD000098420020C822002023
:10AEC00014250020007800F00100704708B502F05A
:10AED000D5FE20B10D4A4FF4CF71FEF79DF9002049
:10AEE00000906946012002F0F7FD20B1074A4FF4B7
:10AEF000D271FEF791F9684602F038FE002804D0BE
:10AF0000024A4FF4D471FEF787F908BDECCF010077
:10AF10001CB5044603F012FB10B14FF0FF301CBD0E
:10AF2000207DC00729D000208DF8000019208DF861
:10AF300004002346012201A97E2000F0EDFAA8B901
:10AF4000616A012088472346012269466B2000F090
:10AF5000B8F99DF8001041F020018DF8001028B9D3
:10AF60002346012269466B2000F0D6FA0028D6D18C
:10AF70002046BDE81C4000F05DB86FF004001CBD29
:10AF8000F8B50446BBB1D869A8B11D7D6FF00400C7
:10AF9000EE070FD0C5F3810585B1012D10D0022D2C
:10AFA00010D0032D06D10820009313460A462146EF
:10AFB00001F0A6FBF8BD4FF0FF30F8BD0120F3E72C
:10AFC0000220F1E70620EFE72DE9FF414FF00004F2
:10AFD0001E0017468846254601D0306A20BB4FF038
:10AFE000FF3423E03346012241464F2000F094FA1B
:10AFF0000446716A0A208847A4B93346012269468B
:10B000004E2000F089FA0446716A0A2088474CB93C
:10B01000781E854206DA9DF8000008F10108401C00
:10B020008DF800006D1CEDB2BD42DBD304B02046AC
:10B03000BDE8F08138B5044600200090607D2346CD
:10B0400040008DF8000001224C200DF1010100F0BC
:10B0500038F905001FD19DF80100217D20F0800006
:10B06000490840EAC1108DF80100217D20F003005D
:10B07000C1F38101084320F03C0040F00C008DF842
:10B0800001002346022269464B2000F045FA05469E
:10B09000616A0A208847284638BD2DE9FF414FF0F4
:10B0A00000050E4607461400ADF80450ADF80850F0
:10B0B0008DF80C500DD0A06958B1016849B1C07924
:10B0C00050B13146384601F056FA04B02846BDE882
:10B0D000F0814FF0FF35F8E71346324602A901A888
:10B0E00001F03EFC0BE0214601A800F0F8FEA0694B
:10B0F00003AA01A9037A3846009404F074FBBDF852
:10B100000400BDF808108842EDD39DF80C003070A3
:10B11000A169BDF804004881D7E72DE9FE434FF04F
:10B1200000070E46804615003C46ADF804708DF8C9
:10B1300008700BD0A869016841B1C17949B13146A5
:10B14000404601F07CFA3846BDE8FE834FF0FF37F9
:10B15000F9E78189ADF80410017A20290ED0602921
:10B160000FD0A0290DD0E02910D08188ADF80410AF
:10B170008088A1B281421AD9044618E03178CC0007
:10B18000F6E73178C1EBC1014C00F1E7317801EB12
:10B1900081018C00ECE7294601A800F0A0FEA86917
:10B1A00002AA01A9037A4046009504F0CCFBBDF841
:10B1B0000400A1B28842EED39DF808003070A9695E
:10B1C000BDF80400C881BEE72DE9FF414FF000053E
:10B1D0000E4607461400ADF80450ADF808508DF83F
:10B1E0000C500CD0A069016849B1C07950B131460A
:10B1F000384601F0CFFA04B02846BDE8F0814FF0A0
:10B20000FF35F8E71346324602A901A801F0D2FB48
:10B210000BE0214601A800F062FEA06903AA01A983
:10B22000037A3846009404F010FCBDF80400BDF821
:10B2300008108842EDD39DF80C003070A169BDF86C
:10B2400004008881D7E738B504004FF0000025D00E
:10B25000A1690A6812B34881A16923460222888144
:10B26000A169C881A1690861A169087522206946A0
:10B2700000F027F89DF80110002801F007018DF873
:10B280000110BDF800100BD1A2699088884200D946
:10B290009180A2699379022B03D008E04FF0FF3030
:10B2A00038BD1931814202D8908819309080A06948
:10B2B00023468288016801B02420BDE83040AFF306
:10B2C000008030B433B1DC6924B13AB19D78012DEE
:10B2D00007D008E04FF0FF3030BC70476FF00B0034
:10B2E000FAE740F080005D7813460A46014628469A
:10B2F000A44630BC604738B50446032503F01EF968
:10B3000000281FD1A178012907D1234601226946CF
:10B310007F20FFF7D6FF002814D10021217005E01F
:10B320002346012219460020FFF7CBFF6D1EEDB228
:10B3300002D32178D829F3D110B92078D82802D0A7
:10B340006FF0020038BDFF20E070204600F096F953
:10B3500038BD38B505460C46084603F0EFF810B185
:10B360004FF0FF352FE0207DC0072AD02346012271
:10B3700029464D2000F0D0F80546616A0A2088472A
:10B380000DBB2346012269464420FFF79AFF0500C2
:10B390000DD1207D234600098DF800000122694669
:10B3A000442000F0B9F80546616A0A20884755B97B
:10B3B000207D20F0020020752046FFF73BFE054669
:10B3C00001E06FF00405284638BDF8B50F464FF090
:10B3D000000114008DF800104FF0470600F0FE0544
:10B3E0002ED01346012269463046FFF76AFF002837
:10B3F00025D135B19DF80000012F24D0A8438DF848
:10B400000000234601226946304600F085F80028F6
:10B4100015D12346012269463046FFF752FF002826
:10B420000DD19DF80010A36901F01002DA71A36933
:10B4300001F0E00201F002011A72A2699171F8BDF7
:10B440004FF0FF30F8BD2843D9E738B5B0218DF86B
:10B4500000107E2430B1034601226946204600F0E8
:10B460005BF838BD4FF0FF3038BDF8B5040015D09B
:10B47000606A98B100208DF8000020796FF0030514
:10B48000A0F11001022928D8217A88421AD0214639
:10B49000684603F051FB060003D011E04FF0FF3087
:10B4A000F8BD23460122211D7E2000F035F8064616
:10B4B000207A102802D1616A0520884721792172FB
:10B4C0003000EDD1207B0026142808D0152806D0A6
:10B4D000172804D02E463046F8BD2846F8BD217CFA
:10B4E0008842F8D02346012204F10C017E2000F0AE
:10B4F00013F80646207C142802D0172803D008E051
:10B500005120616A04E0207B152802D1616A0A207B
:10B510008847207B2074DEE72DE9F0474FF00005D7
:10B520001C009046064689462F460BD0D4F820C012
:10B53000BCF1000F06D0B8F1000F06D0A0780128AA
:10B5400006D007E04FF0FF3528E06FF00B0525E04F
:10B5500006F07F06207A112802D0207C152818D109
:10B560000A46607843463146E0470546616A012055
:10B57000884710E0256A09EB07026078012331460D
:10B58000A847761C0546616AF6B2012088477F1CF1
:10B59000FFB24745EED30DB16FF001052846BDE877
:10B5A000F08738B504005DD0606A00285AD00025C5
:10B5B00021466846009500F047FC002851D12346FB
:10B5C000012269464020FFF7A7FF002849D1617991
:10B5D0006172E179E1722346012241200DF10101FE
:10B5E000FFF79AFF00283CD1A179A1722146684655
:10B5F000009500F085FC002833D1234601226946DE
:10B600004220FFF789FF00282BD1617B6174E17B29
:10B61000E1742346012243200DF10101FFF77CFF75
:10B6200000281ED1A17B2046A174FFF71EFF002831
:10B6300017D123468DF80050012269460220FFF7FA
:10B6400040FE9DF80010C1F343018DF80010012960
:10B650000BD002290CD003290DD0072901D16FF09E
:10B66000080038BD4FF0FF3038BD6FF0050038BD21
:10B670006FF0060038BD6FF0070038BD38B5040024
:10B680004FF0B6008DF800000DD0606A58B1234627
:10B69000012269467E20FFF73FFF0546616A0120CF
:10B6A00088471DB11FE04FF0FF351CE0A07801284E
:10B6B00007D12346012269467F20FFF702FE0500DD
:10B6C00011D10220E0710821617110222271032240
:10B6D000A271E0736173142020730020A07360686E
:10B6E000A060E0682061284638BD2DE9F04104469D
:10B6F0000F46084602F016FF5FEA00082CD15CB343
:10B700002078C008207094F9011040EA4110A17817
:10B71000CE08A67094F9031046EA411621794D0827
:10B72000257194F9051045EAC115A1798908A1711F
:10B73000E27941EA82143A46214600F047FCB88695
:10B7400030463A46214600F07FFCF88628463A46C5
:10B75000214600F0B5FC38874046BDE8F081000086
:10B7600030B41C46154608462246294630BC014BDB
:10B77000FFF706BC4846002030B41C461546084674
:10B780002246294630BC014BFFF71EBC484600202C
:10B790002DE9F041054617460E461C46184602F0B4
:10B7A000C1FE70B96EB1A078012801D045F08005C6
:10B7B000607864683B4632462946A446BDE8F041BD
:10B7C00060474FF0FF30BDE8F08138B505460020F6
:10B7D0008DF80000284602F0A5FE040015D1294688
:10B7E000012003F025FD0446E9680320884764B979
:10B7F0002B46012269464020FFF7CAFF040004D10E
:10B800009DF80000322802D0A41E204638BD2870C2
:10B81000284603F0D6FA0446F7E770B5054690F8D7
:10B82000224002F07FFE002807D13CB1012C05D058
:10B83000032C03D0042C0CD0C01E70BD284603F08E
:10B84000AEFE0028F9D129462046BDE8704004F03C
:10B85000C9BA2946BDE87040002003F0E9BC10B524
:10B86000044602F05FFE00280AD194F82610012950
:10B8700007D002290CD0032911D0042917D0C01EEB
:10B8800010BD84F82300012084F82400022014E075
:10B8900084F82300042084F824000E200DE0052005
:10B8A00084F82300172084F82400522005E084F84F
:10B8B0002300072084F824001A2084F8250020465D
:10B8C000BDE8104003F0A3BC2DE9F0410746154642
:10B8D0000E461C46184602F025FE50B94EB145B141
:10B8E0006078A4682B4632463946A446BDE8F0414C
:10B8F00060474FF0FF30BDE8F08100000149085C6F
:10B900007047000090FE010007490B5C4FF0A0411A
:10B91000D1F804250120984020EA0203C1F8083537
:10B920001040C1F80C0570478CFE01000249085C0C
:10B93000012102F047B800008CFE01000249085CBA
:10B94000002102F03FB800008CFE01000649095CAE
:10B950004FF0A040D0F80405C84010F0010000D01E
:10B96000012080F0010070478CFE010010B500241A
:10B970002046FFF7DBFF641C042CF9D310BD10B583
:10B9800000242046FFF7DAFF641C042CF9D310BD15
:10B9900010B50246064B4FF0FF3000215C5C94422C
:10B9A00001D1084610BD491C0429F7D310BD000081
:10B9B00090FE010010B5002000F066F908B10628DD
:10B9C00006D1012000F060F908B1062800D100205E
:10B9D00010BD00002DE9F0470D468146FFF7D8FF66
:10B9E0000446042836D2DFF874801B481C4EA8F1A8
:10B9F0000C0725B3012D0ED0022D2BD104EB4400F2
:10BA000030444578002D25D0B968002922D0284639
:10BA1000BDE8F047084704EB4401755C0E447178BB
:10BA200049B10E4A4FF48041093A8068FEF7FCFAAA
:10BA300008B987F80390B17808F80410E2E7806845
:10BA4000FEF71CFB04EB4401314418F804008D7828
:10BA5000A842D7D0BDE8F08794FE010090230020D3
:10BA6000EC4B002070B50023042810D20D4D00EBE4
:10BA70004004012A02D101290CD00022094E00EB1A
:10BA80004000304461B1012906D0022906D00723C5
:10BA9000184670BD0E30C2B22A55F9E74270F7E77A
:10BAA0008270F5E7EC4B0020044A01460020127931
:10BAB000D20702D0084600F003B870478423002064
:10BAC0002DE9F05F6E4C054600266078B34618B14C
:10BAD00084F801B001F08CF86A4F4FF47A694FF4A2
:10BAE000C87A4FF00108182D69D2DFE805F00C1371
:10BAF00013384754696E727B727BC5848484848456
:10BB0000B3B6B9BCC5C501F073F83868FEF7B6FA2C
:10BB100006465CE00020FFF719FF00284FF0000008
:10BB200008D0FFF703FF022D02D14FF4E16008E0D7
:10BB3000484606E0FFF702FF022D01D1C82000E0D1
:10BB40005046410CC0034FF47A72801841F1000155
:10BB5000257052000023FDF755FC01462AE0002025
:10BB6000FFF7F4FE00284FF0000004D0FFF7DEFEE0
:10BB70004FF44870E5E7FFF7E1FEDFE70020FFF74D
:10BB8000E5FE00284FF0000002D0FFF7CFFECFE720
:10BB9000FFF7D4FED4E70020FFF7D8FE00284FF0CF
:10BBA000000002D0FFF7C2FE01E0FFF7C7FE2570DC
:10BBB00040F6CD4100223868FEF736FA064646E0E8
:10BBC0000020FFF7A1FE257008E0002051E025705D
:10BBD0003DE084F801800120FFF796FE002240F24C
:10BBE0006661E8E784F801800120FFF78DFE0022FE
:10BBF0004FF40051DFE77868FEF740FA0646D5F1CA
:10BC0000110000D02EB10220FFF790FE84F802B0A0
:10BC10001DE0012816D980B2C8214843C117C903C5
:10BC200041EA5041C0034FF47A72801841F100019B
:10BC300052000023FDF7E6FB014600227868FEF77C
:10BC4000F3F906460220FFF779FE84F802803046B9
:10BC5000BDE8F09F00F0CCFFB9E700F0C9FFB4E702
:10BC600000F0C6FF04E000F0C3FF0020FFF766FE0F
:10BC70000120FFF763FEAAE7FFF781FEA7E70000B8
:10BC80008423002094FE0100012104F062B810B565
:10BC900003460078012203E09C5C6040521CD2B253
:10BCA0008A42F9D310BD00000249084490F93000DF
:10BCB00070470000D84C00202DE9F0438146887879
:10BCC00091B090460C4600B901208DF83E002088C6
:10BCD000ADF83C0000250095607C694603F0CCFA85
:10BCE0006E46A07C711C03F0C7FAE07B00289DF82B
:10BCF000020002D040F0080001E020F008008DF8BA
:10BD00000200217C11B140F0100001E020F0100091
:10BD10008DF80200217B11B140F0010001E020F01C
:10BD200001008DF80200217D09B1022100E001210E
:10BD300061F342008DF802001C2102A8FDF7BBFB55
:10BD4000607BC10601D4800617D50E950EAFE07C4E
:10BD5000791C03F091FA9DF83800079720F00F0046
:10BD6000401C20F0F00010308DF838009DF83A00AB
:10BD700020F00600801C8DF83A00607B8DF80800EA
:10BD8000A07B8DF80900142109A8FDF794FB0FA8EA
:10BD9000CDE90906A088ADF83000A06820B1E088A0
:10BDA000ADF82C00A0680D90A06998B301950088AB
:10BDB000ADF81000A06901AD01A94088ADF81200EE
:10BDC000A069406806950390A069007B03F054FACF
:10BDD000A069691C407B03F04FFAA069807A0028B3
:10BDE0009DF8060002D040F0080001E020F00800B5
:10BDF0008DF80600A169C97A11B140F0100001E088
:10BE000020F010008DF80600A169097A19B140F000
:10BE1000010002E00DE020F001008DF80600A169AC
:10BE2000897B09B1022100E0012161F342008DF814
:10BE30000600E06900B10590434609AA02A94846F8
:10BE4000AADF11B0BDE8F08370B50D460B4604467D
:10BE5000014602224020FFF734FA00282DD16979EB
:10BE6000001F0C2929D86A7A914206D0227801F065
:10BE70000F0122F00F0211432170E97907291CD824
:10BE8000EA7A914207D02278702322F0700203EA06
:10BE9000011111432170A9790022641C0C290AD8D0
:10BEA000A87A814208D0207801F00F0120F00F001D
:10BEB0000143217000E00246104670BD10B500231A
:10BEC0001A4604E0845CFF2C00D00123521C8A42F5
:10BED000F8DB012B01D0012010BD002010BD10B5F2
:10BEE0008B6902889988941C8C4208D21B689C5CE0
:10BEF000802C04D11A445278002A00D1018010BD50
:10BF000070B50D460B460446014602224220FFF75B
:10BF1000D8F900282AD1697B001F0D2926D86A7C10
:10BF2000914206D0227801F00F0122F00F02114356
:10BF30002170E97B022919D82278302322F03002BF
:10BF400003EA0111114304F8011BA97B0022042913
:10BF50000AD8A87C814208D0207801F0070120F09F
:10BF600007000143217000E00246104670BD00004A
:10BF700070B5084C050009D010342168002907D09D
:10BF800008682060496828468847F6E70834F4E7DF
:10BF900070BD0000C44C0020054A012120B10128D9
:10BFA00005D19170FFF7E4BF51700020FAE77047A8
:10BFB000C44C002010B5D0E90234D1E90220D11AD6
:10BFC000A04101D3012010BD002010BD30B51D4B94
:10BFD00010F5805F34D011B9D18B89B381B3D38B85
:10BFE0009B0393FBF1F1A1F5804111FB01F3DD17F8
:10BFF00092F91D4003EB5563DB115C43137FDB01BA
:10C0000011FB03F12144CB1701EBD3514FF4801303
:10C0100003EB612192F91230A0335943CB1701EBA6
:10C02000135109134843C11700EBD14092F9101086
:10C0300040F34F3000EBC100C11700EB117003114A
:10C04000184630BD0080FFFF30B51C4B10F5805FF7
:10C0500032D011B9D18B79B371B3D38B9B03B3FBBE
:10C06000F1F1A1F5804111FB01F3DD1792F91D40BB
:10C0700003EB5563DB115C43137FDB0111FB0341D1
:10C08000CB1701EBD35192F91330491201F580110E
:10C09000A0335943CB1701EB135109134843C11780
:10C0A00000EBD14092F9111040F34F3000EBC1008A
:10C0B000C11700EB11700311184630BD0080FFFF5F
:10C0C000F0B51A4B10F5804F2ED0B2F916505DB373
:10C0D000948A4CB341B3D68B36B3B7B20EB2F11BD0
:10C0E000178B17FB01F1B2F91A207443801AC203AF
:10C0F000600000F50040CF17C41701EB977100EB0B
:10C100001440A2EBA10105EB204091FBF0F0B0F54B
:10C11000004F01DB580C03E0984201DC0348401C4F
:10C12000C11700EB1170031118B2F0BD0080FFFFC2
:10C1300073B58CB00646002000900D9880B10024A5
:10C140006D4621460DA801F0A1F830B1009805EB2D
:10C15000400084800098401C0090641C142CF0D394
:10C160002C2269463046FDF78DF90EB070BD2DE9E1
:10C17000F04117880646B81D14460D46984202D96C
:10C180000C20BDE8F0813188072206290AD34FF43C
:10C19000486C4FF6FF73614501D9994202D170880E
:10C1A000062801D21046ECE7604501D99842F9D142
:10C1B000994203D0984201D08142F3D80520E85536
:10C1C00020881221401C80B2208029542088401CE5
:10C1D00080B220804119308803F0CEFA21880844CB
:10C1E00080B220804119708803F0C6FA2188084483
:10C1F00020800020C5E7000002A24FF48171FDF706
:10C200000BB800002E2E5C2E2E5C2E2E5C6D61690C
:10C210006E2E630038B54A7A0F4B62B100220A7263
:10C220005969002906D001228DF80020ADF80200DE
:10C230006846884738BD0A7A62B19B684C680246F6
:10C2400019462046FDF7F0FE0028F3D0BDE838403F
:10C2500002F074BF5B68F1E72C4C00204FF4803291
:10C260008A400168C1F848230068C0F80823704775
:10C270004FF4A07202EB810189B200F072B92DE98E
:10C28000F04105460E464FF4A07000EB860081B2E7
:10C2900028684FF48034B440984622F07F47C0F8B5
:10C2A00008432868C0F84843286801F0D9FB28688B
:10C2B00000EB8600C0F840752868C0F84443B8F128
:10C2C000000F02D02868C0F80443BDE8F081006880
:10C2D000D0F804057047000010B543791B4C44F8B2
:10C2E00023204279231D03EBC20212790AB10820F0
:10C2F00010BD02680C88C2F8084590F904208978BE
:10C30000002A4FEA411106DA02F00F0202F1E022A0
:10C3100082F8141D03E002F1E02282F8001490F983
:10C320000410012201F01F0402FA04F449098900F3
:10C3300001F1E021C1F80041417903EBC1010A712B
:10C34000417943F83100002010BD00004C2400204A
:10C3500090F90400012100F01F0291404009800083
:10C3600000F1E020C0F8001270470A46022100F0F8
:10C37000EFB84FF4827100F0F4B800680121016059
:10C38000704700680121416070472DE9F05F074662
:10C390000C464FF4A07000EB84001FFA80FA386856
:10C3A0004FF48036A6409B4622F07F45C0F8486394
:10C3B0003868C0F808633868D0F8048500EB840258
:10C3C000D2F84095C2F840855146386801F048FBE4
:10C3D000A9EB080020F07F40012806D1102001F0D1
:10C3E0008BFD5146386801F03BFB3868D0F8048576
:10C3F000C0F84463A5EB080121F07F4138680129AA
:10C4000000EB840010D0C0F840553868D0F804150F
:10C410006FF07F4C6A1A521E22F07F42ACEB0B0386
:10C42000934217D362B118E06D1CC0F8405510203C
:10C4300001F062FD3868D0F8040540450AD10CE0EF
:10C4400000EB84006D1CC0F840553868D0F8040536
:10C45000884202D00D20BDE8F09F012231463846C7
:10C4600000F076F80020F6E730B5CA0709D030BDF5
:10C4700000EB420310F812405D7800F812505C7037
:10C48000521CB2EB610FF3DB30BD00002DE9F84325
:10C49000104D0F4680461E4691466946286800F0BA
:10C4A000BEFE040014D01C21FDF705F80120207108
:10C4B000C4F81490380BC4F80080C4E902606946DF
:10C4C000286800F0CDFE02F063FC0020BDE8F88390
:10C4D0000420FBE73CFF010070B500252C464FF41B
:10C4E000043600BF06EB043001F082F808B10120E9
:10C4F00070BD641C0F2CF5DB284670BD30B50446BA
:10C50000006887B00D46806800281FD01821684653
:10C51000FCF7D1FF0195A0680590207910B10128A2
:10C5200010D107E001208DF8000020690290E0683A
:10C53000039005E002208DF80000E06800030290FF
:10C5400060690490206881686846884707B030BDFC
:10C550000368C3F84413002A02D00068C0F804132B
:10C56000704710B5006842581AB101F079FA0120FD
:10C5700010BD002010BDFEB5064600208DF8080055
:10C58000906914460D464089ADF8040049E01268F0
:10C59000525C491C02F0FC03ADF80410882B23D038
:10C5A0000CDC482B30D004DC402B28D0442B33D17A
:10C5B00020E0802B2ED0842B2ED10BE0942B09D0A1
:10C5C00004DC8C2B06D0902B26D10AE0982B0ED0C1
:10C5D0009C2B21D102AA01A93046009403F003F953
:10C5E0001AE02246082111E0224606210EE02246EA
:10C5F0000E210BE0214601A803F0A4FA0CE021462D
:10C6000001A803F0B4FA07E02246012101A800F0D6
:10C6100047FD01E0ADF8040028789DF80810884235
:10C6200005D0A269BDF8041090888842AFD89DF863
:10C6300008002870A169BDF804004881FEBDFEB560
:10C64000064600208DF80800906914460D46C08902
:10C65000ADF8040029E01268525C491C02F0FC03AA
:10C66000ADF80410882B3BD00CDC482B45D004DC03
:10C67000402B3DD0442B11D135E0802B0ED0842BA4
:10C680000CD12DE0942B1ED004DC8C2B22D0902BCF
:10C6900004D118E0982B16D09C2B14D0ADF80400D0
:10C6A00028789DF80810884205D0A269BDF80410CA
:10C6B00090888842CFD89DF808002870A169BDF8FD
:10C6C0000400C881FEBD02AA01A93046009403F00F
:10C6D0003AF9E5E722460C2101A800F0E1FCDFE78A
:10C6E00022460621F8E7214601A803F02BFAD7E7F6
:10C6F000214601A803F03BFAD2E722460121EBE7ED
:10C700002DE9FF4F83B00024DDF840B01E4691466E
:10C71000804600944FF0040A2546C7B2019433E0E6
:10C720005B46012204A94D20FEF7F6FE0446DBF825
:10C7300024100A2088473CBB5B4642466946504667
:10C74000FEF7BFFD040002D06FF001041EE00020E0
:10C75000464501D2F7B203E0711B414500DACFB282
:10C760006946B84207D20B5C05EB000C401C09F887
:10C770000C30C0B2F5E79DF8101001EB08008DF801
:10C78000100005EB0800C5B2B542C9D307B020467A
:10C79000BDE8F08FFEB5064600208DF808009069D0
:10C7A00014460D468089ADF8040046E01268525CDC
:10C7B000491C02F0FC03ADF80410882B19D00CDCE6
:10C7C000482B2DD004DC402B25D0442B30D11DE04C
:10C7D000802B2BD0842B2BD112E0942B13D004DC94
:10C7E0008C2B06D0902B23D10DE0982B01D09C2BC5
:10C7F0001ED102AA01A93046009403F026F917E0E1
:10C80000224606210EE0224608210BE0214601A81F
:10C8100003F098F90CE0214601A803F0A8F907E01D
:10C820002246012101A800F03BFC01E0ADF8040024
:10C8300028789DF80810884205D0A269BDF8041038
:10C8400090888842B2D89DF808002870A169BDF888
:10C8500004008881FEBD0AB100F023BD00F00BBDCD
:10C8600070B50D460446B0F8D810D0F8D4000122B7
:10C87000FDF749FD00B1057004F13C0204F1D4015B
:10C8800004F1540072DF70BD704700000EB516A1B0
:10C890009DF8080020F00F00401C20F0F000103040
:10C8A0008DF80800062202A87CDF18B1104ADF21AB
:10C8B000FCF7B2FC0020009001902020ADF80000B1
:10C8C0002420ADF802000220ADF804004FF4C87037
:10C8D000ADF8060068467ADF002803D0044AE92153
:10C8E000FCF79AFC0EBD0000456172506F740000A9
:10C8F000ECCF010006484A88C38A9A4207D10A88C9
:10C90000A2F52063773B02D18988C91E0183704755
:10C91000C822002010B50C490C4800F0F4FC20B1EE
:10C920000BA240F2C111FCF777FCF721074800F099
:10C93000DEFC002806D0BDE8104005A24FF4E271ED
:10C94000FCF76ABC10BD0000F5C8010028430020B8
:10C950002E2E5C2E2E5C2E2E5C6D61696E2E630079
:10C9600030B59C69648904809D692C7A402C0ED076
:10C97000C02C10D0602C12D0E02C15D0AA880280D8
:10C9800098690A888088824200D9088030BD107872
:10C9900000EB400006E0107800EB400007E0107864
:10C9A000C0EBC000400003E0107800EB8000800086
:10C9B0000880E5E730B59C69A48904809D692C7ADC
:10C9C000802C0ED0C02C10D0A02C12D0E02C15D072
:10C9D000AA88028098690A888088824200D90880E3
:10C9E00030BD107800EB400006E0107800EB40000E
:10C9F00007E01078C0EBC000400003E0107800EBC7
:10CA0000800080000880E5E710B50B48FFF75FFC69
:10CA1000094A083AD2E90434C018D2E9063244F18E
:10CA20000001C31A71EB020204D24FF08072801829
:10CA300041F1000110BD00003024002070B5184CF9
:10CA400000252046E17900790126012904D000283B
:10CA500024D1207AE8B112E00128FAD11321E08A2A
:10CA600076DF10F0FF0007D0082805D00DA240F2B5
:10CA70000231FCF7D1FBECE725716671E9E7A07A9A
:10CA8000012802D102F0F2FCA572BDE8704000F06E
:10CA9000CBBF102000F088FF2672F0E770BD0000C9
:10CAA000C82200202E2E5C2E2E5C2E2E5C6D61691D
:10CAB0006E2E630010B50A4941600A4800F0FBFB86
:10CAC00058B901F027F907491C238C22087404483F
:10CAD0008C39001F006800F08FFB002010BD0000A3
:10CAE00040FF0100CC4E00200146034802888A42E4
:10CAF00000D0002070470000184C00202DE9F047BE
:10CB00009146884604464FF480354FF4A0760027BE
:10CB1000DFF884A016E000BFD4F8040328420DD04B
:10CB2000A05958B1C4F84853C4F8085331462046B8
:10CB300000F090FF5AF82810F8B28847361D6D00B3
:10CB4000B6B27F1C4F45E7D3D4F804034FF480718D
:10CB500010F0010F09D0D4F8000130B1204600F0E8
:10CB600079FF5AF8281004208847D4F804034FF4BA
:10CB7000827110F0020F0CD0D4F80401002808D004
:10CB8000204600F067FF5AF82810BDE8F04705205E
:10CB90000847BDE8F0870000242400200248007AFE
:10CBA000002800D001207047CC4E0020F0B58488CA
:10CBB000A518944200D82246A41AC288D6189A42D0
:10CBC00000D81346D21A4B880788BB420CD3408842
:10CBD000834209D88888A04206D3A84204D8C888CE
:10CBE000904201D3B04201D90020F0BD0120F0BD38
:10CBF0000A4810B5807860B1002401E0022C06D00C
:10CC00002046FEF793FE641C042CF7D310BD0324CA
:10CC1000F6E7BDE81040FEF7A9BE0000842300201F
:10CC2000F721018017214180002101714171704776
:10CC30008CB0FDF7CBF920B1ECA240F64401FCF733
:10CC4000EBFA002415200323009422462146019488
:10CC500000F041FE122000F06BFE122000F0A4FE56
:10CC6000102000F065FE102000F09EFE00F0C8FECF
:10CC700020B1DEA240F2EF21FCF7CEFAFEF726F952
:10CC8000FFF704FEFFF746FEDC48019001A9DC48EF
:10CC900000F0C7FB20B1D5A240F2EF71FCF7BCFA5F
:10CCA000D84800906946D848FDF79AFF20B1CFA236
:10CCB00040F2F771FCF7B0FAFDF756F81C2105A811
:10CCC000FCF7F9FB4FF4A031CDE905414FF4F02119
:10CCD000CE4807910A900321CD488DF820100B9083
:10CCE000A046ADF822408DF8244005A8FDF7F4FCDD
:10CCF00020B1BEA24FF48C71FCF78EFAC04803211C
:10CD00000C30FDF7E7FBC04D0124383DAC7100F05D
:10CD100083FCC04801F0B1FFBF4A0121BF48FDF7C5
:10CD200045F9BE4E0022361F4FF470217068FDF7A2
:10CD30007BF9603602AB96E8070083E8070002A89B
:10CD4000B74901F0C3FB10F0FF0004D0A7A240F6E2
:10CD50002B11FCF761FAAC48283801F07BFB10F08E
:10CD6000FF0004D0A1A240F62D11FCF755FA01F006
:10CD70009FFB02F02DF902F05BFFA88201F016FA8A
:10CD80004FF0A0464FF4802920E000BFFFF756FE89
:10CD9000287901281DD00028F8D101F007FA02F007
:10CDA00065FB152000F0BBFD052000F0B8FD042058
:10CDB00000F0B5FD142000F0B2FD122000F0B8FD27
:10CDC000102000F0B5FD102000F0EEFDC6F80C9527
:10CDD000DCE7A87C012801D1FEF728F86878002854
:10CDE0007ED0E87A01280CD185F80B80FFF774FB20
:10CDF00002E0884801F0D0FE864801F0E4FE0028F9
:10CE0000F7D0A87A68B902F037FB874885490162F4
:10CE10008649C1618649416280F8018001218170A3
:10CE2000A972287A012823D1D6F80405000C10F045
:10CE3000010F1DD04FF48030C6F80C05642000F0BF
:10CE40006DFB7948FEF71AFCC82000F067FB7648B6
:10CE5000FEF751FA7448FDF713F87348FDF778F8B8
:10CE60007148FDF719F87048FDF754F885F8088007
:10CE70004E2000F053FB6C4CC82104F22C40818002
:10CE800008206873A873E8732046FEF7DCF910F0F9
:10CE9000FF0F9DD15C492246293904F23450FEF738
:10CEA0003CF9594922462A3904F2BC40FEF78CF974
:10CEB000554922462B3904F24440FEF7EEF8A87893
:10CEC000E8B3DFF844B1002704F2BC4A0BF11C0BB5
:10CED000584A07EB470007EBC70432F8203000E060
:10CEE00075E04C4902EB8002903921F8143001EBD7
:10CEF0004404538863809188A1803AF820200AEB8B
:10CF00008000E280418821818088608149483E49D3
:10CF1000F03000EBC7001C31FEF7E7FBBBF8341024
:10CF2000A181BBF83610E1817F1CBBF83800FFB24D
:10CF30002082082FCCD337489038FDF73FFF687C1C
:10CF40000128A6D190213C48FCF7B5FADFF8E4B0FF
:10CF5000DFF8B4A000270BF1780B0AF11C0A00BF20
:10CF6000344907EB4700344B31F8204007EBC70248
:10CF700001EB800123F8124003EB4204B1F802C038
:10CF8000A4F802C08988A1803BF820200BEB800127
:10CF9000E28048882081888860811B4903F67410EC
:10CFA00000EBC7001C31FEF7A0FBBAF83410A181DA
:10CFB000BAF83610E1817F1CBAF83800FFB220823F
:10CFC000082FCDD390211C4802F02AF8DEE6287AFB
:10CFD00020B9102000F0E8FC01202872A87A01286E
:10CFE000F4D102F043FA85F80A80CFE62E2E5C2EAB
:10CFF0002E5C2E2E5C6D61696E2E63003DDA0100A1
:10D000003843002055E501000023002045E90100D8
:10D01000F9C1010014250020659F010024FE0100D4
:10D020008DFD0100A5D10100484600205DD1010021
:10D030001DD501008C4A00200842002070B514461E
:10D0400082880E4605462088111D0144921C994293
:10D0500001D8FE2A01D90C2070BD521C3254208800
:10D06000FF21401C80B2208031542088401C80B2B7
:10D0700020808119288802F07FFB2188084480B233
:10D080002080AA8842B1A96841B13044FCF7FAF97E
:10D090002088A98808442080002070BD072070BD2A
:10D0A0009269038892881944914201D9028070479D
:10D0B00001807047F8B50F460178144605460129EE
:10D0C00001D1687830B12088821C9A4232D8012977
:10D0D00002D006E00720F8BD69780144891C994216
:10D0E00028D8181A801E86B2ADF800602188B81CB6
:10D0F000084469467DDF0028EDD12978022904D053
:10D100006878BDF80020904205D3BDF80000B04219
:10D1100001D809200AE00820012905D16978B14227
:10D1200002D8ADF8001001E0ADF80060BDF80010C5
:10D13000FE2901D90C20F8BD2288491CB954218848
:10D14000491C89B2218078542088401C2080BDF879
:10D150000010084420800020F8BD0000F8B50D4EF6
:10D1600000201C461746F0740B480170581CC2B2D0
:10D170000A4B09490A48009200F02EFA0546F07C55
:10D180000028FCD005492246491C3846FCF77AF9AC
:10D1900068B2F8BDC822002048440020484500205D
:10D1A00038FE010038B50C4D1C4600201346E874CB
:10D1B0000A48224600F8011B1946FCF763F9641C73
:10D1C000E2B2074B05490748009200F005FAE97CF6
:10D1D0000029FCD040B238BDC822002048440020BD
:10D1E0004845002038FE010010B5FCF76EF808B184
:10D1F000002010BD112010BD10B531B1B2FBF3F409
:10D2000003FB14241CB1092010BD0E2010BD0160C9
:10D210000021416081608281C381084610BD70B5E4
:10D220000C460546FCF706F8002802D0218828683D
:10D23000084470BD10B50A8849888A4203D1FCF7BA
:10D240003BF8012010BD002010BD70B50C4605460E
:10D25000FCF715F8002802D061882868084470BDE2
:10D2600010B50A8849888A4203D1FBF7FFFF0120E5
:10D2700010BD002010BD01F01F0301229A40D243CF
:10D28000490900EB8100114600F018B84A0950F82E
:10D29000220001F01F0201219140084000D001202E
:10D2A000704701F01F0301229A40490900EB8100F9
:10D2B000114600F00EB8012100F006B808B56A4624
:10D2C000FCF735F8009808BD08B56A46FCF722F867
:10D2D00008BD08B56A46FCF71DF8009808BDC208ED
:10D2E00000F007030120895C98400840704728B18E
:10D2F000A1F11702E12A03D3072070470E207047DF
:10D3000001800020704710B560B1C160F72120F89E
:10D31000021B20F8021BFB2100F8021BFFF780FC18
:10D32000002010BD0E2010BD2DE9FC4186880C4662
:10D33000002E35D101880025102907D011290CD0E5
:10D34000314F3A290DD0552952D12BE0C07BA11D78
:10D3500001284DD1208808804AE0A01DFFF760FC1D
:10D3600046E02246408934F8061F814200D808462C
:10D370006080172800D217206080D06870B1607973
:10D3800060B1D7E90001CDE90001ADF80260608825
:10D39000ADF80400D3686946104698476571257159
:10D3A000BDE8FC81C08804F1060E172800D21720C2
:10D3B000BEF80010814200D80846AEF802008EF890
:10D3C00004502846BEF80010B5DF9EF8050078B975
:10D3D000E06868B1D7E90201CDE90001ADF802606B
:10D3E000BEF80200ADF80400E268204669469047A6
:10D3F000A07A0028D4D02846E188A5DF0028CFD124
:10D40000A5720120E072CBE7C0FE010020B10278D6
:10D41000DE2A03D0082070470E207047418000208C
:10D42000704760B159B10278DE2A0AD009684160BC
:10D43000DE2101704FF6FF714180002070470E2001
:10D440007047082070477FB5054600294DD0002D54
:10D450004BD008780C46DE2847D1A88861888842DE
:10D4600002D1204602F0D2FB2888012825D00228CC
:10D470003BD011283AD0512837D135F8040F6188B4
:10D48000884232D1A978A81C02292ED1017A042918
:10D4900003D0062901D0052927D1002100910222BD
:10D4A0008DF8002001914FF4C07202910391ADF804
:10D4B0000420007A05280FD010E0297A204601299F
:10D4C00013D1A988428891420FD10121017204B081
:10D4D000BDE8704002F09ABBADF804102888694698
:10D4E000B0DF002801D0616888477FBDA8886188C7
:10D4F0008842FAD14FF6FF7060807FBD00F1804016
:10D500000068002800D00120704708B500F1804075
:10D51000002101600068009008BD00002DE9F04185
:10D52000040007D0044E4FF47A47751C3846A847CC
:10D53000641EFAD1BDE8F08130FE010070B50D4CDB
:10D540000125207808B185260EE00020A0606060EB
:10D550002061E060084800F0A1FC064600F0DAFB1C
:10D5600008B900F085FC257000F07AFC00B1A570C8
:10D57000304670BDC44C002099BF010038B500256D
:10D580008DF800506846FCF79BFD084CE068401E93
:10D59000E060E06828B900F063FC10B900F08CFC92
:10D5A000A5709DF80000FCF7AFFD38BDC44C00200D
:10D5B00030B41C460378064D45F823202D1D45F850
:10D5C000234002B1034A30BC001D00F025BE00001C
:10D5D00010240020E9F401001FB5001D069C8DE811
:10D5E0001E000022694600F003FF04B010BD0000D9
:10D5F00010B5014600230122064800F04BF810F058
:10D60000FF0401D0032010BD024800F021F820469D
:10D6100010BD00007024002002490022024800F0E2
:10D6200060B800004CFF01007024002010B559B113
:10D6300052B113460A460146044800F083F810F040
:10D64000FF0000D0042010BD012010BD7024002078
:10D6500010B50446204600F04DF80028FAD110BD60
:10D6600038B569B162B10023009313460A460146FA
:10D67000074800F0FDF810F0FF0403D0022038BD89
:10D68000012038BD0248FFF7E3FF204638BD000007
:10D69000702400202DE9F0411F46164604000D4677
:10D6A00016D02068B8B1C6B160680268501E284222
:10D6B00015D172432046FCF72BFB80B120683B4616
:10D6C0003246D0F810C029462046BDE8F0416047F8
:10D6D0000E20BDE8F0810820FBE70920F9E71020C3
:10D6E000F7E720B119B101600B68114618470E2009
:10D6F000704700002DE9F04128B1016819B1C969EE
:10D70000BDE8F04108470D4D0D480024461B142785
:10D710000DE000BF04EB840005EB8000016829B137
:10D72000C969884710B10120BDE8F081641CB6FBCF
:10D73000F7F0A042EED80020F6E7000070240020A9
:10D74000842400202DE9F0411D46164604000F46B2
:10D7500017D0B6B12068B8B1C5B10846FCF7D2FA07
:10D76000B0B12A4639462046FCF7D2FA80B120688B
:10D770002B463246D0F808C039462046BDE8F04175
:10D7800060470E20BDE8F0810820FBE70920F9E79B
:10D790001020F7E7044801214174007A08B1002005
:10D7A0007047012070470000CC4E0020012801D0B6
:10D7B000032808D10449002201284A7400D000201F
:10D7C000087401F095BA7047CC4E002070B502463F
:10D7D000022801D0032A45D1234C207A002841D0C9
:10D7E000012833D0022831D120480023022A0068C2
:10D7F00002D0032A2AD11BE0E360017911B101298B
:10D8000024D10DE0D0E90565711B4FF48056B1427B
:10D8100000D33146294481614569A9420ED015E003
:10D820000169491C0161426991420FD1237213E0E1
:10D83000E168491CE160082908D9E3602372022AE3
:10D840000AD00D21FEF75AFE01F0C6F9607C28B11E
:10D85000BDE8704000F064BA0021F3E7BDE8704015
:10D8600001F046BA70BD0000CC4E002060240020BC
:10D870002DE9F8431D46089F1646884604000DD042
:10D8800066B1206860B135B160684068B5FBF0F101
:10D8900000FB115030B10920BDE8F8830E20FBE7F2
:10D8A0000820F9E74046FCF72DFA90B13046FCF726
:10D8B00029FA70B12A4641462046FCF729FA40B1C0
:10D8C000009720682B463246C76841462046B84735
:10D8D000E2E71020E0E770B541EA4201DDE90456D5
:10D8E0004FF0A04441EA830141EA052104EB8000A6
:10D8F00041EA0641C0F8001770BD70B541EA420127
:10D90000DDE904564FF0A04441EA830141EA0521D4
:10D9100004EB800041EA0641C0F8001770BD1CB559
:10D92000002100910B4601220191FFF7D4FF1CBD9D
:10D930001CB5002100910B46012201911146FFF711
:10D94000CAFF1CBD1CB5002100910B4601220191AC
:10D950001146FFF7D2FF1CBD4FF0A04202EB800042
:10D96000D0F8002722F44032C0F80027D0F8002772
:10D9700042EA0141C0F800177047000038B5094B72
:10D9800044181B6800936B4608E000BF53F8201052
:10D99000D1F8205520C2C1F82055401C8442F5D84A
:10D9A00038BD0000E0FE01004FF0A042012181409F
:10D9B000C2F8081570474FF0A04201218140C2F81B
:10D9C0000815704701224FF0A043824011B1C3F8FF
:10D9D00008257047C3F80C2570470000034908B5B7
:10D9E0000844002101600068009008BD006000400C
:10D9F00002494058012800D00020704700600040D4
:10DA0000064910B500204870091D0860BFF35F8FFC
:10DA10000349044800F0D2F9002010BD582400202A
:10DA200030FF0100244E002010B500F073F908B15A
:10DA300041DF10BD20BF40BF20BF10BD01A2EE21BD
:10DA4000FBF7EABB2E2E5C2E2E5C2E2E5C6D6169E0
:10DA50006E2E630008B5002242504058009008BD69
:10DA600008B5002242504058009008BD024A10609C
:10DA7000101D0160704700002C7600400301034830
:10DA80001844C0F81425C0F8101570470070004005
:10DA900002494058002800D0012070470070004023
:10DAA000034908B50844002202600068009008BDE0
:10DAB00000700040024619B1402051008840704774
:10DAC0008020FAE720B1034909680160002070470F
:10DAD0000E207047E4FF0100FEB506460C460846DE
:10DAE000FFF7F0FF002840D10025009501950127A0
:10DAF00006208DF80060ADF8040002958DF80270E4
:10DB000069462020226869DF0095019502958DF80D
:10DB1000017069464020226869DF00958DF8006039
:10DB2000F720ADF80200019502956946232022688E
:10DB300069DF0095019502958DF800706946012016
:10DB4000226869DF4FF4B060009001950295694644
:10DB5000A120226869DF0095019502958DF800509B
:10DB60006946A020226869DF0020FEBD60DF002832
:10DB700002D1024A01211170704700006B2400207D
:10DB800030B51748ADF5017D0078002825D04FF459
:10DB9000FA7400BFADF8004280A9684661DF50B159
:10DBA00005281AD00DF5017D0EA2BDE8304040F2E7
:10DBB0003B11FBF731BB6D461A497DA800F0FEF81A
:10DBC00007E000BFD0E90021284690477DA800F07B
:10DBD0000CF97F980028DDD0F4E70DF5017D30BD0C
:10DBE0006B2400202E2E5C2E2E5C2E2E5C2E2E5CA6
:10DBF0002E2E5C2E2E5C636F6D706F6E656E74736F
:10DC00005C736F66746465766963655C636F6D6D84
:10DC10006F6E5C6E72665F7364685F626C652E63C4
:10DC200000000000E8FF0100F8B5134C2078C0B1F7
:10DC30000120A07001F054FA112814D0022001F044
:10DC400067FA00258DF800506846FCF739FA11DFB5
:10DC5000064625709DF80000FCF756FA2EB13046B6
:10DC6000F8BD0820F8BD0020F8BDA57001F070FBDC
:10DC7000032001F04DFAF6E7682400207CB5194C2A
:10DC8000207808B108207CBD0120A070002001F0A0
:10DC900027FA112819D0002001F03AFA124800267C
:10DCA000006801908DF800606846FCF709FA0F499A
:10DCB00001A810DF05000AD0002020709DF80000A8
:10DCC000FCF722FA2DB128467CBD00207CBD012046
:10DCD000F3E7A670667001F077FB012001F018FAF7
:10DCE000F3E70000682400207CFF0100059E01008E
:10DCF0000EB50749684600F061F805E0D0E900106C
:10DD00008847684600F071F802980028F6D10EBDE9
:10DD100098FF010001480078704700006824002047
:10DD20000548817819B1007818B1FFF77DBF082048
:10DD30007047FFF7A3BF0000682400201FB56846A6
:10DD40004BDF40B1052816D004B00BA2BDE810404F
:10DD50006B21FBF761BA184901A800F02FF806E023
:10DD6000D0E900210098904701A800F03EF8039800
:10DD70000028E4D0F4E71FBD2E2E5C2E2E5C2E2E44
:10DD80005C2E2E5C2E2E5C2E2E5C636F6D706F6E83
:10DD9000656E74735C736F66746465766963655CE5
:10DDA000636F6D6D6F6E5C6E72665F7364685F73D8
:10DDB0006F632E6300000000040002000160096828
:10DDC0004160AFF3008010B5D0E90021536899425B
:10DDD00001D1002104E0D1E90034A34202D0194668
:10DDE000816010BD08314160F0E7816800290BD0E7
:10DDF000026892680A44826041684B689A4203D183
:10DE000008314160FFF7DFBF704770B50D46064629
:10DE1000446804E0B2682946904718B12468206835
:10DE20000028F7D120682860256070BD4068006830
:10DE3000704741680868002801D002680A6070478E
:10DE400002460020526806E08B4203D10868106049
:10DE5000012070471A461368002BF5D17047000067
:10DE600002480068002800D00120704700040140EB
:10DE700008480068012110F0010F06D14FF0E020A2
:10DE8000C02280F80024C0F8001103490120086076
:10DE90007047000000E100E0180500400549024617
:10DEA00000200B790BB1852070470A6001220A71AE
:10DEB0007047000008240020022010B54107C1F877
:10DEC00008034FF48270FFF720FB0549012008602A
:10DED00004480168C1F300410029FAD110BD0000D7
:10DEE0000C00004018040040002802D001498001C5
:10DEF00008477047F1FE0100002802D00149800167
:10DF00000847704711FF0100204A10B5137C0BB180
:10DF1000112010BD02EB40031C7F1CB912F82D4FDD
:10DF2000641C1470CA791A770A7A5A770A784B787F
:10DF3000302402F0030204EA03131A438B784FF4EF
:10DF4000E06404EA03231A43CB784FF4805404EAD4
:10DF500003331A430B794FF4E02404EA03431A43D2
:10DF60004B794FF4801404EA03531A438B7924014C
:10DF700004EA0363064C1A4304EB0013C3F81825A4
:10DF80000A7AC979FFF77AFD002010BD344D0020D0
:10DF90000070004070B505460E48017C09B11120A3
:10DFA00070BD00EB45010A7F1AB110F82D2F521EEB
:10DFB000027000240C774C77224621462846FFF752
:10DFC0005DFD40F2FF72D143284600F04FF8204635
:10DFD00070BD0000344D00202DE9F0411F4C054676
:10DFE00094F82C0010B10820BDE8F08144F8101B13
:10DFF0001B4928780860091D68780860E878A077D0
:10E00000012727770020207060776060154EE07749
:10E010006FF00040C6F808034FF48270FFF740FD30
:10E02000B015FFF73DFD4FF48A70FFF739FDA87872
:10E030000D49400181F800048020C91FC1F800018A
:10E040000220C6F80403A07F10B10120C6F8040323
:10E050000348F03807600020C6E70000344D002078
:10E06000F07500400070004007E000E02DE9F0414D
:10E0700017460C460546C1EA07401A4E06EB051145
:10E08000C1F81C0500212846FFF714FD2346012195
:10E0900001EB4502144CC907D140626913F5006FCA
:10E0A0001BD00A436261C6F8040301212846FFF72A
:10E0B00001FD6A004FF00041D140A7F5E0636269BD
:10E0C000FF3B05D00A436261C6F80403BDE8F08156
:10E0D0008A436261C6F80803F8E78A436261C6F8BA
:10E0E0000803E2E700700040344D00202DE9F041C4
:10E0F0002C4D80460B46287C10B11120BDE8F081E4
:10E1000001242C74284E0322C6F808232146184601
:10E11000FFF7ACFC95F82D00012808D90027002254
:10E12000F8B21146FFF7AAFC7F1C082FF7D305EBC6
:10E130004800427F017F4046FFF7A0FC0027346083
:10E140001948001D046042F210744FF48278404672
:10E15000FFF79EFC20B90020FFF7C6FE641EF6D133
:10E160004FF48070FFF79CFC4046FFF799FC95F850
:10E170002D0001280AD9002405EB4400427F017FCD
:10E18000E0B2FFF77BFC641C082CF5D395F82E0059
:10E1900008B1032000E00220C6F8040338462F74BB
:10E1A000ACE70000344D00200070004070B5174906
:10E1B0006FF00040C1F8080380214FF0E0220120F9
:10E1C0000025C2F8801111490831086042F210742C
:10E1D0004FF48A763046FFF75BFC20B90020FFF74A
:10E1E00083FE641EF6D10A4805600A4E3574002489
:10E1F00006EB4400007F10B1E0B2FFF7CBFE641CD9
:10E20000082CF5D386F82C5070BD0000007000403B
:10E2100000750040344D00202DE9FC5F0646007972
:10E220000C4600EB400101EBC001584800EB8107B0
:10E23000387F10B10820BDE8FC9FC7E90023207B90
:10E240004FF0A04B4FF00109012805D8227809FAB8
:10E2500002F0CBF80C0502E02078FFF7ACFB4FF0A2
:10E26000000ACDF800A0CDF804A02078534652460D
:10E270000121FFF742FB65784FF0FF38FF2D07D0F3
:10E2800009FA05F0CBF80C052846FFF75BFB00E028
:10E290004546A078FF2809D0002280460123CDF80A
:10E2A00000A01146CDF804A0FFF727FB3079DFF876
:10E2B000DCB000EB400202EBC0020BEB8200A17865
:10E2C000C177E078FF2804D0FFF775FBE078FFF70F
:10E2D00039FB3279E07802EB420101EBC2010BEB32
:10E2E0008101887731682378C1F80835C1F80C5569
:10E2F000C1F81085A068C1F82405237B607B00B1BC
:10E300000120012B04D0022B05D0032B08D105E0FE
:10E3100040F0020004E040F0040001E040F006009C
:10E32000C1F854053379607903EB430505EBC3036A
:10E330000BEB830282F820004A46C1F8009538684A
:10E34000F8B13068217940F3073000284FEA4111D5
:10E3500006DA00F00F0000F1E02080F8141D03E061
:10E3600000F1E02080F80014306840F3073000F03E
:10E370001F0102FA01F14009800000F1E020C0F81D
:10E380000011504687F81DA03A7754E7644D0020ED
:10E390007CB5017901EB410202EBC101134A02EBAA
:10E3A0008105296861B10168012241F3073101F05B
:10E3B0001F039A404909890001F1E021C1F8802139
:10E3C0000668286810B10420C6F80803E87F002416
:10E3D000FF2806D000230094012219460194FFF77C
:10E3E0008CFAC6F800452C777CBD0000644D0020F7
:10E3F0002DE9F04116460A460179002501EB41035B
:10E4000003EBC101124B03EB81014B7F13B11120D0
:10E41000BDE8F0810C68012304B14B7792E890507D
:10E4200001F10C0888E89050002781F828708C7F53
:10E43000FF2C04D04FF0A04CA340CCF80C3516B103
:10E440004F77062502E0006801F06AF82846DFE70A
:10E45000644D002038B5044600208DF80000684661
:10E46000FBF72EFE0A4A517808290AD22170481C6F
:10E4700050700848026801238B401A430260002450
:10E4800000E004249DF80000FBF73EFE204638BD66
:10E490001824002008050140044A034902EB8000CB
:10E4A000C0F80016704700003546526E000001406B
:10E4B00004490120C1F804030860034902200870E0
:10E4C00070470000000001401824002010B50446E9
:10E4D00011484160017809B1082010BD0121017087
:10E4E0000E4920780860606840F6CD41A0FB01012C
:10E4F00064220023FAF786FF084908390860207A69
:10E500000749400181F800044FF0E0224FF48031C8
:10E510000020C2F8001110BD182400200C05014095
:10E5200010E000E038B1416829B1816819B1C068D4
:10E5300008B1002070474FF0FF30704738B1C16913
:10E5400029B1016A19B1406A08B1002070474FF043
:10E55000FF3070472DE9F04F017889B000297BD159
:10E560000069E14D50F8011B2963090C891E05F172
:10E570003004C9B2FDF78BFB2068C1B25A296BD1B8
:10E58000C0F3033105220027A523241D6E464FF05A
:10E59000070E4FF001090D295ED2DFE801F00729CF
:10E5A0005E82A9F14BA6EFA6EEEDEC002370020A05
:10E5B000206862F30B2061F30F3020601320A070FD
:10E5C00028780E22411C2970216860F31B6121F01C
:10E5D00070452560C5A1301D0095FAF753FF280C42
:10E5E000801EC1B2701CFDF752FB8DF8120074E161
:10E5F0002370020A206862F30B2061F30F30206061
:10E6000084F802E02878411C2970216860F31B61BE
:10E6100021F0704020600D2100908DF80410000C56
:10E62000801EC1B28DF80590701CFDF730FB8DF88F
:10E63000060052E12370030A206863F30B2061F3A4
:10E640000F302060A2702878411C2970216860F387
:10E650001B6121F0704080E047E02370030A2068CE
:10E6600063F30B2061F30F302060A2702878411C07
:10E670002970216860F31B6121F0704020600090D8
:10E68000000C801EC1B2701CFDF701FB8DF8040068
:10E690002068C0F307416846FCF748FB85F8019005
:10E6A00021E02370030A206863F30B2061F30F302D
:10E6B0002060A2702878411C2970216860F31B61DA
:10E6C00021F0704020600090000C801EC1B2701CD0
:10E6D000FDF7DDFA8DF804002068C0F307416846B5
:10E6E000FCF724FB6F70AF70EF7009B0BDE8F08FDE
:10E6F000237095F80080D4F800C0C0F3032A9B462D
:10E700006AF30B2C61F30F3C08F10103DBB268F3F1
:10E710001B6C2B702CF0704CC4F800C0AF706F7283
:10E7200095F801C0BCF1000F22D0BEEB107FDCD108
:10E7300085F80290EF7084F800B020686AF30B202F
:10E7400061F30F302060A270581C2870206863F3BA
:10E750001B6020F0704000F1E04020600090000C51
:10E76000801EC1B2701CFDF792FA8DF80400B4E06F
:10E77000A270686BF2E770E08EE03DE028E0FFE712
:10E780002370020A206862F30B2061F30F302060CF
:10E790000620A0702878411C2970216860F31B6155
:10E7A00021F0704727600097A88AFAF798FF0022A7
:10E7B000524BFAF7FDFEFAF79FFF8DF80400380C74
:10E7C000801EC1B2701CFDF762FA8DF8050084E06E
:10E7D0006F701020FFF7E8F8C820FEF79FFEBFF328
:10E7E0004F8F47480168474A01F4E06111430160D7
:10E7F000BFF34F8F00BFFDE72370030A206863F368
:10E800000B2061F30F302060A270687C0128206823
:10E8100020F070601CD020F0704020600090000C50
:10E82000801EC1B2701CFDF732FA8DF8040020681A
:10E83000C0F307416846FCF779FA85F8019085F83E
:10E840000B902F6285F811906F62AF74AF624CE746
:10E8500000F1007020F070407FE72370030A206809
:10E8600063F30B2061F30F302060A270206820F06A
:10E870007F4020600090000C801EC1B2701CFDF72C
:10E8800006FA8DF804002068C0F307416846FCF7DB
:10E890004DFA6F746F7028E72370030A206863F3E2
:10E8A0000B2061F30F302060A270206820F07060B0
:10E8B00000F1007020F0704020600090000C801E7D
:10E8C000C1B2701CFDF7E3F98DF80400687C0128E3
:10E8D00003D085F81290EF6207E72068C0F3074184
:10E8E0006846FCF723FA00E7C822002041584F4C45
:10E8F00032323031303030303131000000003440BD
:10E900000CED00E00400FA0510B568B103280FD142
:10E910000220FDF7C9F800280AD0BDE8104005A282
:10E9200040F23B11FAF778BCBDE8104000F0DEBCC5
:10E9300010BD00002E2E5C2E2E5C2E2E5C6D6169AB
:10E940006E2E63000078002809D105483B21C08A5B
:10E9500076DF002803D003A2F821FAF75DBC7047E8
:10E96000C82200202E2E5C2E2E5C2E2E5C6D61693E
:10E970006E2E6300F0B58BB0002601960D4604465E
:10E980008988406901AAFBF7D9FB0AA8CDE908608C
:10E990000227ADF82070ADF822602189A88808AA66
:10E9A000ADDF002819D1A069002816D00998FCF71E
:10E9B00089FA002811D0019E0EB101203070182173
:10E9C00002A8FAF778FD8DF808700394A888ADF8CE
:10E9D00010000596A16902A888470BB0F0BDF0B5FC
:10E9E00087B00C4605468E1D8988406906AAFBF74C
:10E9F000A5FB18216846FAF75EFD0195A088069AE6
:10EA0000ADF80800039231882B89002704F1120029
:10EA1000994202D17389022B0DD0AA8991421ED14D
:10EA2000A96900291BD08DF8007004907089ADF899
:10EA30001400A96911E0002A11D0FCF743FA20B1B3
:10EA4000069901200870022002E006980770032052
:10EA50008DF80000A969002901D06846884707B0F1
:10EA6000F0BD0068012803D0022801D000207047C3
:10EA7000012070472DE9F05F2A4F06464FF0A04A6B
:10EA80004FF0010B0024381990F95010491C3CD06C
:10EA900090F85000314620F0C0052846FEF71FFCD4
:10EAA00020B3204600F040F881460AEB8500D0F8FC
:10EAB0000007C0F30148B8F1020F18D00221284620
:10EAC000FEF74AFF0BFA05F1CAF820152846FDF7B4
:10EAD000EBF857F820204AB14846B9F1030F11D09E
