:020000040001F9
:10900000A8460020E1930100E9930100EB930100E1
:10901000ED930100EF930100F193010000000000C7
:10902000000000000000000000000000F3930100B9
:10903000F593010000000000F7930100F99301008F
:109040004D990100FB930100FB930100FB9301008C
:10905000659B010000000000A9980100BD99010076
:10906000FB930100FB930100FB9301009D9901001C
:10907000FB930100FB930100FB930100FB930100B4
:10908000259D0100AD9901000000000000000000D6
:10909000FB930100FB930100A99B0100FB930100DE
:1090A000FB930100FB9301000000000000000000A2
:1090B00000000000000000000000000000000000B0
:1090C00000000000000000000000000000000000A0
:1090D0000000000000000000000000000000000090
:1090E0000000000000000000000000000000000080
:1090F0000000000000000000000000000000000070
:10910000000000000000000000000000000000005F
:10911000000000000000000000000000000000004F
:10912000000000000000000000000000000000003F
:10913000000000000000000000000000000000002F
:10914000000000000000000000000000000000001F
:10915000000000000000000000000000000000000F
:1091600000000000000000000000000000000000FF
:1091700000000000000000000000000000000000EF
:1091800000000000000000000000000000000000DF
:1091900000000000000000000000000000000000CF
:1091A00000000000000000000000000000000000BF
:1091B00000000000000000000000000000000000AF
:1091C000000000000000000000000000000000009F
:1091D000000000000000000000000000000000008F
:1091E000000000000000000000000000000000007F
:1091F000000000000000000000000000000000006F
:10920000DFF810D000F012FB00480047D5DB01006A
:10921000AFF30080A846002000B583B00290009113
:10922000019244F2010071466A4600F0BBFE03B0B1
:1092300000BD000030B450E8012F93B2C48923442C
:109240008489A34228BF1B1B0489A34202BFBFF32A
:109250002F8F002007E0C3EA020340E80134002C0E
:10926000E9D14FF001000A6030BC704750E8012F8F
:10927000C2EA024240E801210029F7D1704730B428
:1092800050E8022F1FFAA2F3C488A34202BFBFF323
:109290002F8F00200DE0C48923448489A34228BF76
:1092A0001B1BC2EA034340E80234002CE8D14FF014
:1092B00001000A6030BC704750E8022FC2EA224227
:1092C00040E802210029F7D17047034653E8022FF6
:1092D000D988B2EB324F4FF0000017BF92B241EA8B
:1092E000014142EA014104E05A68B2EB324F08BF43
:1092F000012043E80212002AE8D1704730B4044646
:1093000054E8000F0D4644E80053002BF8D11560D7
:1093100030BC704730B4044654E8000F40EA010501
:1093200044E80053002BF7D1156030BC704730B4CF
:10933000044654E8000F00EA010544E80053002BFE
:10934000F7D1156030BC704730B4044654E8000FC4
:1093500080EA010544E80053002BF7D1156030BCCA
:10936000704730B4044654E8000F00EB010544E8B0
:109370000053002BF7D1156030BC704730B4044661
:1093800054E8000FA0EB010544E80053002BF7D18F
:10939000156030BC704770B404464FF0000054E8CC
:1093A000006F0D68AE4207BF44E80023012044E887
:1093B00000630E60002B1CBF0020F0E770BC7047FC
:1093C00030B4044654E8000F88422CBF451A0546C5
:1093D00044E80053002BF5D1156030BC7047000005
:1093E0000648804706480047FEE7FEE7FEE7FEE73F
:1093F000FEE7FEE7FEE7FEE7FEE7FEE7AD9B0100C6
:10940000019201002DE9F05F0546002092469B463F
:1094100088460646814640241BE02846414647468A
:10942000224600F096F953465A46C01A914110D38D
:1094300011461846224600F016F82D1A67EB01086F
:109440004F4622460120002100F00DF817EB0009DD
:109450004E41201EA4F10104DFDC484631462A4675
:109460004346BDE8F09F202A04DB203A00FA02F1CF
:10947000002070479140C2F1200320FA03F3194302
:1094800090407047004870472C2C020040EA0103CE
:109490009B0703D009E008C9121F08C0042AFAD2AA
:1094A00003E011F8013B00F8013B521EF9D270476E
:1094B000D2B201E000F8012B491EFBD27047002216
:1094C000F6E710B513460A4604461946FFF7F0FFC3
:1094D000204610BD421C10F8011B0029FBD1801A48
:1094E0007047034611F8012B00F8012B002AF9D12F
:1094F000184670472DE9FE4F81EA030404F000444A
:1095000021F0004100944FF0000B23F0004350EA9B
:1095100001045ED052EA03045BD0C3F30A54C1F3E2
:109520000A552C44A4F2F3340194A0FB0254C1F375
:10953000130141F48011C3F3130343F4801301FBBF
:10954000024400FB034E840A970A44EA815447EA26
:109550008357A4FB076802958D0A05FB07854FEA30
:10956000932C04FB0C542705029D4FEA065847EA4A
:109570001637B5EB08056EEB070C870E920E47EA1F
:10958000811742EA8312A7FB0201B6EB0B0164EBE1
:1095900000042B0D43EA0C335E1844EB1C50DA46F2
:1095A0005146E7FB0201C5F313044FEA0B3343EACC
:1095B00014534FEA0432019C43EA0603A4F10C045D
:1095C0000294009CCDE900B400F0E2F803B0BDE8DD
:1095D000F08F00200146F9E72DE9F04D81EA030400
:1095E00004F0004B21F0004514464FF0000A23F030
:1095F000004150EA050220D054EA01021DD0C5F313
:109600000A570246C5F31303C1F31300C1F30A5608
:1096100040F4801543F48013A7EB0608101BD646D0
:1096200008F2FD3873EB050002D308F1010801E0F0
:1096300092185B41B8F1000F03DA00200146BDE843
:10964000F08D00204FF48011064684460EE0171B73
:1096500073EB050705D3121B63EB050306434CEAC6
:10966000010C49084FEA300092185B4150EA0107AB
:10967000EDD152EA030012D082EA040083EA050128
:10968000084305D0101BAB4106D20122002306E09F
:1096900000224FF0004302E06FF0010253101AEB7A
:1096A00006004CEB085110EB0A0041EB0B01BDE842
:1096B000F04D00F05EB870B521F0004303430CD0CC
:1096C000C1F30A550024D5EB040564EB0403D61757
:1096D000AD1AB34102DB0020014670BD201841EBFA
:1096E000025170BD0EB5C10F80EAE0700844CA0790
:1096F000002140F233438DE80E000A460B4600F08D
:1097000047F803B000BD0EB540F23341029100218D
:10971000CDE900110A460B4600F03AF803B000BD4F
:10972000C1F30A5210B5C1F3130140F2FF3341F403
:1097300080119A4201DA002010BD40F233439A4270
:10974000A2F2334203DC524200F003F810BD904015
:1097500010BD202A04DB203A21FA02F000217047D4
:1097600021FA02F3D040C2F1200291400843194689
:10977000704710B5141E73F1000408DA401C41F163
:10978000000192185B411A4301D120F0010010BD85
:109790002DE9F04D92469B4611B1B1FA81F202E0FB
:1097A000B0FA80F220329046FFF75DFE04460F4685
:1097B00040EA0A0041EA0B0153465A46084313D0D7
:1097C000114653EA010019D0C8F140025046FFF794
:1097D000C0FF05460E46504659464246FFF743FE37
:1097E000084305D0012004E020463946BDE8F08D4D
:1097F0000020054346EAE0762C4337430A98630588
:10980000E40AA0EB08000022FD0A44EA47540A30AB
:1098100002D500200146E9E7010510196941DDE99B
:10982000084500196941BDE8F04DA2E7064C074D17
:1098300006E0E06840F0010394E807009847103420
:10984000AC42F6D3FFF7E0FCE83302000834020034
:1098500070B58C1810F8015B15F0070301D110F8F2
:10986000013B2A1106D110F8012B03E010F8016B1F
:1098700001F8016B5B1EF9D12B0705D40023521EA2
:109880000DD401F8013BFAE710F8013BCB1A921C0A
:1098900003E013F8015B01F8015B521EF9D5A14208
:1098A000D8D3002070BD00002DE9F8430025DFF873
:1098B00094804FF4807601242F460095304605F0C1
:1098C00071FB38B1D8F80403204203D0304605F0CC
:1098D0005FFB2543361D64007F1CB6B2082FEDD315
:1098E0004FF4BE74204605F05DFB48B1204605F0FC
:1098F0004FFB45F000456A460121002005F00AFBB8
:1099000015F0FF0F16D0012600242E420ED008EBD2
:109910008401D1F81005D1F81015C0F304200A4ACB
:10992000C1F3014152F8242002B190477600641C33
:10993000082CEAD3002D02DA684607F07DFBBDE86B
:10994000F8830000006000406032002070B54FF4E2
:109950008076304604F0C6FE0F4DB40540B1304667
:1099600004F0C7FE0120C4F80803296800208847D6
:109970004FF48276304604F0B5FE00280AD0304617
:1099800004F0B7FE0220C4F808032968BDE870405F
:109990000120084770BD00000024002003220021A0
:1099A000014804F029B8000000B000400249024814
:1099B000091F096800680847482400202DE9FE4374
:1099C0004FF48278404605F0B7FE4C4F00254C4CD2
:1099D000012600B3404605F0B7FE94F82E0010B102
:1099E00094F82F10D1B18DF8005061680191218950
:1099F000ADF80810E26832B1218B61836260218189
:109A0000E56010B102E0257400E03E602168684620
:109A1000884784F82F5094F82E0060B34FF4807775
:109A2000384605F089FE30B3384605F08DFE628B6E
:109A300094F82D108A420AD9A2EB010080B260830B
:109A40002289A2EB0000626802EB400005E007D12A
:109A5000E06828B184F82F60658305F05BFE04E0C0
:109A60008A4202D184F82F606583404605F06CFE7F
:109A70002248001D06604FF48877384605F05CFEEA
:109A800048B1384605F060FE257402208DF80000CC
:109A90002168684688474FF48A77384605F04CFEBF
:109AA00028B1384605F050FE2574BDE8FE834FF01E
:109AB00000484FF48C7967691DE000BFB7FA87F062
:109AC00028FA00F109EB80058F43284605F034FEA3
:109AD00088B1284605F038FEA5F58C75E8088DF8A4
:109AE000040045F38000401C8DF800608DF80500EF
:109AF000216868468847002FE0D1D6E70070004013
:109B0000BC32002000F020B970B50E46144900EBBD
:109B1000400001EBC0051446E86A183520B1012861
:109B20000FD0022805D113E0284600F041F9A042E9
:109B300001D2002411E022463146284600F070F997
:109B40000BE0284600F034F9A042F4D20446F2E7D4
:109B50003146284600F037F90446204670BD000023
:109B6000203A002038B54FF040200E4C0025C0F8B8
:109B70000851D0F808110091214608F06DFC00282A
:109B80000ED1A07FFF2801D005F0F0F9657725728E
:109B9000D4E9002101B004F10800BDE830401047CD
:109BA00038BD0000EC32002006F01AB830B54FF096
:109BB0008051D1F84412504AC1F3423111604FF044
:109BC00080420021C2F80C11C2F810114A4A121F3B
:109BD00011604A4A12684A4B1A60484A121D1268BC
:109BE0001B1D1A60454A083212681B1D1A60434A41
:109BF0000C3212681B1D1A60404A103212681B1D7D
:109C00001A603E4A143212681B1D1A603B4A183211
:109C100012683B4B20331A60384A1C3212681B1DF5
:109C20001A60364A203212681B1D1A60334A2432E9
:109C300012681B1D1A60314A283212681B1D1A60F7
:109C40002E4A2C3212681B1D1A602C4A30321268C0
:109C50002B4B40331A60294A343212681B1D1A609C
:109C6000264A383212681B1D1A60244A3C32126898
:109C70001B1D1A60214A403212681B1D1A60214ABE
:109C80001368DB0701D08B1E13601F48026842F087
:109C90000F0202604FF01022D2F80002002803DB0E
:109CA000D2F80402002822DA184B01201860184864
:109CB0000468002CFCD01524C2F800420568002D71
:109CC000FCD0C2F804420268002AFCD01960016886
:109CD0000029FCD0BFF34F8F0E4801680E4A01F4F3
:109CE000E06111430160BFF34F8F00BFFDE70C49F6
:109CF0000A48086030BD00003C0500400404001024
:109D000020C5004000040040E40E004004E501408E
:109D100000E401400CED00E00400FA050090D003DF
:109D2000C824002038B5064C20680025002805D03E
:109D300004484068804725602068009038BD0000D6
:109D4000000101401024002010B5124C02202061B7
:109D5000606111A0A06104F17800E0614FF400702F
:109D600020620020A06260620BA1A164E06204F5A1
:109D70001E71E1641021A065C4E91410E06509A119
:109D8000E01DFFF7AEFB08A12046FFF7AAFB20204D
:109D9000A07110BD203A00205465726D696E616C2F
:109DA00000000000525454005345474745520000FC
:109DB0000269C1688A4203D88068401A104400E0F2
:109DC000501A401E70472DE9F047C468174689466F
:109DD00006464FF000083069A04201D9051B02E099
:109DE000B168201A0D1AB0686D1E001BA84200D879
:109DF0000546BD4200D33D4670682A462044494688
:109E0000FFF744FBB0687F1B2C44A844A944A04240
:109E100000D10024F460002FDDD14046BDE8F0877A
:109E20002DE9F04104468846D4E90207C51BE168E4
:109E3000606816460844B54206D94146FFF726FB3E
:109E4000B819E060BDE8F0812A464146FFF71EFBE5
:109E5000761B08EB050132466068FFF717FBE660EA
:109E6000F0E702E008C8121F08C1002AFAD17047C3
:109E70007047002001E001C1121F002AFBD170478A
:109E80000121202803DA81400548014003E04028F1
:109E900002DA2038814009B1012070470020704764
:109EA000FC06FFBD800701D00020704701207047ED
:109EB000C3688B4206D811440069491E814201D80B
:109EC000012070470020704790F824001F20704741
:109ED00010B501220221002002F0B0F808B10728D5
:109EE00010D107220221012002F0A8F808B10728AA
:109EF00008D100210A22084602F0A0F808B107287C
:109F000000D1002010BD000010B5ACB00420214CE1
:109F10008DF8AC000D202080AC216846FFF7CFFA09
:109F200002208DF8000000208DF8020006218DF837
:109F300003102BA9019101210994ADF84C10164A88
:109F40008DF87C1014924FF4C861CDE922101348AB
:109F500029906946A4F1F80000F063FC20B1104A92
:109F60004FF4D871FFF758F90A480121F83800F08A
:109F700055FC08489DF9AC20F83890F854100120A1
:109F800077DF002804D0064A4FF4DA71FFF744F96E
:109F90002CB010BDE82C0020DC2200204D0C02006B
:109FA000A80C0200FEB515460E46074672B605F02F
:109FB0008FFA00BF05F0C4F80028FBD12249234ADC
:109FC0000120891AC90800EB0144012F22D06FF447
:109FD0008050381821D0B0F5405F23D06FF4405145
:109FE000C842204605D1D5E9003219A105F0CDF9C6
:109FF00003E032461DA105F0C1F922480068C00700
:10A0000000D000BE2A4603B031463846BDE8F040D5
:10A0100000F07AB820461CA101E0204622A105F0FC
:10A02000A9F9EAE7A86805F0AFFE0346D5E9000103
:10A03000CDE900100296204624A1AA6805F0B6F9E1
:10A0400020462CA1EBE700008834020018340200FF
:10A05000415353455254494F4E204641494C454483
:10A060002061742025733A2575000000554E4B4E33
:10A070004F574E204641554C54206174203078256E
:10A0800030385800F0ED00E0534F465444455649EF
:10A0900043453A20415353455254494F4E2046417F
:10A0A000494C454400000000534F4654444556492E
:10A0B00043453A20494E56414C4944204D454D4F69
:10A0C0005259204143434553530000004552524FDB
:10A0D00052202575205B25735D2061742025733A1D
:10A0E00025750D0A50432061743A203078253038A8
:10A0F00078000000456E64206F66206572726F7292
:10A10000207265706F72740008B501238DF80030FD
:10A110009DF80030144B186059609A606FF48041CC
:10A12000401807D001280FD1DA60D868006898611C
:10A13000D86807E01A611869806858611869006872
:10A14000986118694068D861186858689868D86834
:10A15000186958699869D86972B600BF9DF80000FF
:10A160000028FBD162B608BD1833002008214171D8
:10A1700005218171122101710021C1711421017326
:10A1800001F0EBBC2DE9FC41054642208DF80400AE
:10A1900003208DF800002B4601226946682001F05B
:10A1A00097FC287D102120F0F00040F00F00697529
:10A1B00080302875284601F0BBF906002148224965
:10A1C000A0EB01004FEAD0004FF0030101EB004487
:10A1D00003D0204632461DA11CE0234801F097FD24
:10A1E000060003D02046324620A113E01E4F022075
:10A1F00087F82600384601F01FFE060007D101202F
:10A2000087F82200384601F0F5FD060007D0204609
:10A2100032461CA105F0B2F83046BDE8FC81287D2D
:10A22000294620F0F0008030287501A801F0B7FA27
:10A230000500F2D020462A4618A105F09FF82846CE
:10A24000EBE700008834020018340200626D6931C7
:10A2500036302061757820696E6974206572726F7E
:10A26000723A25640A00000014230020626D6D31EB
:10A27000353020696E6974206572726F723A256498
:10A280000A000000626D6D31353020736574206FF7
:10A2900070206572726F723A25640A00626D6931CE
:10A2A00036302073657420617578206175746F2075
:10A2B0006D6F6465206572726F723A25640A0000E2
:10A2C000FEB52749054601F580602A4601604FF436
:10A2D00080618180A8610021FE2001F09CFA0600C7
:10A2E00020482149A0EB01004FEAD0004FF00301C4
:10A2F00001EB004403D0204632461CA112E02A465E
:10A300000121F02001F087FA020003D0204625A1A8
:10A3100005F034F8284601F0BEFA060006D02046C3
:10A3200032462CA105F02AF83046FEBD02208DF8F9
:10A3300000000A208DF80100BDF80200294620F433
:10A34000F97040F00D00ADF802009DF8080040F0F3
:10A3500002008DF80800684601F0ADFAFEBD00006D
:10A36000382D00208834020018340200436C6561E7
:10A3700072204649464F20636F6E66696775726149
:10A3800074696F6E20726567697374657220657297
:10A39000726F722C206572726F7220636F64653AFF
:10A3A00020256400626D693136305F7365745F66C5
:10A3B00069666F5F636F6E666967206572726F7240
:10A3C0002C206572726F7220636F64653A20256479
:10A3D00000000000466C757368204649464F2065B2
:10A3E00072726F722C206572726F7220636F646577
:10A3F0003A20256400000000082141730221817386
:10A40000152101730021C17301F0A7BB03F076B9D8
:10A41000014802F014BD00002824002010B55AB1F4
:10A4200000684FF0FF3401294261C0E9024400D0C6
:10A4300000210161002010BD072010BD38B5114872
:10A4400008235822416800910F49006803F060FF1B
:10A45000002815D10D4A69460D4802F0F5FC0400AC
:10A460000ED101210A4802F066FD0123094A19466E
:10A47000074802F0BCFC0649012008390870204654
:10A4800038BD00006828020048330020851402000F
:10A4900028240020FFFF7F00F8B504460026174659
:10A4A0000D468DF80060684600F042F8D4E90201DC
:10A4B000C04370EA010005D09DF8000000F05CF890
:10A4C0000020F8BD03F07CF840197141C4E9020195
:10A4D0009DF8000000F050F8A761206900B12561E7
:10A4E0002146BDE8F840002007F09ABF38B5044681
:10A4F00000208DF80000684600F01AF8D4E9020147
:10A50000C04370EA01000DD04FF0FF30C4E90200F3
:10A510009DF8000000F030F82146BDE838400120E9
:10A5200007F07EBF9DF8000000F026F8002038BD3F
:10A5300030B5EFF3108172B60D4A9468012324B14F
:10A540000370002900D162B630BD93604FF0E02364
:10A55000D3F88051074C25401560C3F88041D3F8EB
:10A56000844154605A17C3F8842100220270E8E73E
:10A57000A0330020FC06FFBD0B498A68002A11D0D9
:10A5800000280FD1EFF3108072B60B684FF0E02275
:10A59000C2F800314B68C2F8043100228A600028FA
:10A5A00000D162B670470000A033002070B51500DE
:10A5B000044609D00020286034B1206820B1A07979
:10A5C000800703D0072070BD0E2070BD084600F044
:10A5D0000FFBC0B2142804D02179814203D8042093
:10A5E00070BD052070BDE288216800FB0210286064
:10A5F000002070BD70B5094DA87800280DD008481E
:10A6000090F8540074DF041E04D006A240F2A76143
:10A61000FEF702FE0020A870204670BDC822002070
:10A62000F02B00202E2E5C2E2E5C2E2E5C6D616990
:10A630006E2E63002DE9FC4700251788064615801D
:10A6400090F82D001446894630B13A4621464846D6
:10A6500000F0E2FA051E09D1B0784FF00C0A18B3E9
:10A660002088C846001DB84202D95046BDE8FC8784
:10A67000684679DF0028F9D12088032108F8001006
:10A6800020881921401C80B2208008F80010208802
:10A69000401C80B2208000EB0801BDF8000007F0EC
:10A6A0000DFF218808442080F0780222C8B121885B
:10A6B00096F9033001F1030C4846BC45D5D8425405
:10A6C00021884FF0010C491C89B2218000F801C09B
:10A6D0002188491C89B2218009F801302088401C5A
:10A6E00020807068B8B1218890F9003001F1030C26
:10A6F0004846BC45B9D8425421880A22491C89B22F
:10A70000218042542188491C89B2218009F80130F6
:10A710002088401C2080308950B1CDE900474B464D
:10A720000622022106F1080007F08AFF051E9DD1CE
:10A73000308A50B1CDE900474B460722032106F18C
:10A74000100007F07DFF051E90D1308B50B1CDE990
:10A7500000474B461522142106F1180007F070FF40
:10A76000051E83D1306A30B13B462246494602F08D
:10A77000AEFA051EDBD1706A30B13B46224649462F
:10A7800003F020FC051ED2D196F82C0038B13B46D0
:10A7900022464946304607F03BF8051EC7D13078BF
:10A7A00038B13B4622464946304603F00FFD051EB0
:10A7B000BDD128465AE718B504460020ADF8000080
:10A7C00013466A46204600F006F8002802D0BDF87D
:10A7D0000000204418BD70B5E0B1DAB1002402E0F9
:10A7E000045D2C44A4B2651C8D4206D21688A64294
:10A7F000F6D8061976789E42F2D18C420AD2A31C72
:10A80000005D9BB200B1401E0004000C02D01C1879
:10A810008C4201D9002070BD138070BD80F83010CB
:10A8200070472DE9F0410D00044606D02CB195F893
:10A830007A000026012803D006E00E20BDE8F08152
:10A8400095F89800012829D0D5F8A000042825D033
:10A85000D5F89C00042821D04FF00108A6702C22C6
:10A8600005F17801201DFEF711FE84F83060D5F85F
:10A87000A4006063D5F8A800A0634FF6FF70A4F8A9
:10A88000E80004F1D400C4F8E400C4F8EA60A4F8D5
:10A89000EE6084F8F060207810B104E00720CDE786
:10A8A000FF2084F8540004F155072046C4F8D47002
:10A8B000FFF70AFBA4F8D80004F1D802394628466D
:10A8C000FFF7B8FE0028B9D104F19300C4F8DC000A
:10A8D0002046FFF7F9FAA4F8E00004F1E00205F1E0
:10A8E0003C00D4F8DC10FFF7A5FE0028A6D184F8C0
:10A8F0005180208BA4F8480084F83C80266484F8BA
:10A900005060606900216064454604F13C02781E95
:10A9100072DF002892D1257090E710B50288102AC6
:10A920001BD0112A20D0262A1DD1007A0C460128DE
:10A9300001D0022817D1A0780521401CB0FBF1F20C
:10A9400001FB1201204600F01DF800280BD0A16B7E
:10A95000002908D0BDE810400847C27B012A02D177
:10A960008088A1F8E80010BD0C46002184F8F210A0
:10A970008088B4F8E8108842F5D120790028F2D117
:10A980000121DFE72DE9F05F044600780F4698B11A
:10A99000A7700025C4F8EA50A4F8EE5084F8F050EF
:10A9A000A079012608B1012F09D0E07980B1012FEB
:10A9B00005D0022F03D00BE00820BDE8F09F616BAB
:10A9C00021B184F8F1600820884701E084F8F15053
:10A9D00004F1EB0100200A5C0AB1304603E0401CA0
:10A9E0000628F8D300204FF002084FF0030A4FF07A
:10A9F000040B012F06D0022F0CD0032F0FD0042FF1
:10AA000015D110E0A17929B194F8241011B908B139
:10AA100030460DE0E17911B108B1404608E0207AF6
:10AA200008B1504604E0607A08B1584600E0284674
:10AA3000A070616B41B1032801D0042804D1607972
:10AA400010B194F8F20098B184F8F35004F13C008E
:10AA500018210746FEF733FD84F83C6004F12C0012
:10AA600006F0BAFA58B194F82C0084F8510008E0C6
:10AA700084F8F45084F8F36007208847E6E784F808
:10AA8000516094F8240058B104F1280006F0A4FAAB
:10AA900020B194F8280084F8520001E084F8526054
:10AAA00084F85050A27804F1EA0104F1D409052A8F
:10AAB0004DD2DFE802F065030F1B320084F83160ED
:10AAC000C4F8E450C4E9101584F83C808020A4F850
:10AAD00048003EE084F8318087F800A0228ABA81DD
:10AAE000C4F8E4507960E168B96032E06069B86048
:10AAF000208BB8813D4684F83C60204607F082FDFB
:10AB000040B185F814800421204602F093FBF0B98F
:10AB1000052115E084F831A017E0E069B860208CC9
:10AB2000B8813D4684F83C60204607F06BFD50B18B
:10AB300085F814800421204602F07CFB38B90621F8
:10AB400084F8311001E084F831B0C4F8E490A078C2
:10AB500078B13A4604F15400D4F8E41072DF0028CA
:10AB60007FF42BAF94F8301094F8540073DF002872
:10AB7000F6D1616B11B194F83100884700201CE7D1
:10AB800084F83150F5E7000070B5040012D001469A
:10AB90001C221448FEF77AFC1248134D0560206809
:10ABA00050B17ADF002806D120680168296040682A
:10ABB000686005E00E2070BD0B487BDF0028FAD1ED
:10ABC00008484FF6FF711438084A20F8041B05495D
:10ABD000343901600021FFF721FC0028EBD003206D
:10ABE00070BD0000B4310020F82300209D25020034
:10ABF00010B5044600F006F808B1204610BD142038
:10AC000010BD0000142801D3002070470146014800
:10AC100003F0C8BBD43100207CB5054608880C463B
:10AC20000930904201D90C207CBD68466DDF0028B8
:10AC3000FAD121880820685420881B21401C80B24A
:10AC4000208029542088401C80B220802844DDF8D0
:10AC500001100160BDF8051081802088801D80B240
:10AC600020809DF80010490800D001212954208837
:10AC7000401C208000207CBDF8B5054601883F4877
:10AC80003F4A404C801AC008268A21294ED01ADC3F
:10AC90003B4A3A4B4FF00300A3EB02024FEAD202C9
:10ACA00000EB0240102920D011292CD0132950D1BB
:10ACB00000231A46852130467FDF002849D032A282
:10ACC00040F247110DE03B294FD0522942D056297E
:10ACD0003FD1A888132176DF00283AD02AA240F27B
:10ACE0005B11BDE8F840FEF797BA2BA104F042FBD8
:10ACF000A98821822C4803F07DFC002829D022A2BB
:10AD000040F22511EDE729A104F034FB0020207169
:10AD10006071A071207360734FF6FF7020826078BD
:10AD2000002816D0BDE8F840FFF764BC042101EB11
:10AD3000004023A104F01EFB2648694600680090ED
:10AD4000A8888FDF002804D00FA24FF4A071FEF76F
:10AD500063FAF8BD00231A4619463046B1DF0028D1
:10AD6000F7D009A240F24D11BBE7A888132176DF86
:10AD70000028EED004A24FF4AA71B2E78834020092
:10AD800018340200C82200202E2E5C2E2E5C2E2E9F
:10AD90005C6D61696E2E6300424C4520436F6E6EA0
:10ADA0006563746564000000E42B0020424C45207C
:10ADB000446973636F6E6E656374656400000000C0
:10ADC00050485920757064617465207265717565AD
:10ADD00073742E00E027020010B51A4C01886068D9
:10ADE00010290ED011292BD1401E606028D1FFF709
:10ADF0006FF8002824D02168002921D0BDE8104038
:10AE00000847D0B900210122084601F017F908B11E
:10AE100007280FD107220221012001F00FF908B104
:10AE2000072807D104220221002001F007F920B1F0
:10AE3000072802D0216801B188476068401C606023
:10AE400010BD0000F02300202DE9F04701883B4EA3
:10AE500040F2F3194FF6FF7510291BD011293ED08F
:10AE6000122954D0502946D1C188F289841D9142BB
:10AE700041D1618902293ED18688304602F044FDE5
:10AE8000050038D004F10C0000F026FBA8B32946D9
:10AE900030464EE0C17B8788044601292BD1A84665
:10AEA000284602F031FD050017D02F8000202872BF
:10AEB000234843464A460168C5F80A104068C5F869
:10AEC0000E0004F1100105F10A0002F0EDFD6872B8
:10AED000F08900280FD129462AE0042013E0808859
:10AEE00002F012FD040006D06068FFF7FFFA08B117
:10AEF00006F05EFC2580BDE8F087FFE76868FFF795
:10AF0000F5FA0028F7D0BDE8F04706F051BC878875
:10AF10000646384602F0F8FC0400ECD02B464A46C0
:10AF200006F1080104F10A0002F0BEFD607221463C
:10AF30003846BDE8F04701F01BBF0000B4310020E7
:10AF4000F82300202DE9F04702888688DFF8FCA06E
:10AF500098B0102A0DD0112A48D00AF11003192AEE
:10AF600063D01A2A6ED1007A0409042C45D3012239
:10AF700044E0364C083CA068C0430B9061680BA8C5
:10AF800003F034FA0B990CA801F082FE2C220CA9D4
:10AF90006846FEF77BFA0027E8460FE008EB47001B
:10AFA0005FF00005B0F8049004EB85004946001DF1
:10AFB00003F0EDF96D1C1E2DF6D37F1C0098B842EE
:10AFC000ECD8142E07D318B0F021BDE8F04720A22A
:10AFD0000420FEF721B93146504603F0EEF918B0CF
:10AFE0003146201DBDE8F04703F0E7B918B03146FF
:10AFF0005046BDE8F04703F0CAB900223146184672
:10B0000002F013F9032C01D3012200E000220F48C3
:10B0100031460C3002F009F9022C01D3012200E084
:10B0200000220A483146083007E0017A002909D198
:10B03000407A3146C0F3C002184618B0BDE8F04768
:10B0400002F0F3B818B0BDE8F0870000D831002056
:10B050002E2E5C2E2E5C2E2E5C2E2E5C2E2E5C2E2A
:10B060002E5C636F6D706F6E656E74735C626C6581
:10B070005C636F6D6D6F6E5C626C655F636F6E6E4F
:10B080005F73746174652E6300000000F0B585B0D5
:10B0900016460F4604001D4614D004AA19466069DE
:10B0A000FFF784FA00280BD1A5F57F40FF380BD0BD
:10B0B000049848B1007848B13088F42808D90720AE
:10B0C00005B0F0BD0E20FBE70520F9E70820F7E703
:10B0D00000200090019002900390A088ADF800003D
:10B0E00001208DF80200CDE9026769462846AEDFEF
:10B0F000E6E7000070B5334D04008EB02DCD08AEEC
:10B1000086E82D005BD0E9B30868A061214608A855
:10B1100062DF002851D1207801258DF83200ADF88A
:10B120003050A21C0CA92846A8DF002845D12021B8
:10B130006846FEF7C4F90220ADF8000020788DF8CB
:10B1400002008DF80C509DF80D00F426ADF8046057
:10B1500040F00C008DF81150ADF806508DF80D0040
:10B160008DF81250608804F10C02694601F030F944
:10B17000002822D120216846FEF7A1F90320ADF86E
:10B18000000000E01BE020788DF802008DF80C50E4
:10B190009DF80D008DF81150ADF8046040F01000DE
:10B1A0008DF81250ADF806508DF80D008DF8135043
:10B1B0006088221D694601F00BF90EB070BD0E20AB
:10B1C000FBE700004C28020030B587B00446002998
:10B1D00028D0002C26D008462188102924D05029B8
:10B1E00028D057291ED10546A18840696A46FFF735
:10B1F000DDF9002816D100980078002812D0A8693F
:10B2000000280FD0182101A8FEF759F901208DF868
:10B2100004000295A088ADF80C0000980490A9697C
:10B2200001A8884707B030BD07B02146BDE83040CF
:10B2300005F05ABD07B02146BDE8304005F08ABE92
:10B24000F8B50D4D0C4606460B48ADF800402B8A6C
:10B250006A4631463030FFF719FF08280AD0132814
:10B26000F2D0052806D0002804D004A240F2B5414F
:10B27000FDF7D2FFF8BD0000C82200202E2E5C2E64
:10B280002E5C2E2E5C6D61696E2E63003EB51C4BEC
:10B290001A6860F30F3261F31B621A481A491A6088
:10B2A000401AC108032000EB0140C2F303320546F7
:10B2B00016A104F063F820211648FEF700F91048A3
:10B2C00014492C387039C06A0867000C801E114C74
:10B2D000C1B2601C01F036F82071E178A2780092CA
:10B2E000CDE901106378227828460BA104F05EF8BE
:10B2F00003B02046BDE830400521FFF7A1BF0000A4
:10B30000F42200208834020018340200636D643A8D
:10B3100025327800503100202532782532782532C8
:10B32000782532782532780070B5A52161F30702BF
:10B330001849184DA6B00988283D090A61F30B2267
:10B3400022F47041952201F5804162F3174121F00A
:10B3500070440146287A902260F31B646E4601A86F
:10B360000094FEF793F8C4F30744A01EC1B2701C0A
:10B3700000F0E8FF8DF8940021466846FFF760FF73
:10B38000287A401CC0B22872102801D300202872ED
:10B3900026B070BDF022002070B590212C48FEF739
:10B3A0008EF82C4C2D4D43F6FF73E07AE2691118AC
:10B3B0002948401BC008032505EB0045994224D2CB
:10B3C000284627A102F53032636A03F0DEFFE06908
:10B3D00090221F4900F5303002F046F928B1284686
:10B3E000BDE8704026A103F0C5BF9021184801F0C8
:10B3F000FFF828B91648FFF797FF606A401C6062A3
:10B40000E17AE0690844E06170BD204805F027FF5B
:10B4100068B128461EA1626A03F0B0FF0020607385
:10B420006062BDE8704001210B20FFF72FBF084983
:10B43000164805F02FFF0648FFF776FF284620A1A3
:10B44000626A03F09BFF606A401C606270BD00008E
:10B45000442B0020C8220020883402001834020047
:10B460007265616420616464723A307825782C6773
:10B470005F735F73656E645F636E743A256400008A
:10B4800072656164206572726F7200007025002021
:10B49000717565756520616E6420666C61736820E6
:10B4A00061726520656D7074792C2073656E6420FF
:10B4B00066696E6973682C636E743A2564000000D7
:10B4C000717565756520675F735F73656E645F6333
:10B4D0006E743A2564000000007800F001007047A7
:10B4E00008B504F043FB20B10D4A40F26D11FDF7A1
:10B4F00093FE002000906946012004F041F920B13C
:10B50000074A40F27311FDF787FE684604F0CCF954
:10B51000002804D0024A40F27711FDF77DFE08BDF5
:10B52000A80C02000149012008707047C8220020C1
:10B530001CB5044605F086F810B14FF0FF301CBD75
:10B54000207DC00729D000208DF8000019208DF83B
:10B5500004002346012201A97E2000F0B9FAA8B90F
:10B56000616A012088472346012269466B2000F06A
:10B57000A4F89DF8001041F020018DF8001028B9C2
:10B580002346012269466B2000F0A2FA0028D6D19A
:10B590002046BDE81C4000F05DB86FF004001CBD03
:10B5A000F8B50446BBB1D869A8B11D7D6FF00400A1
:10B5B000EE070FD0C5F3810585B1012D10D0022D06
:10B5C00010D0032D06D10820009313460A462146C9
:10B5D00001F0E1FDF8BD4FF0FF30F8BD0120F3E7C9
:10B5E0000220F1E70620EFE72DE9FF414FF00004CC
:10B5F0001E0017468846254601D0306A20BB4FF012
:10B60000FF3423E03346012241464F2000F060FA28
:10B610000446716A0A208847A4B933460122694664
:10B620004E2000F055FA0446716A0A2088474CB94A
:10B63000781E854206DA9DF8000008F10108401CDA
:10B640008DF800006D1CEDB2BD42DBD304B0204686
:10B65000BDE8F08138B5044600200090607D2346A7
:10B6600040008DF8000001224C200DF1010100F096
:10B6700024F805001FD19DF80100217D20F08000F5
:10B68000490840EAC1108DF80100217D20F0030037
:10B69000C1F38101084320F03C0040F00C008DF81C
:10B6A00001002346022269464B2000F011FA0546AC
:10B6B000616A0A208847284638BD30B433B1DC6956
:10B6C00024B13AB19D78012D07D008E04FF0FF304A
:10B6D00030BC70476FF00B00FAE740F080005D78F7
:10B6E00013460A4601462846A44630BC6047F0B4DB
:10B6F0001446024602F007020020950802F00306F5
:10B7000000D003204FF0FF32CBB1012E06D0022E25
:10B7100009D0032E0DD0101FF0BC704779B1F0BCDA
:10B720001A4601F049BE54B12146F0BC1A4601F058
:10B73000F3BE24B119B12246F0BC01F072BE10462E
:10B74000EAE738B50446032504F07CFF00281FD142
:10B75000A178012907D12346012269467F20FFF7FE
:10B76000ACFF002814D10021217005E023460122FE
:10B7700019460020FFF7A1FF6D1EEDB202D321781C
:10B78000D829F3D110B92078D82802D06FF0020060
:10B7900038BDFF20E070204600F04CFA38BD38B5C7
:10B7A00005460C46084604F04DFF10B14FF0FF353A
:10B7B0002FE0207DC0072AD02346012229464D20B4
:10B7C00000F086F90546616A0A2088470DBB2346CA
:10B7D000012269464420FFF770FF05000DD1207D4E
:10B7E000234600098DF8000001226946442000F03C
:10B7F0006FF90546616A0A20884755B9207D20F017
:10B80000020020752046FFF725FF054601E06FF096
:10B810000405284638BDF8B50F464FF00001140066
:10B820008DF800104FF0470600F0FE052ED01346AD
:10B83000012269463046FFF740FF002825D135B187
:10B840009DF80000012F24D0A8438DF80000234666
:10B8500001226946304600F03BF9002815D1234605
:10B86000012269463046FFF728FF00280DD19DF8D8
:10B870000010A36901F01002DA71A36901F0E0027F
:10B8800001F002011A72A2699171F8BD4FF0FF3008
:10B89000F8BD2843D9E738B5B0218DF800107E24D3
:10B8A00030B1034601226946204600F011F938BD47
:10B8B0004FF0FF3038BDF8B506460D4600207178D0
:10B8C000441E07460E291CD2DFE801F0071C2E2873
:10B8D00028343A4640224C6F84A5284604F0B2FE34
:10B8E00070B96EB1341D2946204601F0A3FB002833
:10B8F00007D12A4621463046BDE8F84000F0A0BFF7
:10B900002046F8BD29463046BDE8F84006F0BAB9F1
:10B9100029463046BDE8F84006F013B929463046BE
:10B92000BDE8F84006F04EBA29463046BDE8F8407A
:10B9300006F00BBA29463046BDE8F84006F066B975
:10B9400029463046BDE8F84005F0A6BF29463046F6
:10B95000BDE8F84006F07AB829463046BDE8F84020
:10B9600005F0F8BF284604F06DFE0028C8D1002E6F
:10B97000C6D08DF800702B46012269465120FFF792
:10B980009CFE20B99DF8000040F010003AE000282D
:10B99000B7D12946304606F081FA0028B1D12946B0
:10B9A0003046BDE8F84002F07DBB002DA8D0686AA3
:10B9B0000028A5D08DF800702B4601226946512041
:10B9C000FFF77BFE0028E2D1317A9DF8000061F399
:10B9D000451017E0002D93D0686A002890D08DF8AC
:10B9E00000702B46012269465120FFF766FE0028B1
:10B9F000CDD19DF80000317A20F04000C1F3400124
:10BA000040EA81108DF800002B4601226946512042
:10BA100000F05EF8BBE729463046BDE8F84006F086
:10BA20003DBAF8B5040015D0606A98B100208DF8D1
:10BA3000000020796FF00305A0F11001022928D839
:10BA4000217A88421AD02146684605F0C1FB0600DB
:10BA500003D011E04FF0FF30F8BD23460122211D35
:10BA60007E2000F035F80646207A102802D1616A5F
:10BA700005208847217921723000EDD1207B0026F6
:10BA8000142808D0152806D0172804D02E46304692
:10BA9000F8BD2846F8BD217C8842F8D02346012213
:10BAA00004F10C017E2000F013F80646207C1428D7
:10BAB00002D0172803D008E05120616A04E0207BFF
:10BAC000152802D1616A0A208847207B2074DEE7AE
:10BAD0002DE9F0474FF000051C00904606468946C8
:10BAE0002F460BD0D4F820C0BCF1000F06D0B8F11F
:10BAF000000F06D0A078012806D007E04FF0FF35F0
:10BB000028E06FF00B0525E006F07F06207A11286B
:10BB100002D0207C152818D10A4660784346314669
:10BB2000E0470546616A0120884710E0256A09EB75
:10BB30000702607801233146A847761C0546616AF2
:10BB4000F6B2012088477F1CFFB24745EED30DB106
:10BB50006FF001052846BDE8F08738B504005DD0D8
:10BB6000606A00285AD0002521466846009500F0FA
:10BB700005FD002851D12346012269464020FFF7E8
:10BB8000A7FF002849D161796172E179E17223460A
:10BB9000012241200DF10101FFF79AFF00283CD15D
:10BBA000A179A17221466846009500F032FD002877
:10BBB00033D12346012269464220FFF789FF00283E
:10BBC0002BD1617B6174E17BE17423460122432028
:10BBD0000DF10101FFF77CFF00281ED1A17B20465B
:10BBE000A174FFF71EFF002817D123468DF80050DF
:10BBF000012269460220FFF760FD9DF80010C1F3A5
:10BC000043018DF8001001290BD002290CD0032923
:10BC10000DD0072901D16FF0080038BD4FF0FF307B
:10BC200038BD6FF0050038BD6FF0060038BD6FF00D
:10BC3000070038BD38B504004FF0B6008DF800009D
:10BC40000DD0606A58B12346012269467E20FFF775
:10BC50003FFF0546616A012088471DB11FE04FF094
:10BC6000FF351CE0A078012807D123460122694650
:10BC70007F20FFF722FD050011D10220E07108218D
:10BC80006171102222710322A271E073617314208A
:10BC900020730020A0736068A060E06820612846DF
:10BCA00038BD000030B41C461546084622462946D9
:10BCB00030BC014BFFF774BCF42C002030B41C46A0
:10BCC000154608462246294630BC014BFFF78CBC7E
:10BCD000F42C00202DE9F041054617460E461C467F
:10BCE000184604F0BBFC70B96EB1A078012801D0F1
:10BCF00045F08005607864683B4632462946A44694
:10BD0000BDE8F04160474FF0FF30BDE8F08138B545
:10BD1000054600208DF80000284604F09FFC040032
:10BD200015D12946012006F0F5F80446E9680320FC
:10BD3000884764B92B46012269464020FFF7CAFFB5
:10BD4000040004D19DF80000322802D0A41E204631
:10BD500038BD2870284605F03AFB0446F7E72DE980
:10BD6000FC410646002000900190304604F076FC2D
:10BD700007003CD13346082269464220FFF7AAFF5C
:10BD8000070034D19DF80000C0088DF800009DF92F
:10BD9000011040EA41109DF80210CD088DF80250C4
:10BDA0009DF9031045EA41159DF804104C088DF8E3
:10BDB00004409DF9051044EAC1149DF80610890855
:10BDC0008DF806109DF8072041EA82118846324618
:10BDD00000F084FCB08632464146284600F0BCFCA8
:10BDE000F08620463246414600F0F2FC3087384665
:10BDF000BDE8FC8170B5054690F8224004F02EFCA9
:10BE0000002807D13CB1012C05D0032C03D0042C11
:10BE10000CD0C01E70BD284606F062FA0028F9D189
:10BE200029462046BDE8704006F0BABC2946BDE868
:10BE30007040002006F06EB810B5044604F00EFC09
:10BE400000280AD194F82610012907D002290CD025
:10BE5000032911D0042917D0C01E10BD84F8230077
:10BE6000012084F82400022014E084F82300042038
:10BE700084F824000E200DE0052084F8230017200C
:10BE800084F82400522005E084F82300072084F879
:10BE900024001A2084F825002046BDE8104006F052
:10BEA00028B82DE9F041074615460E461C461846AF
:10BEB00004F0D4FB50B94EB145B16078A4682B466C
:10BEC00032463946A446BDE8F04160474FF0FF30A6
:10BED000BDE8F0810149085C704700000A280200B3
:10BEE00007490B5C4FF0A041D1F804250120984090
:10BEF00020EA0203C1F808351040C1F80C0570476C
:10BF0000062802000249085C012103F036B800004F
:10BF1000062802000249085C002103F02EB8000048
:10BF2000062802000649095C4FF0A040D0F804053D
:10BF3000C84010F0010000D0012080F001007047DF
:10BF40000628020010B500242046FFF7DBFF641C22
:10BF5000042CF9D310BD10B500242046FFF7DAFFFA
:10BF6000641C042CF9D310BD10B50246064B4FF0EB
:10BF7000FF3000215C5C944201D1084610BD491C91
:10BF80000429F7D310BD00000A28020010B50020D4
:10BF900000F066F908B1062806D1012000F060F92A
:10BFA00008B1062800D1002010BD00002DE9F0479F
:10BFB0000D468146FFF7D8FF0446042836D2DFF845
:10BFC00074801B481C4EA8F10C0725B3012D0ED020
:10BFD000022D2BD104EB440030444578002D25D0B0
:10BFE000B968002922D02846BDE8F047084704EB8D
:10BFF0004401755C0E44717849B10E4A4FF480419A
:10C00000093A8068FEF748FA08B987F80390B178D2
:10C0100008F80410E2E78068FEF768FA04EB4401D0
:10C02000314418F804008D78A842D7D0BDE8F087D5
:10C0300010280200882300207031002070B50023F2
:10C04000042810D20D4D00EB4004012A02D1012931
:10C050000CD00022094E00EB4000304461B10129B0
:10C0600006D0022906D00723184670BD0E30C2B292
:10C070002A55F9E74270F7E78270F5E77031002042
:10C08000044A014600201279D20702D0084600F087
:10C0900003B870477C2300202DE9F05F6E4C054605
:10C0A00000266078B34618B184F801B001F01EFD97
:10C0B0006A4F4FF47A694FF4C87A4FF00108182D8F
:10C0C00069D2DFE805F00C1313384754696E727BB0
:10C0D000727BC58484848484B3B6B9BCC5C501F0C1
:10C0E00005FD3868FEF702FA06465CE00020FFF71F
:10C0F00019FF00284FF0000008D0FFF703FF022DC2
:10C1000002D14FF4E16008E0484606E0FFF702FF85
:10C11000022D01D1C82000E05046410CC0034FF46D
:10C120007A72801841F10001257052000023FDF75A
:10C1300069F901462AE00020FFF7F4FE00284FF0DD
:10C14000000004D0FFF7DEFE4FF44870E5E7FFF78C
:10C15000E1FEDFE70020FFF7E5FE00284FF00000DA
:10C1600002D0FFF7CFFECFE7FFF7D4FED4E70020E1
:10C17000FFF7D8FE00284FF0000002D0FFF7C2FE04
:10C1800001E0FFF7C7FE257040F6CD410022386878
:10C19000FEF782F9064646E00020FFF7A1FE257073
:10C1A00008E0002051E025703DE084F80180012086
:10C1B000FFF796FE002240F26661E8E784F801800E
:10C1C0000120FFF78DFE00224FF40051DFE7786871
:10C1D000FEF78CF90646D5F1110000D02EB10220F1
:10C1E000FFF790FE84F802B01DE0012816D980B256
:10C1F000C8214843C117C90341EA5041C0034FF465
:10C200007A72801841F1000152000023FDF7FAF81C
:10C21000014600227868FEF73FF906460220FFF744
:10C2200079FE84F802803046BDE8F09F01F05EFCA4
:10C23000B9E701F05BFCB4E701F058FC04E001F061
:10C2400055FC0020FFF766FE0120FFF763FEAAE71A
:10C25000FFF781FEA7E700007C23002010280200E2
:10C26000012106F054BA00002DE9F84F0546861C5E
:10C2700000208DF8000091460F464FF0010A6846F5
:10C28000FEF756F91B4C04F21C4860683860D4E98C
:10C290000101194F401A3968081A0EE00121404681
:10C2A00002F09EF801F044FC0146404602F098F886
:10C2B000D4E90101401A3968081A401C8642EDD8B9
:10C2C000B9F1000F03D0052065F3891002E00620C4
:10C2D00065F39F5061683A68114004EB8101C860C2
:10C2E0006068304460609DF80000FEF745F95046F4
:10C2F000BDE8F88F003600206C24002070B50D4694
:10C3000004460A2902D10D21FFF7F8FFA068226830
:10C31000411CA1601554D4E90101814204D3204697
:10C32000BDE8704002F06CBA70BD0000044881683E
:10C330004068814201D10120704700207047000011
:10C340000036002010B503460078012203E09C5C13
:10C350006040521CD2B28A42F9D310BD05494FF059
:10C36000FF32082841F8202002D3084480F84820F2
:10C370007047000060320020F0B54FF0FF3512B179
:10C380000023082601E008230C260C4C05E000BF22
:10C3900054F823707F1C04D05B1CB342F8D32846AA
:10C3A000F0BD26185DB286F8305044F82310002AFC
:10C3B000F5D1E11881F84800F1E700006032002073
:10C3C0000249084490F930007047000060320020B4
:10C3D0002DE9F0438146887891B090460C4600B92B
:10C3E00001208DF83E002088ADF83C000025009526
:10C3F000607C694605F0B2FD6E46A07C711C05F0BC
:10C40000ADFDE07B00289DF8020002D040F008005E
:10C4100001E020F008008DF80200217C11B140F00D
:10C42000100001E020F010008DF80200217B11B116
:10C4300040F0010001E020F001008DF80200217DB4
:10C4400009B1022100E0012161F342008DF80200F0
:10C450001C2102A8FDF733F8607BC10601D48006D9
:10C4600017D50E950EAFE07C791C05F077FD9DF891
:10C470003800079720F00F00401C20F0F00010302B
:10C480008DF838009DF83A0020F00600801C8DF8E9
:10C490003A00607B8DF80800A07B8DF8090014211C
:10C4A00009A8FDF70CF80FA8CDE90906A088ADF89A
:10C4B0003000A06820B1E088ADF82C00A0680D9095
:10C4C000A06998B301950088ADF81000A06901AD8E
:10C4D00001A94088ADF81200A06940680695039054
:10C4E000A069007B05F03AFDA069691C407B05F05E
:10C4F00035FDA069807A00289DF8060002D040F042
:10C50000080001E020F008008DF80600A169C97A52
:10C5100011B140F0100001E020F010008DF806008D
:10C52000A169097A19B140F0010002E00DE020F0A4
:10C5300001008DF80600A169897B09B1022100E0A4
:10C54000012161F342008DF80600E06900B1059019
:10C55000434609AA02A94846AADF11B0BDE8F08304
:10C560004FF0A040D0F81005400D10F00101024836
:10C5700000D0012141707047C822002070B50D46DF
:10C580000B460446014602224020FFF796F8002899
:10C590002DD16979001F0C2929D86A7A914206D0D9
:10C5A000227801F00F0122F00F0211432170E97986
:10C5B00007291CD8EA7A914207D02278702322F00A
:10C5C000700203EA011111432170A9790022641C51
:10C5D0000C290AD8A87A814208D0207801F00F01EE
:10C5E00020F00F000143217000E00246104670BDAC
:10C5F00010B500231A4604E0845CFF2C00D0012310
:10C60000521C8A42F8DB012B01D0012010BD002012
:10C6100010BD70B50D460B4604460146022242206D
:10C62000FFF74BF800282AD1697B001F0D2926D877
:10C630006A7C914206D0227801F00F0122F00F02AD
:10C6400011432170E97B022919D82278302322F086
:10C65000300203EA0111114304F8011BA97B0022F7
:10C6600004290AD8A87C814208D0207801F007016B
:10C6700020F007000143217000E00246104670BD23
:10C6800070B5084C050009D010342168002907D086
:10C6900008682060496828468847F6E70834F4E7C8
:10C6A00070BD00004C320020054A012120B1012854
:10C6B00005D19170FFF7E4BF51700020FAE7704791
:10C6C0004C32002010B5D0E90234D1E90220D11A51
:10C6D000A04101D3012010BD002010BD30B51D4B7D
:10C6E00010F5805F34D011B9D18B89B381B3D38B6E
:10C6F0009B0393FBF1F1A1F5804111FB01F3DD17E1
:10C7000092F91D4003EB5563DB115C43137FDB01A2
:10C7100011FB03F12144CB1701EBD3514FF48013EC
:10C7200003EB612192F91230A0335943CB1701EB8F
:10C73000135109134843C11700EBD14092F910106F
:10C7400040F34F3000EBC100C11700EB1170031133
:10C75000184630BD0080FFFF30B51C4B10F5805FE0
:10C7600032D011B9D18B79B371B3D38B9B03B3FBA7
:10C77000F1F1A1F5804111FB01F3DD1792F91D40A4
:10C7800003EB5563DB115C43137FDB0111FB0341BA
:10C79000CB1701EBD35192F91330491201F58011F7
:10C7A000A0335943CB1701EB135109134843C11769
:10C7B00000EBD14092F9111040F34F3000EBC10073
:10C7C000C11700EB11700311184630BD0080FFFF48
:10C7D000F0B51A4B10F5804F2ED0B2F916505DB35C
:10C7E000948A4CB341B3D68B36B3B7B20EB2F11BB9
:10C7F000178B17FB01F1B2F91A207443801AC20398
:10C80000600000F50040CF17C41701EB977100EBF3
:10C810001440A2EBA10105EB204091FBF0F0B0F534
:10C82000004F01DB580C03E0984201DC0348401C38
:10C83000C11700EB1170031118B2F0BD0080FFFFAB
:10C840002DE9FC410E4614460746114605F026FB2D
:10C85000002857D100258DF8005023460122694653
:10C860006220FEF72AFF70B99DF8000010F0020F59
:10C870000BD020F002008DF800002346012269460B
:10C880006220FFF725F900283CD12146384601F007
:10C89000CBFB002836D18DF8005023460122694693
:10C8A0005920FEF70AFF78B99DF80000317820F092
:10C8B0008000890940EAC1108DF80000234601225A
:10C8C00069465920FFF704F900281BD18DF8005064
:10C8D0002346012269465F200195FEF7EEFE0028FF
:10C8E00010D19DF80000234620F003008DF80000D1
:10C8F0008DF8040070788DF80500022201A95F20F0
:10C90000FFF7E6F8BDE8FC81F8B5054600200E46C5
:10C910008DF800000B46012269465420FEF7CDFE3B
:10C9200000281DD12878AC1C01289DF8000018D0E3
:10C93000217820F02000C1F3001140EA411000BF2F
:10C940008DF80000218800F0F000C1F3431101438D
:10C950008DF800103346012269465420FFF7B8F8DD
:10C96000F8BD217820F01000C1F3001140EA011059
:10C97000E6E7000038B5044600200D468DF80000BB
:10C980000B46012269465320FEF797FE002825D169
:10C990002178A01C01299DF8001020D0007821F0FA
:10C9A000800141EAC01121F04001C0F3400241EA98
:10C9B0008211C0F3800221F0200141EA421121F0EE
:10C9C0001001C0F3C00041EA001000BF8DF8000064
:10C9D0002B46012269465320FFF77AF838BD0078CC
:10C9E00021F0080100F0010241EAC20121F0040136
:10C9F000C0F3400241EA8201C0F3800221F002014B
:10CA000041EA420121F00101C0F3C0000843DDE723
:10CA10007CB5044600200D468DF800005F260B46CD
:10CA20000190012269463046FEF747FE00282ED1CC
:10CA30009DF80000218820F0FC00C90840EA810030
:10CA40008DF800002B46012269463046FFF740F87A
:10CA500000281CD162202B4601226946FEF72DFEDC
:10CA6000002814D19DF80000218820F00100C1F3B6
:10CA7000402108438DF800008DF80500A0788DF85E
:10CA8000040061202B46022201A9FFF721F87CBD9A
:10CA900038B5044600200D460B4600900222694638
:10CAA0006520FEF70AFE00282FD19DF800002B46D6
:10CAB00020F00302207800F003011143C0F381024B
:10CAC00021F00C0141EA820121F0F001000941EA64
:10CAD00000108DF800009DF8010020F03F02208832
:10CAE000C0F305211143C0F3803221F0400141EA37
:10CAF000821121F08001C00B41EAC0108DF80100C5
:10CB0000022269466520FEF7E3FF38BD38B50446CA
:10CB100040780D468DF800000B46012269466020E2
:10CB2000FEF7D6FF00282AD12B4601226946622053
:10CB3000FEF7C3FD002822D19DF80000217820F0E7
:10CB40000C0001F0030140EA81008DF8000021781B
:10CB500020F03000C1F3810140EA01108DF800009F
:10CB6000217820F00200C1F3401140EA41008DF825
:10CB700000002B46012269466220FEF7A9FF38BD5E
:10CB800038B50D46002104460091008810F0C00F12
:10CB900008D0C0F38110012809D002280BD0032847
:10CBA00010D033E015208DF80000032007E02D2081
:10CBB0008DF8000028E01D208DF8000007208DF87A
:10CBC000010023E02B46022269467A20FEF775FD1C
:10CBD000E0B99DF80000217820F01800C1F3410170
:10CBE00040EAC1008DF80000217820F00700C1F371
:10CBF000C20101438DF800109DF80100218820F04A
:10CC00000700C1F3022101438DF801102B460222D7
:10CC100069467A20FEF75CFF38BDF8B5074600206C
:10CC20000E46154613460090022269466320FEF721
:10CC300044FD00282BD178789DF80040032806D1C8
:10CC4000308824F00701C0F3C21040EA01043178B3
:10CC50004023C1F3401003EA801024F04002104347
:10CC6000890920F0800242EAC1108DF800009DF889
:10CC70000110307821F01F0100F01F0008438DF8EB
:10CC8000010002222B4669466320FEF721FFF8BD12
:10CC900073B58CB00646002000900D9880B100243A
:10CCA0006D4621460DA801F07DFB30B1009805EBE3
:10CCB000400084800098401C0090641C142CF0D329
:10CCC0002C2269463046FCF7E1FB0EB070BD2DE921
:10CCD000F04117880646B81D14460D46984202D901
:10CCE0000C20BDE8F0813188072206290AD34FF4D1
:10CCF000486C4FF6FF73614501D9994202D17088A3
:10CD0000062801D21046ECE7604501D99842F9D1D6
:10CD1000994203D0984201D08142F3D80520E855CA
:10CD200020881221401C80B2208029542088401C79
:10CD300080B220804119308805F0C0FB218808446A
:10CD400080B220804119708805F0B8FB2188084422
:10CD500020800020C5E7000001A2D521FCF75CBAC5
:10CD60002E2E5C2E2E5C2E2E5C6D61696E2E630065
:10CD700038B54A7A0F4B62B100220A72596900290C
:10CD800006D001228DF80020ADF8020068468847E1
:10CD900038BD0A7A62B19B684C6802461946204643
:10CDA000FDF77AFB0028F3D0BDE8384004F000BD61
:10CDB0005B68F1E7B431002010B50021024801F0B2
:10CDC00025FB80F3100010BD1C3A00204FF4803288
:10CDD0008A400168C1F848230068C0F808237047FA
:10CDE0004FF4A07202EB810189B200F0CAB92DE9BB
:10CDF000F04105460E464FF4A07000EB860081B26C
:10CE000028684FF48034B440984622F07F47C0F839
:10CE100008432868C0F84843286802F075FC286871
:10CE200000EB8600C0F840752868C0F84443B8F1AC
:10CE3000000F02D02868C0F80443BDE8F081006804
:10CE4000D0F804057047000070B54379224C44F8CF
:10CE500023204279241D04EBC202204B1579204A7D
:10CE60009A1AD3082DB10824022000EB03401DA11B
:10CE70002EE002680D88C2F8085590F904208978E0
:10CE8000002A4FEA411106DA02F00F0202F1E02215
:10CE900082F8141D03E002F1E02282F8001490F9F8
:10CEA0000410012201F01F0502FA05F54909890065
:10CEB00001F1E021C1F80051417904EBC1010A718F
:10CEC000417944F831000320002400EB03400EA117
:10CED00002F050FA204670BD44240020683402005D
:10CEE0001834020052544320696E7374616E636596
:10CEF00020616C726561647920696E697469616C26
:10CF0000697A65642E0000005254433A20696E69C4
:10CF10007469616C697A65642E00000090F9040000
:10CF2000012100F01F0291404009800000F1E02043
:10CF3000C0F8001270470A46022100F019B94FF4F8
:10CF4000827100F01EB9006801210160704700681D
:10CF50000121416070472DE9F05F07460C464FF410
:10CF6000A07000EB84001FFA80FA38684FF4803616
:10CF7000A6409B4622F07F45C0F848633868C0F859
:10CF800008633868D0F8048500EB8402D2F8409535
:10CF9000C2F840855146386802F0B6FBA9EB08009C
:10CFA00020F07F40012806D1102002F043FF5146B7
:10CFB000386802F0A9FB3868D0F80485C0F84463EB
:10CFC000A5EB080121F07F413868012900EB8400BE
:10CFD00010D0C0F840553868D0F804156FF07F4C79
:10CFE0006A1A521E22F07F42ACEB0B03934217D316
:10CFF00062B118E06D1CC0F84055102002F01AFF15
:10D000003868D0F8040540450AD10CE000EB8400F4
:10D010006D1CC0F840553868D0F80405884202D02D
:10D020000D20BDE8F09F01223146384600F0A0F8FF
:10D030000020F6E7F8B504460D4600260B468DF8AD
:10D040000060012269465020FEF737FB00282BD1F3
:10D050002178C8079DF800001AD020F00100C1F324
:10D06000400101438DF8001021F002002178C1F346
:10D07000800140EA41008DF80000217820F0040092
:10D08000C1F3C00140EA81008DF80000EE7005E0B8
:10D0900020F007008DF80000FF20E8702B460122E9
:10D0A00069465020FEF714FDF8BD00002DE9F84355
:10D0B000104D0F4680461E4691466946286801F08D
:10D0C0003AF9040014D01C21FCF7F9F90120207171
:10D0D000C4F81490380BC4F80080C4E902606946B3
:10D0E000286801F049F904F051F90020BDE8F883FF
:10D0F0000420FBE7582A020070B500252C464FF4A7
:10D10000303600BF06EB043000F074FA08B101209D
:10D1100070BD641C042CF5DB284670BD30B5044698
:10D12000006887B00D46806800281FD01821684627
:10D13000FCF7C5F90195A0680590207910B1012888
:10D1400010D107E001208DF8000020690290E0680E
:10D15000039005E002208DF80000E06800030290D3
:10D1600060690490206881686846884707B030BDD0
:10D170000368C3F84413002A02D00068C0F80413FF
:10D18000704710B5006842581AB102F0BDFA01208C
:10D1900010BD002010BD2DE9FF4F83B00024DDF845
:10D1A00040B01E469146804600944FF0040A254642
:10D1B000C7B2019433E05B46012204A94D20FEF77B
:10D1C00087FC0446DBF824100A2088473CBB5B46FA
:10D1D000424669465046FEF770FA040002D06FF0EE
:10D1E00001041EE00020464501D2F7B203E0711BA6
:10D1F000414500DACFB26946B84207D20B5C05EB75
:10D20000000C401C09F80C30C0B2F5E79DF8101076
:10D2100001EB08008DF8100005EB0800C5B2B5421F
:10D22000C9D307B02046BDE8F08F0AB101F0C5B8F8
:10D2300001F0ADB870B50D460446B0F8D810D0F87E
:10D24000D4000122FDF7B7FA00B1057004F13C02E9
:10D2500004F1D40104F1540072DF70BD406800286D
:10D2600009D005480549401AC008032101EB0040D8
:10D27000034902F07FB87047883402001834020076
:10D28000EC3202000EB516A19DF8080020F00F0048
:10D29000401C20F0F00010308DF80800062202A893
:10D2A0007CDF18B1104AB621FBF7B6FF00200090D2
:10D2B00001902020ADF800002420ADF802000220EB
:10D2C000ADF804004FF4C870ADF8060068467ADF88
:10D2D000002803D0044AC021FBF79EFF0EBD0000CA
:10D2E000456172506F740000A80C020030B40D4A02
:10D2F0004B88148AA34207D10B88A3F52064773C9E
:10D3000002D18988C91E518203884288064807498C
:10D3100030BC401AC008042101EB004004A102F017
:10D3200034B80000C82200208834020018340200FB
:10D33000415454204D54552065786368616E67658B
:10D3400020636F6D706C657465642E2063656E7408
:10D3500072616C203078257820706572697068651C
:10D3600072616C20307825780000000010B50C49FF
:10D370000C4801F0C2F820B10BA240F28F11FBF76C
:10D380004BFFF721074801F0ACF8002806D0BDE8B4
:10D39000104005A24FF4C971FBF73EBF10BD00005D
:10D3A000EDD20100D42B00202E2E5C2E2E5C2E2ED2
:10D3B0005C6D61696E2E6300FEB5002613460C4657
:10D3C0000546821D00960196694612200296FEF7D8
:10D3D00074F908B1B01EFEBD9DF800109DF8012043
:10D3E000032D41EA022121809DF802209DF80310BF
:10D3F00042EA012161809DF804109DF8052041EA70
:10D400000221A18001D0A660FEBD9DF807109DF805
:10D4100006300A029DF8081042EA01411943A16052
:10D42000FEBD2DE9FF41002714460D46064600F1DA
:10D430000C0200970197029769460C200397FEF7AC
:10D440003CF918B1B81E04B0BDE8F0819DF8001099
:10D450009DF80120032E41EA022121809DF802203F
:10D460009DF8031042EA012161809DF804109DF8A7
:10D47000052041EA0221A1809DF806109DF80720B1
:10D4800041EA022129809DF808109DF8092041EA0F
:10D49000022169809DF80A109DF80B2041EA0221C3
:10D4A000A98002D0AF60A760CDE79DF80D109DF870
:10D4B0000C300A029DF80E1042EA01411943A9609E
:10D4C000A160C0E708B56946002002F09FFEBDF9E3
:10D4D000000000EBC0004000FCF704F94FF03332CD
:10D4E000094BFCF707F86FF00902FCF7E4F800229B
:10D4F000064BFBF7FFFF064A064BFBF7FBFFFCF76B
:10D500000FF980B208BD00003333E33F00408F4085
:10D510008D976E1283C0F03F7FB500260C460096B3
:10D5200001960296B51E1346039638B100F10C021F
:10D5300069460C20FEF7C1F800B305E006226946F3
:10D540000C20FEF7BAF810B1284604B070BD9DF863
:10D5500000109DF8012041EA022121809DF802106F
:10D560009DF8032041EA022161809DF804209DF886
:10D57000051042EA0121A180A660E6E79DF80010AF
:10D580009DF8012041EA022121809DF802209DF8AA
:10D59000031042EA012161809DF804209DF80510E6
:10D5A00042EA0121A1809DF80D109DF80C300A027D
:10D5B0009DF80E1042EA01411943A160C5E7000041
:10D5C00010B50B48FFF73BFC094A083AD2E904348E
:10D5D000C018D2E9063244F10001C31A71EB02020D
:10D5E00004D24FF08072801841F1000110BD00009C
:10D5F0002824002010B50146002301220B4801F029
:10D60000F9F910F0FF040CD009480A492246401AE3
:10D61000C008032101EB004007A101F0AFFE032089
:10D6200010BD024801F0D7F8204610BDCC240020E0
:10D6300088340200183402006E72665F6673746F7D
:10D64000726167655F6572617365206572726F7282
:10D650002C25640002490022024801F067BA00004C
:10D66000682A0200CC24002010B5B9B1B2B113462B
:10D670000A4601460A4801F0CBFA10F0FF000CD030
:10D680000849094A891AC908032202EB01430246E4
:10D6900006A1184601F072FE042010BD012010BD45
:10D6A000CC24002088340200183402006E72665FB9
:10D6B0006673746F726167655F726561642065721D
:10D6C000726F722C2564000002490320C1F8000724
:10D6D0007047000048000050002805D14FF0A041DD
:10D6E0004FF48020C1F80C057047002805D14FF099
:10D6F000A0414FF48020C1F8080570470148007828
:10D7000002F05ABFC52400200EB50E49C868496909
:10D7100000904FF6E850CDE9010168460A4902F051
:10D7200065FF18B109A21721FBF776FD104802F03A
:10D7300021FF18B105A21921FBF76EFD02F048FF89
:10D740000EBD0000782B0200492702002E2E5C2E11
:10D750002E5C2E2E5C2E2E5C2E2E5C2E2E5C4861B6
:10D760006C5C5372635C68616C5F7764742E6300F9
:10D77000C524002070B51A4C627820460026008A25
:10D780004FF6FF7101258AB1884202D0132176DF5E
:10D790001CE0FCF72FFF19E0607A012802D104F0A9
:10D7A000B1FC6672BDE8704001F084BF884215D1BB
:10D7B000A07858B90B48012190F8540073DF20B1CC
:10D7C000094A40F29C61FBF727FDA570E07900282B
:10D7D000E2D1102001F0C3FBE571DDE770BD000070
:10D7E000C8220020F02B0020A80C020010B50A4926
:10D7F00041600A4800F0F1FD58B902F003FA074908
:10D800001C238C22087404488C39001F006800F027
:10D810007FFD002010BD00005C2A0200543400206F
:10D82000F8B51F48FEF706FAC82000F06BFF1C4849
:10D83000FDF787FF1B491C4A891AC908032606EB16
:10D84000014430B3204619A101F094FD1448FCF7BF
:10D850008DFC1348FCF7D0FD1148FCF793FC1048F1
:10D86000FCF72EFD054620462A4616A101F086FD4E
:10D87000002D0DD119481A4A6946806800908DF82C
:10D880000160142002F02EFB0121142002F0DAFACC
:10D89000F8BD034813A10278204601F06FFDD5E7DB
:10D8A000F42C00208834020018340200496E697498
:10D8B00020626D78313630206661696C6564210ABA
:10D8C00000000000696E7465727275707420696E74
:10D8D0006974207265743A2564000000E027020034
:10D8E00025B50100496E697420626D7831363020AB
:10D8F000737563636573732C636869702069643A38
:10D90000307825780A0000000146034802888A42E0
:10D9100000D0002070470000A03100202DE9FC5FFE
:10D920000E008346DDE90C47C6F10000984692469A
:10D93000814600D40846012503E000BF90FBFAF0C1
:10D940006D1C5045FADAA84500D9454624B1002E91
:10D9500001DB780700D5641EB80702D5B8F1000FC7
:10D960000AD0F80708D13CB1A54205D2202158467B
:10D97000641EFEF7C3FCF6E7002E02DA4E462D21A8
:10D9800002E0780703D52B215846FEF7B7FC07F0D5
:10D99000030002280BD1B8F1000F08D13CB1A54219
:10D9A00005D230215846641EFEF7A8FCF6E7CDE903
:10D9B0000047434652463146584604F095FDBDE8BF
:10D9C000FC9F024600201268530713D502F00300A3
:10D9D000012802D002280CD105E0C2F383100B68A5
:10D9E000801C184404E00223086803EB92521044A0
:10D9F00008600120704700002DE9F04791468846F5
:10DA000004464FF480354FF4A0760027DFF884A059
:10DA100016E000BFD4F8040328420DD0A05958B135
:10DA2000C4F84853C4F808533146204601F066FE56
:10DA30005AF82810F8B28847361D6D00B6B27F1C20
:10DA40004F45E7D3D4F804034FF4807110F0010F71
:10DA500009D0D4F8000130B1204601F04FFE5AF849
:10DA6000281004208847D4F804034FF4827110F082
:10DA7000020F0CD0D4F80401002808D0204601F091
:10DA80003DFE5AF82810BDE8F04705200847BDE8DC
:10DA9000F08700001C2400200248007A002800D0F3
:10DAA0000120704754340020F0B58488A5189442B2
:10DAB00000D82246A41AC288D6189A4200D8134623
:10DAC000D21A4B880788BB420CD34088834209D8BE
:10DAD0008888A04206D3A84204D8C888904201D3BF
:10DAE000B04201D90020F0BD0120F0BD0A4810B5B8
:10DAF000807860B1002401E0022C06D02046FEF7B9
:10DB000001FA641C042CF7D310BD0324F6E7BDE82A
:10DB10001040FEF717BA00007C230020F721018097
:10DB20001721418000210171417170477047000049
:10DB30002DE9FF410026244800F04CFC2248001F3C
:10DB4000074600F047FC214C2149A06800900D6871
:10DB500000E000986946284004EB80000C30FFF795
:10DB600030FF0028F5D101AA009901EA050304EB72
:10DB70008303491CDB6842F82030401C00910228D6
:10DB8000F2D3019800F0030001280BD0022810D135
:10DB90000198032101EB90500099BDF80A6001EB58
:10DBA000900005E00198BDF80A60C0F383100844B6
:10DBB0000090384600F00BFC08B10098A06004B05B
:10DBC0003046BDE8F0810000183A00200036002001
:10DBD0006C24002088B04FF48041002001F04CFC00
:10DBE00020B1BC4A4FF4DE71FBF716FB01F09AFA44
:10DBF000FCF724FC20B1B74A40F20761FBF70CFBAD
:10DC000002F0D6F910F0FF0004D0B3A240F2BA61DE
:10DC1000FBF702FBFFF758FD0020FFF766FDB24F50
:10DC20000325B24A786800908DF8015069461520A6
:10DC300002F058F90121152002F004F9102001F03A
:10DC400044F9102001F08BF9FFF75EFD01F01EFD95
:10DC500020B1A04A40F2C711FBF7DEFAFDF740FC05
:10DC6000FFF710FBFFF782FBA1480190002601A9F6
:10DC7000A04800F0CAFC20B1964A40F2DB51FBF705
:10DC8000CBFA9D48009069469C48FDF733FA20B1D5
:10DC9000904A40F2E351FBF7BFFAFCF735F91C213B
:10DCA0006846FBF70CFC4FF4A030CDE900604FF460
:10DCB000F02002909248059092488DF80C50069002
:10DCC000ADF80E608DF810606846FCF75DFF18B186
:10DCD000804AE921FBF7A0FA864803210C30FCF7C3
:10DCE00051FE864C4FF00108303C0D2084F8028034
:10DCF0000090854985487C4A081AC00805EB004514
:10DD000040F2CD63103282A1284601F046FB28463E
:10DD100087A38AA28CA101F038FBFFF79BFC9148F6
:10DD200003F0AEFA7048904A01210C30FCF776FB04
:10DD300000224FF47021F868FCF7AEFB03F04EFCB4
:10DD4000FFF7C0FB82B2E281284688A101F016FBF2
:10DD500003F074FC0020FFF7BFFCFFF7CDF902468B
:10DD600085A1284601F00AFB4FF0A04701F0E8F931
:10DD70000028FBD1FFF7FEFC208AA0F57F41FF3988
:10DD80007ED0607B012801D1FDF706FB20790028B9
:10DD90007BD0A07A012813D1A672FFF7ADF92846EF
:10DDA0007AA101F0E7FA02E06E4803F041FA6D480B
:10DDB00003F055FA0028F7D0284679A101F0DAFAE5
:10DDC000607A68B904F0A4F97B487A4901627B491A
:10DDD000C1617B494162467080F8028084F8098005
:10DDE000E07901280FD1D7F80405000C10F0010FDD
:10DDF00009D04FF48030C7F80C05642000F082FC95
:10DE0000FFF70EFDE67120780028AFD06A4B0320A3
:10DE100003F13802A2F10C01FDF769FC37481C3010
:10DE2000FDF79DFF644894F806C02C300CEBCC0144
:10DE3000A0F50463028823F8112003EB4101428816
:10DE40004A808088888003F64C000288CA80428815
:10DE50000A818088488129481C30828E8A81C28E3E
:10DE6000CA81008F0882607968B10CF1010C0CF056
:10DE7000FF00A071052806D11846FDF755FA01E00C
:10DE800011E002E0A671267070E7E07920B9102059
:10DE900001F065F884F80780607A0128F4D104F075
:10DEA00031F9667262E703F0C9FB04F02BF9052033
:10DEB00001F002F8042000F0FFFF142000F0FCFF46
:10DEC000102001F002F8102001F049F80020FFF7BF
:10DED00003FC4BE7A80C02002E2E5C2E2E5C2E2E8F
:10DEE0005C6D61696E2E6300E027020061C5010070
:10DEF000C9F60100E42B002075060200F82200207C
:10DF0000B90C020059CD0100883402001834020017
:10DF100025732C25642C626C6520696E69742066FB
:10DF2000696E6973682C7665723A2564000000009A
:10DF300030303A35383A3032000000004175672001
:10DF4000313320323032330070726F6A656374206F
:10DF50006275696C642074696D653A25732C25734C
:10DF600000000000702500200DA40100766F6C7485
:10DF70006167653A256400006572617365207365A9
:10DF800063746F72207265743A2564006572617300
:10DF90006520666C61736820646F6E650000000028
:10DFA000717565756520726573657420646F6E6543
:10DFB00000000000BDE20100F42C002075E2010029
:10DFC00005E7010070B5144682880E460546208894
:10DFD000111D0144921C994201D8FE2A01D90C203E
:10DFE00070BD521C32542088FF21401C80B220801A
:10DFF00031542088401C80B220808119288804F088
:10E000005DFA2188084480B22080AA8842B1A968BC
:10E0100041B13044FBF73AFA2088A98808442080AF
:10E02000002070BD072070BDF8B5054600200E46E3
:10E030000B460090032269465520FDF73EFB002861
:10E0400012D1687816499DF800409DF80220085CBE
:10E050002B788443824343B1012B09D0022B09D092
:10E06000032B0DD06FF00300F8BD8DF800400DE0DC
:10E070000443FAE702438DF802208DF8004007E0E0
:10E0800004438DF800406878085C02438DF8022054
:10E090003346032269465520FDF71AFDF8BD0000FE
:10E0A0009D2B0200F8B5054600200E468DF80000B5
:10E0B0000B46012269465620FDF7FFFA002811D1D0
:10E0C00069781548425C9DF80000904320EA0214EC
:10E0D000287840B1012809D002280CD003280ED09E
:10E0E0006FF00300F8BD8DF800400EE044EA021026
:10E0F0008DF8000009E022438DF8002005E042EA97
:10E10000040040EA02118DF80010334601226946EE
:10E110005620FDF7DDFCF8BD9D2B02002DE9F047F0
:10E12000C5881E1DB6FBF5F78946B6FBF5F104461A
:10E1300005FB176C407916686843DDF820A0F718D6
:10E14000001F874200D9C61A166001E02468491EE4
:10E150000029FBD1A5EB0C078846B74216D818E07A
:10E1600004EB0C00001D09EB0803BAF1000F3A465E
:10E1700002D00146184600E01946FBF787F92468EB
:10E18000F61B4FF0000CB844B54201D9374600E009
:10E190002F46002EE4D1BDE8F087000030B50246DE
:10E1A00051B101F07DF90021074C08E034F821302D
:10E1B0001568AB4202D11160002030BD491C81427C
:10E1C000F4D3052030BD000000000000F8B50F4674
:10E1D000017814460546012901D1687830B12088BC
:10E1E000821C9A4232D8012902D006E00720F8BDED
:10E1F00069780144891C994228D8181A801E86B271
:10E20000ADF800602188B81C084469467DDF00280D
:10E21000EDD12978022904D06878BDF80020904219
:10E2200005D3BDF80000B04201D809200AE008205B
:10E23000012905D16978B14202D8ADF8001001E09A
:10E24000ADF80060BDF80010FE2901D90C20F8BD22
:10E250002288491CB9542188491C89B221807854EC
:10E260002088401C2080BDF8001008442080002039
:10E27000F8BD0000F8B50D4E00201C461746307062
:10E280000B480170581CC2B20A4B09490A48009257
:10E2900000F096FA054630780028FCD00549224661
:10E2A000491C3846FBF7F2F868B2F8BDC4240020D8
:10E2B000A83C0020A83D0020582B020038B50C4D8A
:10E2C0001C460020134628700A48224600F8011B0D
:10E2D0001946FBF7DBF8641CE2B2074B0549074817
:10E2E000009200F06DFA29780029FCD040B238BDC8
:10E2F000C4240020A83C0020A83D0020582B020088
:10E3000010B5FAF7E2FF08B1002010BD112010BDD2
:10E3100010B531B1B2FBF3F403FB14241CB1092096
:10E3200010BD0E2010BD016000214160816082811E
:10E33000C381084610BD70B50C460546FAF77AFF52
:10E34000002802D021882868084470BD10B50A88CA
:10E3500049888A4203D1FAF7AFFF012010BD00209F
:10E3600010BD70B50C460546FAF789FF002802D0AB
:10E3700061882868084470BD10B50A8849888A42B7
:10E3800003D1FAF773FF012010BD002010BD01F08A
:10E390001F0301229A40D243490900EB8100114634
:10E3A00000F024B84A0950F8220001F01F020121B0
:10E3B0009140084000D00120704701F01F03012266
:10E3C0009A40490900EB8100114600F024B8002171
:10E3D00000F012B8012100F01EB8012100F011B8C0
:10E3E00008B56A46FAF7BDFF009808BD08B56A4649
:10E3F000FAF79DFF009808BD08B56A46FAF797FF3F
:10E4000008BD08B56A46FAF785FF08BD08B56A4633
:10E41000FAF774FF08BD08B56A46FAF77BFF009863
:10E4200008BD08B56A46FAF7A9FF009808BD38B5D7
:10E43000044600258DF800506846FCF779F82168FD
:10E440006268086890420ED9401E08600178238AED
:10E45000E26801FB0325227A2168101AC0B20A790A
:10E46000824200D208719DF80000FCF785F828462A
:10E4700038BD38B5054600208DF800000C466846CA
:10E48000FCF756F8E868298A201AB0FBF1F12A68EF
:10E490001068431C136001709DF80000FCF76CF8D5
:10E4A00038BD10B530B1017A42680368891AC9B223
:10E4B0001A6006E00E2010BD03681A68541C1C6028
:10E4C0001170491EC9B2F7D20068002101710846D7
:10E4D00010BDC20800F007030120895C9840084085
:10E4E000704728B1A1F11702E12A03D30720704732
:10E4F0000E20704701800020704710B560B1C160E8
:10E50000F72120F8021B20F8021BFB2100F8021B58
:10E51000FFF704FB002010BD0E2010BD2DE9F041D7
:10E520000C468188002942D101880025102906D097
:10E5300011290BD03A290DD0552914D10FE0C07BF9
:10E54000A11D01280FD1208808800CE0A01DFFF735
:10E55000E5FA08E00146204602F0A4FC03E001468B
:10E56000204602F0F7FBA07A002820D02846E18858
:10E57000A5DF1049104A0127891ACE0858B1112881
:10E5800015D001F001FC024607EB0640BDE8F04162
:10E590000AA100F0F3BEA572E77204202B46E288C0
:10E5A00000EB0640BDE8F041114900F0EEBEBDE8C9
:10E5B000F0810000183402001834020073645F62B6
:10E5C0006C655F67617474635F65786368616E67CB
:10E5D000655F6D74755F7265717565737428292048
:10E5E00072657475726E65642025732E00000000DC
:10E5F000302C020020B10278DE2A03D008207047B8
:10E600000E20704741800020704760B159B10278F8
:10E61000DE2A0AD009684160DE2101704FF6FF71E1
:10E620004180002070470E207047082070477FB55A
:10E63000054600294DD0002D4BD008780C46DE2829
:10E6400047D1A8886188884202D1204603F0E6FFBE
:10E650002888012825D002283BD011283AD05128FB
:10E6600037D135F8040F6188884232D1A978A81CC7
:10E6700002292ED1017A042903D0062901D00529C7
:10E6800027D10021009102228DF8002001914FF442
:10E69000C07202910391ADF80420007A05280FD0D2
:10E6A00010E0297A2046012913D1A9884288914295
:10E6B0000FD10121017204B0BDE8704003F0AEBF7C
:10E6C000ADF8041028886946B0DF002801D06168E1
:10E6D00088477FBDA88861888842FAD14FF6FF70CD
:10E6E00060807FBD00F180400068002800D00120DC
:10E6F000704708B500F1804000210160006800907B
:10E7000008BD00002DE9F041040007D0044E4FF48D
:10E710007A47751C3846A847641EFAD1BDE8F081D7
:10E720000028020070B50D4C0125207808B185261F
:10E730000EE00020A06060602061E060084801F009
:10E740004BFB064601F05EFA08B901F02FFB25707D
:10E7500001F024FB00B1A570304670BD4C320020A2
:10E76000A9C6010038B500258DF800506846FBF7B2
:10E77000DFFE084CE068401EE060E06828B901F068
:10E780000DFB10B901F036FBA5709DF80000FBF7FA
:10E79000F3FE38BD4C32002030B41C460378064DE1
:10E7A00045F823202D1D45F8234002B1034A30BC13
:10E7B000001D01F0C1BD00000824002091210200CD
:10E7C0001FB5001D069C8DE81E000022694601F061
:10E7D0009FFE04B010BD10B50446204600F0F0F9CD
:10E7E0000028FAD110BD0FB408B50399002904D050
:10E7F00004AA00926A4600F00FF801B05DF814FB1D
:10E8000010B582680446002A05D0D4E904032168C3
:10E8100098470020A06010BD2DE9FC4791460C00F0
:10E82000804676D014F8011B39B125290ED0404618
:10E83000FDF764FD20780028F4D198F80C0000283A
:10E8400067D04046BDE8FC47FFF7DABF0020012251
:10E8500021782B291BD02D2902D0302908D102E0A4
:10E8600040F0010001E040F00200641C002AEFD1FA
:10E8700000252A290ED02178A1F130020A2A11D2CE
:10E8800005EB850201EB4205641C303DF1E740F0E9
:10E890000400EAE7D9F800100B1DC9F80030096838
:10E8A000641C0D44217800232E290BD114F8011F7C
:10E8B000A1F130020A2A05D203EB830201EB4203E5
:10E8C000303BF3E76C290DD068290BD0692921D0A2
:10E8D0000BDC252918D0582931D063290ED06429A2
:10E8E00015D117E014F8011FECE7702969D07329DE
:10E8F00032D075291BD0782909D120E0D9F8000041
:10E90000011DC9F8001001784046FDF7F7FC641CB2
:10E9100090E76CE0D9F800100A1DC9F800200968DA
:10E92000CDE900500A224046FEF7F8FFEFE7D9F89C
:10E9300000100A1DC9F8002009680A2206E0D9F86B
:10E9400000100A1DC9F8002009681022CDE9005006
:10E95000404603F0C9FDDAE7D9F8001000270A1D88
:10E96000C9F800200E68C00705D112E04046761CA9
:10E970007F1CFDF7C3FC31780029F7D104E020218A
:10E9800040466D1EFDF7BAFCBD42C0D9002DF6D140
:10E99000BDE74EB13046FAF79DFD074604E0202161
:10E9A00040466D1EFDF7AAFCBD4206D9002DF6D1EA
:10E9B00003E04046761CFDF7A1FC31780029F8D130
:10E9C000A5E7D9F80000011DC9F80010056830213D
:10E9D0004046FDF793FC78214046FDF78FFC082068
:10E9E0000021CDE90001034610222946B0E7BDE829
:10E9F000FC8700002DE9F843884605002C482D4986
:10EA00009946A0EB01004FEAD0004FF001011646F5
:10EA100001EB004424D0286800282CD0002E34D0EC
:10EA2000696840464FF010070A68511E11EA080F46
:10EA300011D1014672432846FBF73AFA00282ED03E
:10EA400028684B463246046901B041462846A44630
:10EA5000BDE8F04360472046174B18A2009722E01C
:10EA60000E2000902046144B1EA220A100F095FC21
:10EA70000E20BDE8F8830820009020460E4B26A209
:10EA80001AA100F08AFC0820F3E709200090204634
:10EA9000094B24A215A100F080FC0920E9E7064BF0
:10EAA000214A2046009711A100F077FC1020E0E7F2
:10EAB0008034020018340200432A02006164647248
:10EAC0005F69735F706167655F616C69676E6564DC
:10EAD00028705F66732C20706167655F6164647283
